{
  "contractName": "HAT_TOKEN",
  "abi": [
    {
      "inputs": [],
      "stateMutability": "nonpayable",
      "type": "constructor"
    },
    {
      "anonymous": false,
      "inputs": [
        {
          "indexed": true,
          "internalType": "address",
          "name": "owner",
          "type": "address"
        },
        {
          "indexed": true,
          "internalType": "address",
          "name": "spender",
          "type": "address"
        },
        {
          "indexed": false,
          "internalType": "uint256",
          "name": "value",
          "type": "uint256"
        }
      ],
      "name": "Approval",
      "type": "event"
    },
    {
      "anonymous": false,
      "inputs": [
        {
          "indexed": true,
          "internalType": "address",
          "name": "from",
          "type": "address"
        },
        {
          "indexed": true,
          "internalType": "address",
          "name": "to",
          "type": "address"
        },
        {
          "indexed": false,
          "internalType": "uint256",
          "name": "value",
          "type": "uint256"
        }
      ],
      "name": "Transfer",
      "type": "event"
    },
    {
      "inputs": [
        {
          "internalType": "uint256",
          "name": "",
          "type": "uint256"
        }
      ],
      "name": "Contacts",
      "outputs": [
        {
          "internalType": "address",
          "name": "owner",
          "type": "address"
        },
        {
          "internalType": "address",
          "name": "contact_name",
          "type": "address"
        },
        {
          "internalType": "string",
          "name": "name",
          "type": "string"
        }
      ],
      "stateMutability": "view",
      "type": "function",
      "constant": true
    },
    {
      "inputs": [
        {
          "internalType": "uint256",
          "name": "",
          "type": "uint256"
        }
      ],
      "name": "Employees",
      "outputs": [
        {
          "internalType": "string",
          "name": "name",
          "type": "string"
        },
        {
          "internalType": "string",
          "name": "employeeid",
          "type": "string"
        },
        {
          "internalType": "string",
          "name": "employeerank",
          "type": "string"
        },
        {
          "internalType": "string",
          "name": "employeegroup",
          "type": "string"
        }
      ],
      "stateMutability": "view",
      "type": "function",
      "constant": true
    },
    {
      "inputs": [
        {
          "internalType": "uint256",
          "name": "",
          "type": "uint256"
        }
      ],
      "name": "Transactions",
      "outputs": [
        {
          "internalType": "address",
          "name": "sender",
          "type": "address"
        },
        {
          "internalType": "address",
          "name": "reciver",
          "type": "address"
        },
        {
          "internalType": "uint256",
          "name": "amount",
          "type": "uint256"
        }
      ],
      "stateMutability": "view",
      "type": "function",
      "constant": true
    },
    {
      "inputs": [
        {
          "internalType": "uint256",
          "name": "",
          "type": "uint256"
        }
      ],
      "name": "Users",
      "outputs": [
        {
          "internalType": "string",
          "name": "name",
          "type": "string"
        },
        {
          "internalType": "address",
          "name": "user_crypto_id",
          "type": "address"
        },
        {
          "internalType": "string",
          "name": "password",
          "type": "string"
        }
      ],
      "stateMutability": "view",
      "type": "function",
      "constant": true
    },
    {
      "inputs": [],
      "name": "admin",
      "outputs": [
        {
          "internalType": "address",
          "name": "",
          "type": "address"
        }
      ],
      "stateMutability": "view",
      "type": "function",
      "constant": true
    },
    {
      "inputs": [
        {
          "internalType": "address",
          "name": "owner",
          "type": "address"
        },
        {
          "internalType": "address",
          "name": "spender",
          "type": "address"
        }
      ],
      "name": "allowance",
      "outputs": [
        {
          "internalType": "uint256",
          "name": "",
          "type": "uint256"
        }
      ],
      "stateMutability": "view",
      "type": "function",
      "constant": true
    },
    {
      "inputs": [
        {
          "internalType": "address",
          "name": "spender",
          "type": "address"
        },
        {
          "internalType": "uint256",
          "name": "amount",
          "type": "uint256"
        }
      ],
      "name": "approve",
      "outputs": [
        {
          "internalType": "bool",
          "name": "",
          "type": "bool"
        }
      ],
      "stateMutability": "nonpayable",
      "type": "function"
    },
    {
      "inputs": [
        {
          "internalType": "address",
          "name": "account",
          "type": "address"
        }
      ],
      "name": "balanceOf",
      "outputs": [
        {
          "internalType": "uint256",
          "name": "",
          "type": "uint256"
        }
      ],
      "stateMutability": "view",
      "type": "function",
      "constant": true
    },
    {
      "inputs": [],
      "name": "decimals",
      "outputs": [
        {
          "internalType": "uint8",
          "name": "",
          "type": "uint8"
        }
      ],
      "stateMutability": "view",
      "type": "function",
      "constant": true
    },
    {
      "inputs": [
        {
          "internalType": "address",
          "name": "spender",
          "type": "address"
        },
        {
          "internalType": "uint256",
          "name": "subtractedValue",
          "type": "uint256"
        }
      ],
      "name": "decreaseAllowance",
      "outputs": [
        {
          "internalType": "bool",
          "name": "",
          "type": "bool"
        }
      ],
      "stateMutability": "nonpayable",
      "type": "function"
    },
    {
      "inputs": [],
      "name": "employeeadmin",
      "outputs": [
        {
          "internalType": "address",
          "name": "",
          "type": "address"
        }
      ],
      "stateMutability": "view",
      "type": "function",
      "constant": true
    },
    {
      "inputs": [
        {
          "internalType": "address",
          "name": "spender",
          "type": "address"
        },
        {
          "internalType": "uint256",
          "name": "addedValue",
          "type": "uint256"
        }
      ],
      "name": "increaseAllowance",
      "outputs": [
        {
          "internalType": "bool",
          "name": "",
          "type": "bool"
        }
      ],
      "stateMutability": "nonpayable",
      "type": "function"
    },
    {
      "inputs": [],
      "name": "name",
      "outputs": [
        {
          "internalType": "string",
          "name": "",
          "type": "string"
        }
      ],
      "stateMutability": "view",
      "type": "function",
      "constant": true
    },
    {
      "inputs": [],
      "name": "symbol",
      "outputs": [
        {
          "internalType": "string",
          "name": "",
          "type": "string"
        }
      ],
      "stateMutability": "view",
      "type": "function",
      "constant": true
    },
    {
      "inputs": [],
      "name": "totalSupply",
      "outputs": [
        {
          "internalType": "uint256",
          "name": "",
          "type": "uint256"
        }
      ],
      "stateMutability": "view",
      "type": "function",
      "constant": true
    },
    {
      "inputs": [
        {
          "internalType": "address",
          "name": "sender",
          "type": "address"
        },
        {
          "internalType": "address",
          "name": "recipient",
          "type": "address"
        },
        {
          "internalType": "uint256",
          "name": "amount",
          "type": "uint256"
        }
      ],
      "name": "transferFrom",
      "outputs": [
        {
          "internalType": "bool",
          "name": "",
          "type": "bool"
        }
      ],
      "stateMutability": "nonpayable",
      "type": "function"
    },
    {
      "inputs": [
        {
          "internalType": "address",
          "name": "to",
          "type": "address"
        },
        {
          "internalType": "uint256",
          "name": "amount",
          "type": "uint256"
        }
      ],
      "name": "mint",
      "outputs": [],
      "stateMutability": "nonpayable",
      "type": "function"
    },
    {
      "inputs": [
        {
          "internalType": "uint256",
          "name": "amounnt",
          "type": "uint256"
        }
      ],
      "name": "burn",
      "outputs": [],
      "stateMutability": "nonpayable",
      "type": "function"
    },
    {
      "inputs": [
        {
          "internalType": "address",
          "name": "_address",
          "type": "address"
        }
      ],
      "name": "change_admin",
      "outputs": [],
      "stateMutability": "nonpayable",
      "type": "function"
    },
    {
      "inputs": [
        {
          "internalType": "address",
          "name": "_address",
          "type": "address"
        }
      ],
      "name": "change_employeeadmin",
      "outputs": [],
      "stateMutability": "nonpayable",
      "type": "function"
    },
    {
      "inputs": [
        {
          "internalType": "string",
          "name": "_password",
          "type": "string"
        }
      ],
      "name": "login",
      "outputs": [
        {
          "internalType": "bool",
          "name": "",
          "type": "bool"
        }
      ],
      "stateMutability": "view",
      "type": "function",
      "constant": true
    },
    {
      "inputs": [
        {
          "internalType": "string",
          "name": "_name",
          "type": "string"
        },
        {
          "internalType": "address",
          "name": "_user_crypto_id",
          "type": "address"
        },
        {
          "internalType": "string",
          "name": "_password",
          "type": "string"
        }
      ],
      "name": "_create_New_User",
      "outputs": [],
      "stateMutability": "nonpayable",
      "type": "function"
    },
    {
      "inputs": [
        {
          "internalType": "string",
          "name": "_name",
          "type": "string"
        },
        {
          "internalType": "string",
          "name": "_employeeid",
          "type": "string"
        },
        {
          "internalType": "string",
          "name": "_employeerank",
          "type": "string"
        },
        {
          "internalType": "string",
          "name": "_emplyeegroup",
          "type": "string"
        }
      ],
      "name": "_create_New_Employee",
      "outputs": [
        {
          "internalType": "bool",
          "name": "",
          "type": "bool"
        }
      ],
      "stateMutability": "nonpayable",
      "type": "function"
    },
    {
      "inputs": [
        {
          "internalType": "address",
          "name": "_sender",
          "type": "address"
        },
        {
          "internalType": "address",
          "name": "_reciver",
          "type": "address"
        },
        {
          "internalType": "uint32",
          "name": "_amount",
          "type": "uint32"
        }
      ],
      "name": "_Transaction_details",
      "outputs": [],
      "stateMutability": "nonpayable",
      "type": "function"
    },
    {
      "inputs": [
        {
          "internalType": "address",
          "name": "_owner",
          "type": "address"
        },
        {
          "internalType": "address",
          "name": "_contact_name",
          "type": "address"
        },
        {
          "internalType": "string",
          "name": "_name",
          "type": "string"
        }
      ],
      "name": "_create_New_Contact",
      "outputs": [],
      "stateMutability": "nonpayable",
      "type": "function"
    },
    {
      "inputs": [
        {
          "internalType": "address",
          "name": "_contact_name",
          "type": "address"
        },
        {
          "internalType": "string",
          "name": "_name",
          "type": "string"
        }
      ],
      "name": "_create_New_Contact",
      "outputs": [],
      "stateMutability": "nonpayable",
      "type": "function"
    },
    {
      "inputs": [
        {
          "internalType": "address",
          "name": "recipient",
          "type": "address"
        },
        {
          "internalType": "uint256",
          "name": "amount",
          "type": "uint256"
        }
      ],
      "name": "transfer",
      "outputs": [
        {
          "internalType": "bool",
          "name": "",
          "type": "bool"
        }
      ],
      "stateMutability": "nonpayable",
      "type": "function"
    },
    {
      "inputs": [
        {
          "internalType": "uint256",
          "name": "id",
          "type": "uint256"
        }
      ],
      "name": "user_view",
      "outputs": [
        {
          "internalType": "string",
          "name": "",
          "type": "string"
        },
        {
          "internalType": "address",
          "name": "",
          "type": "address"
        },
        {
          "internalType": "string",
          "name": "",
          "type": "string"
        }
      ],
      "stateMutability": "view",
      "type": "function",
      "constant": true
    },
    {
      "inputs": [],
      "name": "employees_view",
      "outputs": [
        {
          "components": [
            {
              "internalType": "string",
              "name": "name",
              "type": "string"
            },
            {
              "internalType": "string",
              "name": "employeeid",
              "type": "string"
            },
            {
              "internalType": "string",
              "name": "employeerank",
              "type": "string"
            },
            {
              "internalType": "string",
              "name": "employeegroup",
              "type": "string"
            }
          ],
          "internalType": "struct HAT_TOKEN.Employee[]",
          "name": "",
          "type": "tuple[]"
        }
      ],
      "stateMutability": "view",
      "type": "function",
      "constant": true
    }
  ],
  "bytecode": "0x60806040523480156200001157600080fd5b506040518060400160405280600c81526020017f48697461796120546f6b656e00000000000000000000000000000000000000008152506040518060400160405280600381526020017f484154000000000000000000000000000000000000000000000000000000000081525081600390805190602001906200009692919062000259565b508060049080519060200190620000af92919062000259565b505050620000d0336b033b2e3c9fd0803ce8000000620000d660201b60201c565b620004b5565b600073ffffffffffffffffffffffffffffffffffffffff168273ffffffffffffffffffffffffffffffffffffffff16141562000149576040517f08c379a0000000000000000000000000000000000000000000000000000000008152600401620001409062000341565b60405180910390fd5b6200015d600083836200024f60201b60201c565b806002600082825462000171919062000391565b92505081905550806000808473ffffffffffffffffffffffffffffffffffffffff1673ffffffffffffffffffffffffffffffffffffffff1681526020019081526020016000206000828254620001c8919062000391565b925050819055508173ffffffffffffffffffffffffffffffffffffffff16600073ffffffffffffffffffffffffffffffffffffffff167fddf252ad1be2c89b69c2b068fc378daa952ba7f163c4a11628f55a4df523b3ef836040516200022f919062000363565b60405180910390a36200024b600083836200025460201b60201c565b5050565b505050565b505050565b8280546200026790620003f8565b90600052602060002090601f0160209004810192826200028b5760008555620002d7565b82601f10620002a657805160ff1916838001178555620002d7565b82800160010185558215620002d7579182015b82811115620002d6578251825591602001919060010190620002b9565b5b509050620002e69190620002ea565b5090565b5b8082111562000305576000816000905550600101620002eb565b5090565b600062000318601f8362000380565b915062000325826200048c565b602082019050919050565b6200033b81620003ee565b82525050565b600060208201905081810360008301526200035c8162000309565b9050919050565b60006020820190506200037a600083018462000330565b92915050565b600082825260208201905092915050565b60006200039e82620003ee565b9150620003ab83620003ee565b9250827fffffffffffffffffffffffffffffffffffffffffffffffffffffffffffffffff03821115620003e357620003e26200042e565b5b828201905092915050565b6000819050919050565b600060028204905060018216806200041157607f821691505b602082108114156200042857620004276200045d565b5b50919050565b7f4e487b7100000000000000000000000000000000000000000000000000000000600052601160045260246000fd5b7f4e487b7100000000000000000000000000000000000000000000000000000000600052602260045260246000fd5b7f45524332303a206d696e7420746f20746865207a65726f206164647265737300600082015250565b613b1980620004c56000396000f3fe608060405234801561001057600080fd5b50600436106101cf5760003560e01c806340c10f1911610104578063a9059cbb116100a2578063d69f9a8211610071578063d69f9a821461057f578063da2e6c87146105b1578063dd62ed3e146105e3578063f851a44014610613576101cf565b8063a9059cbb146104f9578063acd3306d14610529578063cf224e8a14610547578063d3706bec14610563576101cf565b80635827d680116100de5780635827d6801461045f57806370a082311461047b57806395d89b41146104ab578063a457c2d7146104c9576101cf565b806340c10f191461040b57806342966c681461042757806345bd3a9514610443576101cf565b806318160ddd11610171578063313ce5671161014b578063313ce5671461035b57806334008b161461037957806339509351146103ab5780633a7d280c146103db576101cf565b806318160ddd146102db5780631e98fd1c146102f957806323b872dd1461032b576101cf565b80630eea2bb1116101ad5780630eea2bb11461023e57806310f3fcbe1461026e578063151c259f1461028c578063158686b5146102bf576101cf565b806303ae3cff146101d457806306fdde03146101f0578063095ea7b31461020e575b600080fd5b6101ee60048036038101906101e99190612929565b610631565b005b6101f8610755565b604051610205919061318d565b60405180910390f35b61022860048036038101906102239190612a9a565b6107e7565b6040516102359190613172565b60405180910390f35b61025860048036038101906102539190612bae565b610805565b6040516102659190613172565b60405180910390f35b61027661092f565b6040516102839190613150565b60405180910390f35b6102a660048036038101906102a19190612c85565b610bd6565b6040516102b694939291906131f4565b60405180910390f35b6102d960048036038101906102d491906128bc565b610e36565b005b6102e3610e7a565b6040516102f091906133b5565b60405180910390f35b610313600480360381019061030e9190612c85565b610e84565b604051610322939291906131af565b60405180910390f35b61034560048036038101906103409190612998565b610fee565b6040516103529190613172565b60405180910390f35b6103636110e6565b60405161037091906133d0565b60405180910390f35b610393600480360381019061038e9190612c85565b6110ef565b6040516103a293929190613119565b60405180910390f35b6103c560048036038101906103c09190612a9a565b611169565b6040516103d29190613172565b60405180910390f35b6103f560048036038101906103f09190612ada565b611215565b6040516104029190613172565b60405180910390f35b61042560048036038101906104209190612a9a565b611346565b005b610441600480360381019061043c9190612c85565b6113e4565b005b61045d60048036038101906104589190612a3e565b6113f1565b005b610479600480360381019061047491906128bc565b6115b2565b005b610495600480360381019061049091906128bc565b6115f6565b6040516104a291906133b5565b60405180910390f35b6104b361163e565b6040516104c0919061318d565b60405180910390f35b6104e360048036038101906104de9190612a9a565b6116d0565b6040516104f09190613172565b60405180910390f35b610513600480360381019061050e9190612a9a565b6117bb565b6040516105209190613172565b60405180910390f35b610531611a37565b60405161053e91906130c0565b60405180910390f35b610561600480360381019061055c9190612b23565b611a5d565b005b61057d600480360381019061057891906129eb565b611b41565b005b61059960048036038101906105949190612c85565b611c58565b6040516105a8939291906131af565b60405180910390f35b6105cb60048036038101906105c69190612c85565b611e26565b6040516105da939291906130db565b60405180910390f35b6105fd60048036038101906105f891906128e9565b611f28565b60405161060a91906133b5565b60405180910390f35b61061b611faf565b60405161062891906130c0565b60405180910390f35b600660405180606001604052808573ffffffffffffffffffffffffffffffffffffffff1681526020018473ffffffffffffffffffffffffffffffffffffffff16815260200183815250908060018154018082558091505060019003906000526020600020906003020160009091909190915060008201518160000160006101000a81548173ffffffffffffffffffffffffffffffffffffffff021916908373ffffffffffffffffffffffffffffffffffffffff16021790555060208201518160010160006101000a81548173ffffffffffffffffffffffffffffffffffffffff021916908373ffffffffffffffffffffffffffffffffffffffff160217905550604082015181600201908051906020019061074d92919061276a565b505050505050565b606060038054610764906135f8565b80601f0160208091040260200160405190810160405280929190818152602001828054610790906135f8565b80156107dd5780601f106107b2576101008083540402835291602001916107dd565b820191906000526020600020905b8154815290600101906020018083116107c057829003601f168201915b5050505050905090565b60006107fb6107f4611fd5565b8484611fdd565b6001905092915050565b60003373ffffffffffffffffffffffffffffffffffffffff16600a60009054906101000a900473ffffffffffffffffffffffffffffffffffffffff1673ffffffffffffffffffffffffffffffffffffffff161461086157600080fd5b6008604051806080016040528087815260200186815260200185815260200184815250908060018154018082558091505060019003906000526020600020906004020160009091909190915060008201518160000190805190602001906108c992919061276a565b5060208201518160010190805190602001906108e692919061276a565b50604082015181600201908051906020019061090392919061276a565b50606082015181600301908051906020019061092092919061276a565b50505060019050949350505050565b60606008805480602002602001604051908101604052809291908181526020016000905b82821015610bcd5783829060005260206000209060040201604051806080016040529081600082018054610986906135f8565b80601f01602080910402602001604051908101604052809291908181526020018280546109b2906135f8565b80156109ff5780601f106109d4576101008083540402835291602001916109ff565b820191906000526020600020905b8154815290600101906020018083116109e257829003601f168201915b50505050508152602001600182018054610a18906135f8565b80601f0160208091040260200160405190810160405280929190818152602001828054610a44906135f8565b8015610a915780601f10610a6657610100808354040283529160200191610a91565b820191906000526020600020905b815481529060010190602001808311610a7457829003601f168201915b50505050508152602001600282018054610aaa906135f8565b80601f0160208091040260200160405190810160405280929190818152602001828054610ad6906135f8565b8015610b235780601f10610af857610100808354040283529160200191610b23565b820191906000526020600020905b815481529060010190602001808311610b0657829003601f168201915b50505050508152602001600382018054610b3c906135f8565b80601f0160208091040260200160405190810160405280929190818152602001828054610b68906135f8565b8015610bb55780601f10610b8a57610100808354040283529160200191610bb5565b820191906000526020600020905b815481529060010190602001808311610b9857829003601f168201915b50505050508152505081526020019060010190610953565b50505050905090565b60088181548110610be657600080fd5b9060005260206000209060040201600091509050806000018054610c09906135f8565b80601f0160208091040260200160405190810160405280929190818152602001828054610c35906135f8565b8015610c825780601f10610c5757610100808354040283529160200191610c82565b820191906000526020600020905b815481529060010190602001808311610c6557829003601f168201915b505050505090806001018054610c97906135f8565b80601f0160208091040260200160405190810160405280929190818152602001828054610cc3906135f8565b8015610d105780601f10610ce557610100808354040283529160200191610d10565b820191906000526020600020905b815481529060010190602001808311610cf357829003601f168201915b505050505090806002018054610d25906135f8565b80601f0160208091040260200160405190810160405280929190818152602001828054610d51906135f8565b8015610d9e5780601f10610d7357610100808354040283529160200191610d9e565b820191906000526020600020905b815481529060010190602001808311610d8157829003601f168201915b505050505090806003018054610db3906135f8565b80601f0160208091040260200160405190810160405280929190818152602001828054610ddf906135f8565b8015610e2c5780601f10610e0157610100808354040283529160200191610e2c565b820191906000526020600020905b815481529060010190602001808311610e0f57829003601f168201915b5050505050905084565b80600960006101000a81548173ffffffffffffffffffffffffffffffffffffffff021916908373ffffffffffffffffffffffffffffffffffffffff16021790555050565b6000600254905090565b60058181548110610e9457600080fd5b9060005260206000209060030201600091509050806000018054610eb7906135f8565b80601f0160208091040260200160405190810160405280929190818152602001828054610ee3906135f8565b8015610f305780601f10610f0557610100808354040283529160200191610f30565b820191906000526020600020905b815481529060010190602001808311610f1357829003601f168201915b5050505050908060010160009054906101000a900473ffffffffffffffffffffffffffffffffffffffff1690806002018054610f6b906135f8565b80601f0160208091040260200160405190810160405280929190818152602001828054610f97906135f8565b8015610fe45780601f10610fb957610100808354040283529160200191610fe4565b820191906000526020600020905b815481529060010190602001808311610fc757829003601f168201915b5050505050905083565b6000610ffb8484846121a8565b6000600160008673ffffffffffffffffffffffffffffffffffffffff1673ffffffffffffffffffffffffffffffffffffffff1681526020019081526020016000206000611046611fd5565b73ffffffffffffffffffffffffffffffffffffffff1673ffffffffffffffffffffffffffffffffffffffff168152602001908152602001600020549050828110156110c6576040517f08c379a00000000000000000000000000000000000000000000000000000000081526004016110bd906132f5565b60405180910390fd5b6110da856110d2611fd5565b858403611fdd565b60019150509392505050565b60006012905090565b600781815481106110ff57600080fd5b90600052602060002090600302016000915090508060000160009054906101000a900473ffffffffffffffffffffffffffffffffffffffff16908060010160009054906101000a900473ffffffffffffffffffffffffffffffffffffffff16908060020154905083565b600061120b611176611fd5565b848460016000611184611fd5565b73ffffffffffffffffffffffffffffffffffffffff1673ffffffffffffffffffffffffffffffffffffffff16815260200190815260200160002060008873ffffffffffffffffffffffffffffffffffffffff1673ffffffffffffffffffffffffffffffffffffffff1681526020019081526020016000205461120691906134c7565b611fdd565b6001905092915050565b600080600090505b60058054905081101561133b573373ffffffffffffffffffffffffffffffffffffffff166005828154811061125557611254613702565b5b906000526020600020906003020160010160009054906101000a900473ffffffffffffffffffffffffffffffffffffffff1673ffffffffffffffffffffffffffffffffffffffff161480156113195750826040516020016112b69190613092565b60405160208183030381529060405280519060200120600582815481106112e0576112df613702565b5b906000526020600020906003020160020160405160200161130191906130a9565b60405160208183030381529060405280519060200120145b15611328576001915050611341565b80806113339061365b565b91505061121d565b50600090505b919050565b600960009054906101000a900473ffffffffffffffffffffffffffffffffffffffff1673ffffffffffffffffffffffffffffffffffffffff163373ffffffffffffffffffffffffffffffffffffffff16146113d6576040517f08c379a00000000000000000000000000000000000000000000000000000000081526004016113cd906132d5565b60405180910390fd5b6113e08282612429565b5050565b6113ee3382612589565b50565b60005b6005805490508110156115ad573373ffffffffffffffffffffffffffffffffffffffff166005828154811061142c5761142b613702565b5b906000526020600020906003020160010160009054906101000a900473ffffffffffffffffffffffffffffffffffffffff1673ffffffffffffffffffffffffffffffffffffffff16141561159a57600660405180606001604052803373ffffffffffffffffffffffffffffffffffffffff1681526020018573ffffffffffffffffffffffffffffffffffffffff16815260200184815250908060018154018082558091505060019003906000526020600020906003020160009091909190915060008201518160000160006101000a81548173ffffffffffffffffffffffffffffffffffffffff021916908373ffffffffffffffffffffffffffffffffffffffff16021790555060208201518160010160006101000a81548173ffffffffffffffffffffffffffffffffffffffff021916908373ffffffffffffffffffffffffffffffffffffffff160217905550604082015181600201908051906020019061159692919061276a565b5050505b80806115a59061365b565b9150506113f4565b505050565b80600a60006101000a81548173ffffffffffffffffffffffffffffffffffffffff021916908373ffffffffffffffffffffffffffffffffffffffff16021790555050565b60008060008373ffffffffffffffffffffffffffffffffffffffff1673ffffffffffffffffffffffffffffffffffffffff168152602001908152602001600020549050919050565b60606004805461164d906135f8565b80601f0160208091040260200160405190810160405280929190818152602001828054611679906135f8565b80156116c65780601f1061169b576101008083540402835291602001916116c6565b820191906000526020600020905b8154815290600101906020018083116116a957829003601f168201915b5050505050905090565b600080600160006116df611fd5565b73ffffffffffffffffffffffffffffffffffffffff1673ffffffffffffffffffffffffffffffffffffffff16815260200190815260200160002060008573ffffffffffffffffffffffffffffffffffffffff1673ffffffffffffffffffffffffffffffffffffffff1681526020019081526020016000205490508281101561179c576040517f08c379a000000000000000000000000000000000000000000000000000000000815260040161179390613375565b60405180910390fd5b6117b06117a7611fd5565b85858403611fdd565b600191505092915050565b6000806000905060005b600580549050811015611a2a573373ffffffffffffffffffffffffffffffffffffffff16600582815481106117fd576117fc613702565b5b906000526020600020906003020160010160009054906101000a900473ffffffffffffffffffffffffffffffffffffffff1673ffffffffffffffffffffffffffffffffffffffff161415611a175760005b600580549050821015611a15578573ffffffffffffffffffffffffffffffffffffffff166005828154811061188657611885613702565b5b906000526020600020906003020160010160009054906101000a900473ffffffffffffffffffffffffffffffffffffffff1673ffffffffffffffffffffffffffffffffffffffff161415611a0257600192506118ea6118e3611fd5565b87876121a8565b600760405180606001604052803373ffffffffffffffffffffffffffffffffffffffff1681526020018873ffffffffffffffffffffffffffffffffffffffff16815260200187815250908060018154018082558091505060019003906000526020600020906003020160009091909190915060008201518160000160006101000a81548173ffffffffffffffffffffffffffffffffffffffff021916908373ffffffffffffffffffffffffffffffffffffffff16021790555060208201518160010160006101000a81548173ffffffffffffffffffffffffffffffffffffffff021916908373ffffffffffffffffffffffffffffffffffffffff16021790555060408201518160020155505060019350505050611a31565b8180611a0d9061365b565b92505061184e565b505b8080611a229061365b565b9150506117c5565b5060009150505b92915050565b600a60009054906101000a900473ffffffffffffffffffffffffffffffffffffffff1681565b600560405180606001604052808581526020018473ffffffffffffffffffffffffffffffffffffffff1681526020018381525090806001815401808255809150506001900390600052602060002090600302016000909190919091506000820151816000019080519060200190611ad592919061276a565b5060208201518160010160006101000a81548173ffffffffffffffffffffffffffffffffffffffff021916908373ffffffffffffffffffffffffffffffffffffffff1602179055506040820151816002019080519060200190611b3992919061276a565b505050505050565b600760405180606001604052808573ffffffffffffffffffffffffffffffffffffffff1681526020018473ffffffffffffffffffffffffffffffffffffffff1681526020018363ffffffff16815250908060018154018082558091505060019003906000526020600020906003020160009091909190915060008201518160000160006101000a81548173ffffffffffffffffffffffffffffffffffffffff021916908373ffffffffffffffffffffffffffffffffffffffff16021790555060208201518160010160006101000a81548173ffffffffffffffffffffffffffffffffffffffff021916908373ffffffffffffffffffffffffffffffffffffffff160217905550604082015181600201555050505050565b606060006060600060058581548110611c7457611c73613702565b5b9060005260206000209060030201604051806060016040529081600082018054611c9d906135f8565b80601f0160208091040260200160405190810160405280929190818152602001828054611cc9906135f8565b8015611d165780601f10611ceb57610100808354040283529160200191611d16565b820191906000526020600020905b815481529060010190602001808311611cf957829003601f168201915b505050505081526020016001820160009054906101000a900473ffffffffffffffffffffffffffffffffffffffff1673ffffffffffffffffffffffffffffffffffffffff1673ffffffffffffffffffffffffffffffffffffffff168152602001600282018054611d85906135f8565b80601f0160208091040260200160405190810160405280929190818152602001828054611db1906135f8565b8015611dfe5780601f10611dd357610100808354040283529160200191611dfe565b820191906000526020600020905b815481529060010190602001808311611de157829003601f168201915b5050505050815250509050806000015181602001518260400151935093509350509193909250565b60068181548110611e3657600080fd5b90600052602060002090600302016000915090508060000160009054906101000a900473ffffffffffffffffffffffffffffffffffffffff16908060010160009054906101000a900473ffffffffffffffffffffffffffffffffffffffff1690806002018054611ea5906135f8565b80601f0160208091040260200160405190810160405280929190818152602001828054611ed1906135f8565b8015611f1e5780601f10611ef357610100808354040283529160200191611f1e565b820191906000526020600020905b815481529060010190602001808311611f0157829003601f168201915b5050505050905083565b6000600160008473ffffffffffffffffffffffffffffffffffffffff1673ffffffffffffffffffffffffffffffffffffffff16815260200190815260200160002060008373ffffffffffffffffffffffffffffffffffffffff1673ffffffffffffffffffffffffffffffffffffffff16815260200190815260200160002054905092915050565b600960009054906101000a900473ffffffffffffffffffffffffffffffffffffffff1681565b600033905090565b600073ffffffffffffffffffffffffffffffffffffffff168373ffffffffffffffffffffffffffffffffffffffff16141561204d576040517f08c379a000000000000000000000000000000000000000000000000000000000815260040161204490613355565b60405180910390fd5b600073ffffffffffffffffffffffffffffffffffffffff168273ffffffffffffffffffffffffffffffffffffffff1614156120bd576040517f08c379a00000000000000000000000000000000000000000000000000000000081526004016120b490613295565b60405180910390fd5b80600160008573ffffffffffffffffffffffffffffffffffffffff1673ffffffffffffffffffffffffffffffffffffffff16815260200190815260200160002060008473ffffffffffffffffffffffffffffffffffffffff1673ffffffffffffffffffffffffffffffffffffffff168152602001908152602001600020819055508173ffffffffffffffffffffffffffffffffffffffff168373ffffffffffffffffffffffffffffffffffffffff167f8c5be1e5ebec7d5bd14f71427d1e84f3dd0314c0f7b2291e5b200ac8c7c3b9258360405161219b91906133b5565b60405180910390a3505050565b600073ffffffffffffffffffffffffffffffffffffffff168373ffffffffffffffffffffffffffffffffffffffff161415612218576040517f08c379a000000000000000000000000000000000000000000000000000000000815260040161220f90613335565b60405180910390fd5b600073ffffffffffffffffffffffffffffffffffffffff168273ffffffffffffffffffffffffffffffffffffffff161415612288576040517f08c379a000000000000000000000000000000000000000000000000000000000815260040161227f90613255565b60405180910390fd5b612293838383612760565b60008060008573ffffffffffffffffffffffffffffffffffffffff1673ffffffffffffffffffffffffffffffffffffffff16815260200190815260200160002054905081811015612319576040517f08c379a0000000000000000000000000000000000000000000000000000000008152600401612310906132b5565b60405180910390fd5b8181036000808673ffffffffffffffffffffffffffffffffffffffff1673ffffffffffffffffffffffffffffffffffffffff16815260200190815260200160002081905550816000808573ffffffffffffffffffffffffffffffffffffffff1673ffffffffffffffffffffffffffffffffffffffff16815260200190815260200160002060008282546123ac91906134c7565b925050819055508273ffffffffffffffffffffffffffffffffffffffff168473ffffffffffffffffffffffffffffffffffffffff167fddf252ad1be2c89b69c2b068fc378daa952ba7f163c4a11628f55a4df523b3ef8460405161241091906133b5565b60405180910390a3612423848484612765565b50505050565b600073ffffffffffffffffffffffffffffffffffffffff168273ffffffffffffffffffffffffffffffffffffffff161415612499576040517f08c379a000000000000000000000000000000000000000000000000000000000815260040161249090613395565b60405180910390fd5b6124a560008383612760565b80600260008282546124b791906134c7565b92505081905550806000808473ffffffffffffffffffffffffffffffffffffffff1673ffffffffffffffffffffffffffffffffffffffff168152602001908152602001600020600082825461250c91906134c7565b925050819055508173ffffffffffffffffffffffffffffffffffffffff16600073ffffffffffffffffffffffffffffffffffffffff167fddf252ad1be2c89b69c2b068fc378daa952ba7f163c4a11628f55a4df523b3ef8360405161257191906133b5565b60405180910390a361258560008383612765565b5050565b600073ffffffffffffffffffffffffffffffffffffffff168273ffffffffffffffffffffffffffffffffffffffff1614156125f9576040517f08c379a00000000000000000000000000000000000000000000000000000000081526004016125f090613315565b60405180910390fd5b61260582600083612760565b60008060008473ffffffffffffffffffffffffffffffffffffffff1673ffffffffffffffffffffffffffffffffffffffff1681526020019081526020016000205490508181101561268b576040517f08c379a000000000000000000000000000000000000000000000000000000000815260040161268290613275565b60405180910390fd5b8181036000808573ffffffffffffffffffffffffffffffffffffffff1673ffffffffffffffffffffffffffffffffffffffff1681526020019081526020016000208190555081600260008282546126e2919061351d565b92505081905550600073ffffffffffffffffffffffffffffffffffffffff168373ffffffffffffffffffffffffffffffffffffffff167fddf252ad1be2c89b69c2b068fc378daa952ba7f163c4a11628f55a4df523b3ef8460405161274791906133b5565b60405180910390a361275b83600084612765565b505050565b505050565b505050565b828054612776906135f8565b90600052602060002090601f01602090048101928261279857600085556127df565b82601f106127b157805160ff19168380011785556127df565b828001600101855582156127df579182015b828111156127de5782518255916020019190600101906127c3565b5b5090506127ec91906127f0565b5090565b5b808211156128095760008160009055506001016127f1565b5090565b600061282061281b84613410565b6133eb565b90508281526020810184848401111561283c5761283b613765565b5b6128478482856135b6565b509392505050565b60008135905061285e81613a9e565b92915050565b600082601f83011261287957612878613760565b5b813561288984826020860161280d565b91505092915050565b6000813590506128a181613ab5565b92915050565b6000813590506128b681613acc565b92915050565b6000602082840312156128d2576128d161376f565b5b60006128e08482850161284f565b91505092915050565b60008060408385031215612900576128ff61376f565b5b600061290e8582860161284f565b925050602061291f8582860161284f565b9150509250929050565b6000806000606084860312156129425761294161376f565b5b60006129508682870161284f565b93505060206129618682870161284f565b925050604084013567ffffffffffffffff8111156129825761298161376a565b5b61298e86828701612864565b9150509250925092565b6000806000606084860312156129b1576129b061376f565b5b60006129bf8682870161284f565b93505060206129d08682870161284f565b92505060406129e186828701612892565b9150509250925092565b600080600060608486031215612a0457612a0361376f565b5b6000612a128682870161284f565b9350506020612a238682870161284f565b9250506040612a34868287016128a7565b9150509250925092565b60008060408385031215612a5557612a5461376f565b5b6000612a638582860161284f565b925050602083013567ffffffffffffffff811115612a8457612a8361376a565b5b612a9085828601612864565b9150509250929050565b60008060408385031215612ab157612ab061376f565b5b6000612abf8582860161284f565b9250506020612ad085828601612892565b9150509250929050565b600060208284031215612af057612aef61376f565b5b600082013567ffffffffffffffff811115612b0e57612b0d61376a565b5b612b1a84828501612864565b91505092915050565b600080600060608486031215612b3c57612b3b61376f565b5b600084013567ffffffffffffffff811115612b5a57612b5961376a565b5b612b6686828701612864565b9350506020612b778682870161284f565b925050604084013567ffffffffffffffff811115612b9857612b9761376a565b5b612ba486828701612864565b9150509250925092565b60008060008060808587031215612bc857612bc761376f565b5b600085013567ffffffffffffffff811115612be657612be561376a565b5b612bf287828801612864565b945050602085013567ffffffffffffffff811115612c1357612c1261376a565b5b612c1f87828801612864565b935050604085013567ffffffffffffffff811115612c4057612c3f61376a565b5b612c4c87828801612864565b925050606085013567ffffffffffffffff811115612c6d57612c6c61376a565b5b612c7987828801612864565b91505092959194509250565b600060208284031215612c9b57612c9a61376f565b5b6000612ca984828501612892565b91505092915050565b6000612cbe8383612ffc565b905092915050565b612ccf81613551565b82525050565b6000612ce082613466565b612cea8185613489565b935083602082028501612cfc85613441565b8060005b85811015612d385784840389528151612d198582612cb2565b9450612d248361347c565b925060208a01995050600181019050612d00565b50829750879550505050505092915050565b612d5381613563565b82525050565b6000612d6482613471565b612d6e818561349a565b9350612d7e8185602086016135c5565b612d8781613774565b840191505092915050565b6000612d9d82613471565b612da781856134ab565b9350612db78185602086016135c5565b612dc081613774565b840191505092915050565b6000612dd682613471565b612de081856134bc565b9350612df08185602086016135c5565b80840191505092915050565b60008154612e09816135f8565b612e1381866134bc565b94506001821660008114612e2e5760018114612e3f57612e72565b60ff19831686528186019350612e72565b612e4885613451565b60005b83811015612e6a57815481890152600182019150602081019050612e4b565b838801955050505b50505092915050565b6000612e886023836134ab565b9150612e9382613785565b604082019050919050565b6000612eab6022836134ab565b9150612eb6826137d4565b604082019050919050565b6000612ece6022836134ab565b9150612ed982613823565b604082019050919050565b6000612ef16026836134ab565b9150612efc82613872565b604082019050919050565b6000612f14600a836134ab565b9150612f1f826138c1565b602082019050919050565b6000612f376028836134ab565b9150612f42826138ea565b604082019050919050565b6000612f5a6021836134ab565b9150612f6582613939565b604082019050919050565b6000612f7d6025836134ab565b9150612f8882613988565b604082019050919050565b6000612fa06024836134ab565b9150612fab826139d7565b604082019050919050565b6000612fc36025836134ab565b9150612fce82613a26565b604082019050919050565b6000612fe6601f836134ab565b9150612ff182613a75565b602082019050919050565b600060808301600083015184820360008601526130198282612d59565b915050602083015184820360208601526130338282612d59565b9150506040830151848203604086015261304d8282612d59565b915050606083015184820360608601526130678282612d59565b9150508091505092915050565b61307d8161358f565b82525050565b61308c816135a9565b82525050565b600061309e8284612dcb565b915081905092915050565b60006130b58284612dfc565b915081905092915050565b60006020820190506130d56000830184612cc6565b92915050565b60006060820190506130f06000830186612cc6565b6130fd6020830185612cc6565b818103604083015261310f8184612d92565b9050949350505050565b600060608201905061312e6000830186612cc6565b61313b6020830185612cc6565b6131486040830184613074565b949350505050565b6000602082019050818103600083015261316a8184612cd5565b905092915050565b60006020820190506131876000830184612d4a565b92915050565b600060208201905081810360008301526131a78184612d92565b905092915050565b600060608201905081810360008301526131c98186612d92565b90506131d86020830185612cc6565b81810360408301526131ea8184612d92565b9050949350505050565b6000608082019050818103600083015261320e8187612d92565b905081810360208301526132228186612d92565b905081810360408301526132368185612d92565b9050818103606083015261324a8184612d92565b905095945050505050565b6000602082019050818103600083015261326e81612e7b565b9050919050565b6000602082019050818103600083015261328e81612e9e565b9050919050565b600060208201905081810360008301526132ae81612ec1565b9050919050565b600060208201905081810360008301526132ce81612ee4565b9050919050565b600060208201905081810360008301526132ee81612f07565b9050919050565b6000602082019050818103600083015261330e81612f2a565b9050919050565b6000602082019050818103600083015261332e81612f4d565b9050919050565b6000602082019050818103600083015261334e81612f70565b9050919050565b6000602082019050818103600083015261336e81612f93565b9050919050565b6000602082019050818103600083015261338e81612fb6565b9050919050565b600060208201905081810360008301526133ae81612fd9565b9050919050565b60006020820190506133ca6000830184613074565b92915050565b60006020820190506133e56000830184613083565b92915050565b60006133f5613406565b9050613401828261362a565b919050565b6000604051905090565b600067ffffffffffffffff82111561342b5761342a613731565b5b61343482613774565b9050602081019050919050565b6000819050602082019050919050565b60008190508160005260206000209050919050565b600081519050919050565b600081519050919050565b6000602082019050919050565b600082825260208201905092915050565b600082825260208201905092915050565b600082825260208201905092915050565b600081905092915050565b60006134d28261358f565b91506134dd8361358f565b9250827fffffffffffffffffffffffffffffffffffffffffffffffffffffffffffffffff03821115613512576135116136a4565b5b828201905092915050565b60006135288261358f565b91506135338361358f565b925082821015613546576135456136a4565b5b828203905092915050565b600061355c8261356f565b9050919050565b60008115159050919050565b600073ffffffffffffffffffffffffffffffffffffffff82169050919050565b6000819050919050565b600063ffffffff82169050919050565b600060ff82169050919050565b82818337600083830152505050565b60005b838110156135e35780820151818401526020810190506135c8565b838111156135f2576000848401525b50505050565b6000600282049050600182168061361057607f821691505b60208210811415613624576136236136d3565b5b50919050565b61363382613774565b810181811067ffffffffffffffff8211171561365257613651613731565b5b80604052505050565b60006136668261358f565b91507fffffffffffffffffffffffffffffffffffffffffffffffffffffffffffffffff821415613699576136986136a4565b5b600182019050919050565b7f4e487b7100000000000000000000000000000000000000000000000000000000600052601160045260246000fd5b7f4e487b7100000000000000000000000000000000000000000000000000000000600052602260045260246000fd5b7f4e487b7100000000000000000000000000000000000000000000000000000000600052603260045260246000fd5b7f4e487b7100000000000000000000000000000000000000000000000000000000600052604160045260246000fd5b600080fd5b600080fd5b600080fd5b600080fd5b6000601f19601f8301169050919050565b7f45524332303a207472616e7366657220746f20746865207a65726f206164647260008201527f6573730000000000000000000000000000000000000000000000000000000000602082015250565b7f45524332303a206275726e20616d6f756e7420657863656564732062616c616e60008201527f6365000000000000000000000000000000000000000000000000000000000000602082015250565b7f45524332303a20617070726f766520746f20746865207a65726f20616464726560008201527f7373000000000000000000000000000000000000000000000000000000000000602082015250565b7f45524332303a207472616e7366657220616d6f756e742065786365656473206260008201527f616c616e63650000000000000000000000000000000000000000000000000000602082015250565b7f6f6e6c792061646d696e00000000000000000000000000000000000000000000600082015250565b7f45524332303a207472616e7366657220616d6f756e742065786365656473206160008201527f6c6c6f77616e6365000000000000000000000000000000000000000000000000602082015250565b7f45524332303a206275726e2066726f6d20746865207a65726f2061646472657360008201527f7300000000000000000000000000000000000000000000000000000000000000602082015250565b7f45524332303a207472616e736665722066726f6d20746865207a65726f20616460008201527f6472657373000000000000000000000000000000000000000000000000000000602082015250565b7f45524332303a20617070726f76652066726f6d20746865207a65726f2061646460008201527f7265737300000000000000000000000000000000000000000000000000000000602082015250565b7f45524332303a2064656372656173656420616c6c6f77616e63652062656c6f7760008201527f207a65726f000000000000000000000000000000000000000000000000000000602082015250565b7f45524332303a206d696e7420746f20746865207a65726f206164647265737300600082015250565b613aa781613551565b8114613ab257600080fd5b50565b613abe8161358f565b8114613ac957600080fd5b50565b613ad581613599565b8114613ae057600080fd5b5056fea2646970667358221220a19cf2895823595da5b64284786ac88a616d78149b89046da6f5dffff652129164736f6c63430008050033",
  "immutableReferences": {},
  "source": "// SPDX-License-Identifier: MIT\r\n\r\npragma solidity ^0.8.5;\r\n\r\n\r\nimport \"@openzeppelin/contracts/token/ERC20/ERC20.sol\";\r\n\r\n\r\ncontract HAT_TOKEN is ERC20 {\r\n    \r\n    \r\n    struct Employee{\r\n        string name;\r\n        string employeeid;\r\n        string employeerank;\r\n        string employeegroup;\r\n    }\r\n    \r\n    \r\n    struct User{\r\n        string name;\r\n        address user_crypto_id;\r\n        string password;\r\n    }\r\n    \r\n    \r\n    struct Transaction{\r\n        address sender;\r\n        address reciver;\r\n        uint256 amount;\r\n    }\r\n    \r\n    \r\n    struct Contact{\r\n        address owner;\r\n        address contact_name;\r\n        string name;\r\n    }\r\n\r\n    //event NewUser( string name, address user_crypto_id, string password);\r\n    \r\n    User[] public Users;\r\n    Contact[] public Contacts;\r\n    Transaction[] public Transactions;\r\n    Employee[] public Employees;\r\n\r\n    \r\n    address public admin;\r\n    address public employeeadmin;\r\n    \r\n    constructor() ERC20('Hitaya Token', 'HAT'){\r\n        _mint(msg.sender, 1000000000 * 10 ** 18);\r\n    }\r\n    \r\n    \r\n    function mint(address to, uint amount) external {\r\n        require(msg.sender==admin, 'only admin');\r\n        _mint(to, amount);\r\n    }\r\n    \r\n    \r\n    function burn(uint amounnt) external {\r\n        _burn(msg.sender, amounnt);\r\n    }\r\n    \r\n    \r\n    function change_admin(address _address) public{\r\n        admin=_address;\r\n    }\r\n    \r\n    \r\n    function change_employeeadmin(address _address) public{\r\n        employeeadmin=_address;\r\n    }\r\n    \r\n    \r\n    function login(string memory _password) public view returns (bool){\r\n        for (uint i=0;i<Users.length;i++){\r\n            if (Users[i].user_crypto_id==msg.sender && keccak256(abi.encodePacked(Users[i].password))==keccak256(abi.encodePacked(_password))){\r\n                return true;\r\n            }\r\n        }\r\n        return false;\r\n    }\r\n\r\n    \r\n    function _create_New_User(string memory _name, address _user_crypto_id, string memory _password) public {\r\n        Users.push(User( _name, _user_crypto_id, _password));\r\n\t//emit NewUser(_name, _user_crypto_id, _password);\r\n       \r\n    }\r\n    \r\n    \r\n    function _create_New_Employee(string memory _name, string memory _employeeid, string memory _employeerank, string memory _emplyeegroup) public returns(bool){\r\n        require(employeeadmin==msg.sender);\r\n        Employees.push(Employee( _name, _employeeid, _employeerank, _emplyeegroup));\r\n        return true;\r\n    }\r\n    \r\n    \r\n    function _create_New_Contact(address _owner, address _contact_name, string memory _name) public {\r\n        Contacts.push(Contact( _owner, _contact_name, _name));\r\n    }\r\n    \r\n    \r\n    function _Transaction_details(address _sender, address _reciver, uint32 _amount) public {\r\n        Transactions.push(Transaction( _sender, _reciver, _amount));\r\n    }\r\n    \r\n    \r\n    function _create_New_Contact(address _contact_name, string memory _name) public {\r\n        for (uint i=0;i<Users.length;i++){\r\n            if(Users[i].user_crypto_id==msg.sender){\r\n                Contacts.push(Contact( msg.sender, _contact_name, _name));\r\n            }\r\n        }\r\n    }\r\n    \r\n    \r\n    function transfer(address recipient, uint256 amount) public virtual override returns (bool) {\r\n        bool key = false;\r\n        for (uint i=0;i<Users.length;i++){\r\n            if(Users[i].user_crypto_id==msg.sender){\r\n                for (uint j=0;i<Users.length;i++){\r\n                    if(Users[j].user_crypto_id==recipient){\r\n                        key = true;\r\n                        _transfer(_msgSender(), recipient, amount);\r\n                        Transactions.push(Transaction( msg.sender, recipient, amount));\r\n                        return true;\r\n                    }\r\n                }\r\n            }\r\n        }\r\n        return false;\r\n    }\r\n    \r\n    \r\n    function user_view(uint id) public view returns (string memory ,address , string memory)\r\n    {\r\n        User memory p = Users[id];\r\n        return (p.name,p.user_crypto_id,p.password); // return multiple values like this\r\n    }\r\n    \r\n    \r\n    function employees_view() public view returns (Employee[] memory)\r\n    {\r\n\r\n        return (Employees); // return multiple values like this\r\n    }\r\n    \r\n    \r\n    // function get_transaction_details() public view returns (Transactions[] memory){\r\n    //     Transactions[] memory Transactions_Detail= new Transactions[](Transactions.length);\r\n    //     uint count=0;\r\n    //     for (uint i=0;i<Transactions.length;i++){\r\n    //         if (Transactions[i].sender==msg.sender){\r\n    //             Transactions_Detail[count].push([Transactions[i].sender,Transaction[i].recipient,Transactions[i].amount]);\r\n    //             count++;\r\n    //         }\r\n    //     }\r\n    //     return Transactions_Detail;\r\n    // }\r\n    \r\n}\r\n",
  "sourcePath": "C:\\Users\\ZEUS\\Desktop\\Hitaya\\truffle\\contracts\\HAT_TOKEN.sol",
  "compiler": {
    "name": "solc",
    "version": "0.8.5+commit.a4f2e591.Emscripten.clang"
  },
  "schemaVersion": "3.4.3",
  "updatedAt": "2021-08-28T11:32:11.914Z",
  "networkType": "ethereum",
  "devdoc": {
    "kind": "dev",
    "methods": {
      "allowance(address,address)": {
        "details": "See {IERC20-allowance}."
      },
      "approve(address,uint256)": {
        "details": "See {IERC20-approve}. Requirements: - `spender` cannot be the zero address."
      },
      "balanceOf(address)": {
        "details": "See {IERC20-balanceOf}."
      },
      "decimals()": {
        "details": "Returns the number of decimals used to get its user representation. For example, if `decimals` equals `2`, a balance of `505` tokens should be displayed to a user as `5.05` (`505 / 10 ** 2`). Tokens usually opt for a value of 18, imitating the relationship between Ether and Wei. This is the value {ERC20} uses, unless this function is overridden; NOTE: This information is only used for _display_ purposes: it in no way affects any of the arithmetic of the contract, including {IERC20-balanceOf} and {IERC20-transfer}."
      },
      "decreaseAllowance(address,uint256)": {
        "details": "Atomically decreases the allowance granted to `spender` by the caller. This is an alternative to {approve} that can be used as a mitigation for problems described in {IERC20-approve}. Emits an {Approval} event indicating the updated allowance. Requirements: - `spender` cannot be the zero address. - `spender` must have allowance for the caller of at least `subtractedValue`."
      },
      "increaseAllowance(address,uint256)": {
        "details": "Atomically increases the allowance granted to `spender` by the caller. This is an alternative to {approve} that can be used as a mitigation for problems described in {IERC20-approve}. Emits an {Approval} event indicating the updated allowance. Requirements: - `spender` cannot be the zero address."
      },
      "name()": {
        "details": "Returns the name of the token."
      },
      "symbol()": {
        "details": "Returns the symbol of the token, usually a shorter version of the name."
      },
      "totalSupply()": {
        "details": "See {IERC20-totalSupply}."
      },
      "transfer(address,uint256)": {
        "details": "See {IERC20-transfer}. Requirements: - `recipient` cannot be the zero address. - the caller must have a balance of at least `amount`."
      },
      "transferFrom(address,address,uint256)": {
        "details": "See {IERC20-transferFrom}. Emits an {Approval} event indicating the updated allowance. This is not required by the EIP. See the note at the beginning of {ERC20}. Requirements: - `sender` and `recipient` cannot be the zero address. - `sender` must have a balance of at least `amount`. - the caller must have allowance for ``sender``'s tokens of at least `amount`."
      }
    },
    "version": 1
  },
  "userdoc": {
    "kind": "user",
    "methods": {},
    "version": 1
  }
}