{
  "contractName": "HAT_TOKEN",
  "abi": [
    {
      "inputs": [],
      "stateMutability": "nonpayable",
      "type": "constructor"
    },
    {
      "anonymous": false,
      "inputs": [
        {
          "indexed": true,
          "internalType": "address",
          "name": "owner",
          "type": "address"
        },
        {
          "indexed": true,
          "internalType": "address",
          "name": "spender",
          "type": "address"
        },
        {
          "indexed": false,
          "internalType": "uint256",
          "name": "value",
          "type": "uint256"
        }
      ],
      "name": "Approval",
      "type": "event"
    },
    {
      "anonymous": false,
      "inputs": [
        {
          "indexed": true,
          "internalType": "address",
          "name": "from",
          "type": "address"
        },
        {
          "indexed": true,
          "internalType": "address",
          "name": "to",
          "type": "address"
        },
        {
          "indexed": false,
          "internalType": "uint256",
          "name": "value",
          "type": "uint256"
        }
      ],
      "name": "Transfer",
      "type": "event"
    },
    {
      "inputs": [
        {
          "internalType": "uint256",
          "name": "",
          "type": "uint256"
        }
      ],
      "name": "Contacts",
      "outputs": [
        {
          "internalType": "address",
          "name": "owner",
          "type": "address"
        },
        {
          "internalType": "address",
          "name": "contact_name",
          "type": "address"
        },
        {
          "internalType": "string",
          "name": "name",
          "type": "string"
        },
        {
          "internalType": "string",
          "name": "contact_type",
          "type": "string"
        }
      ],
      "stateMutability": "view",
      "type": "function",
      "constant": true
    },
    {
      "inputs": [
        {
          "internalType": "uint256",
          "name": "",
          "type": "uint256"
        }
      ],
      "name": "Employees",
      "outputs": [
        {
          "internalType": "string",
          "name": "name",
          "type": "string"
        },
        {
          "internalType": "string",
          "name": "employeeid",
          "type": "string"
        },
        {
          "internalType": "string",
          "name": "employeerank",
          "type": "string"
        },
        {
          "internalType": "string",
          "name": "employeegroup",
          "type": "string"
        }
      ],
      "stateMutability": "view",
      "type": "function",
      "constant": true
    },
    {
      "inputs": [
        {
          "internalType": "uint256",
          "name": "",
          "type": "uint256"
        }
      ],
      "name": "Transactions",
      "outputs": [
        {
          "internalType": "address",
          "name": "sender",
          "type": "address"
        },
        {
          "internalType": "address",
          "name": "reciver",
          "type": "address"
        },
        {
          "internalType": "uint256",
          "name": "amount",
          "type": "uint256"
        }
      ],
      "stateMutability": "view",
      "type": "function",
      "constant": true
    },
    {
      "inputs": [
        {
          "internalType": "uint256",
          "name": "",
          "type": "uint256"
        }
      ],
      "name": "Users",
      "outputs": [
        {
          "internalType": "string",
          "name": "name",
          "type": "string"
        },
        {
          "internalType": "address",
          "name": "user_crypto_id",
          "type": "address"
        },
        {
          "internalType": "string",
          "name": "password",
          "type": "string"
        }
      ],
      "stateMutability": "view",
      "type": "function",
      "constant": true
    },
    {
      "inputs": [],
      "name": "admin",
      "outputs": [
        {
          "internalType": "address",
          "name": "",
          "type": "address"
        }
      ],
      "stateMutability": "view",
      "type": "function",
      "constant": true
    },
    {
      "inputs": [
        {
          "internalType": "address",
          "name": "owner",
          "type": "address"
        },
        {
          "internalType": "address",
          "name": "spender",
          "type": "address"
        }
      ],
      "name": "allowance",
      "outputs": [
        {
          "internalType": "uint256",
          "name": "",
          "type": "uint256"
        }
      ],
      "stateMutability": "view",
      "type": "function",
      "constant": true
    },
    {
      "inputs": [
        {
          "internalType": "address",
          "name": "spender",
          "type": "address"
        },
        {
          "internalType": "uint256",
          "name": "amount",
          "type": "uint256"
        }
      ],
      "name": "approve",
      "outputs": [
        {
          "internalType": "bool",
          "name": "",
          "type": "bool"
        }
      ],
      "stateMutability": "nonpayable",
      "type": "function"
    },
    {
      "inputs": [
        {
          "internalType": "address",
          "name": "account",
          "type": "address"
        }
      ],
      "name": "balanceOf",
      "outputs": [
        {
          "internalType": "uint256",
          "name": "",
          "type": "uint256"
        }
      ],
      "stateMutability": "view",
      "type": "function",
      "constant": true
    },
    {
      "inputs": [],
      "name": "decimals",
      "outputs": [
        {
          "internalType": "uint8",
          "name": "",
          "type": "uint8"
        }
      ],
      "stateMutability": "view",
      "type": "function",
      "constant": true
    },
    {
      "inputs": [
        {
          "internalType": "address",
          "name": "spender",
          "type": "address"
        },
        {
          "internalType": "uint256",
          "name": "subtractedValue",
          "type": "uint256"
        }
      ],
      "name": "decreaseAllowance",
      "outputs": [
        {
          "internalType": "bool",
          "name": "",
          "type": "bool"
        }
      ],
      "stateMutability": "nonpayable",
      "type": "function"
    },
    {
      "inputs": [],
      "name": "employeeadmin",
      "outputs": [
        {
          "internalType": "address",
          "name": "",
          "type": "address"
        }
      ],
      "stateMutability": "view",
      "type": "function",
      "constant": true
    },
    {
      "inputs": [
        {
          "internalType": "address",
          "name": "spender",
          "type": "address"
        },
        {
          "internalType": "uint256",
          "name": "addedValue",
          "type": "uint256"
        }
      ],
      "name": "increaseAllowance",
      "outputs": [
        {
          "internalType": "bool",
          "name": "",
          "type": "bool"
        }
      ],
      "stateMutability": "nonpayable",
      "type": "function"
    },
    {
      "inputs": [],
      "name": "name",
      "outputs": [
        {
          "internalType": "string",
          "name": "",
          "type": "string"
        }
      ],
      "stateMutability": "view",
      "type": "function",
      "constant": true
    },
    {
      "inputs": [],
      "name": "symbol",
      "outputs": [
        {
          "internalType": "string",
          "name": "",
          "type": "string"
        }
      ],
      "stateMutability": "view",
      "type": "function",
      "constant": true
    },
    {
      "inputs": [],
      "name": "totalSupply",
      "outputs": [
        {
          "internalType": "uint256",
          "name": "",
          "type": "uint256"
        }
      ],
      "stateMutability": "view",
      "type": "function",
      "constant": true
    },
    {
      "inputs": [
        {
          "internalType": "address",
          "name": "sender",
          "type": "address"
        },
        {
          "internalType": "address",
          "name": "recipient",
          "type": "address"
        },
        {
          "internalType": "uint256",
          "name": "amount",
          "type": "uint256"
        }
      ],
      "name": "transferFrom",
      "outputs": [
        {
          "internalType": "bool",
          "name": "",
          "type": "bool"
        }
      ],
      "stateMutability": "nonpayable",
      "type": "function"
    },
    {
      "inputs": [
        {
          "internalType": "address",
          "name": "to",
          "type": "address"
        },
        {
          "internalType": "uint256",
          "name": "amount",
          "type": "uint256"
        }
      ],
      "name": "mint",
      "outputs": [],
      "stateMutability": "nonpayable",
      "type": "function"
    },
    {
      "inputs": [
        {
          "internalType": "uint256",
          "name": "amount",
          "type": "uint256"
        }
      ],
      "name": "burn",
      "outputs": [],
      "stateMutability": "nonpayable",
      "type": "function"
    },
    {
      "inputs": [
        {
          "internalType": "address",
          "name": "_address",
          "type": "address"
        }
      ],
      "name": "change_admin",
      "outputs": [],
      "stateMutability": "nonpayable",
      "type": "function"
    },
    {
      "inputs": [
        {
          "internalType": "address",
          "name": "_address",
          "type": "address"
        }
      ],
      "name": "change_employeeadmin",
      "outputs": [],
      "stateMutability": "nonpayable",
      "type": "function"
    },
    {
      "inputs": [
        {
          "internalType": "string",
          "name": "_password",
          "type": "string"
        }
      ],
      "name": "login",
      "outputs": [
        {
          "internalType": "bool",
          "name": "",
          "type": "bool"
        }
      ],
      "stateMutability": "view",
      "type": "function",
      "constant": true
    },
    {
      "inputs": [
        {
          "internalType": "string",
          "name": "_name",
          "type": "string"
        },
        {
          "internalType": "address",
          "name": "_user_crypto_id",
          "type": "address"
        },
        {
          "internalType": "string",
          "name": "_password",
          "type": "string"
        }
      ],
      "name": "_create_New_User",
      "outputs": [],
      "stateMutability": "nonpayable",
      "type": "function"
    },
    {
      "inputs": [
        {
          "internalType": "string",
          "name": "_name",
          "type": "string"
        },
        {
          "internalType": "string",
          "name": "_employeeid",
          "type": "string"
        },
        {
          "internalType": "string",
          "name": "_employeerank",
          "type": "string"
        },
        {
          "internalType": "string",
          "name": "_emplyeegroup",
          "type": "string"
        }
      ],
      "name": "_create_New_Employee",
      "outputs": [
        {
          "internalType": "bool",
          "name": "",
          "type": "bool"
        }
      ],
      "stateMutability": "nonpayable",
      "type": "function"
    },
    {
      "inputs": [
        {
          "internalType": "address",
          "name": "_owner",
          "type": "address"
        },
        {
          "internalType": "address",
          "name": "_contact_name",
          "type": "address"
        },
        {
          "internalType": "string",
          "name": "_name",
          "type": "string"
        },
        {
          "internalType": "string",
          "name": "_contact_type",
          "type": "string"
        }
      ],
      "name": "_create_New_Contact",
      "outputs": [],
      "stateMutability": "nonpayable",
      "type": "function"
    },
    {
      "inputs": [
        {
          "internalType": "address",
          "name": "_sender",
          "type": "address"
        },
        {
          "internalType": "address",
          "name": "_reciver",
          "type": "address"
        },
        {
          "internalType": "uint32",
          "name": "_amount",
          "type": "uint32"
        }
      ],
      "name": "_Transaction_details",
      "outputs": [],
      "stateMutability": "nonpayable",
      "type": "function"
    },
    {
      "inputs": [
        {
          "internalType": "address",
          "name": "recipient",
          "type": "address"
        },
        {
          "internalType": "uint256",
          "name": "amount",
          "type": "uint256"
        }
      ],
      "name": "transfer",
      "outputs": [
        {
          "internalType": "bool",
          "name": "",
          "type": "bool"
        }
      ],
      "stateMutability": "nonpayable",
      "type": "function"
    },
    {
      "inputs": [],
      "name": "employees_view",
      "outputs": [
        {
          "components": [
            {
              "internalType": "string",
              "name": "name",
              "type": "string"
            },
            {
              "internalType": "string",
              "name": "employeeid",
              "type": "string"
            },
            {
              "internalType": "string",
              "name": "employeerank",
              "type": "string"
            },
            {
              "internalType": "string",
              "name": "employeegroup",
              "type": "string"
            }
          ],
          "internalType": "struct HAT_TOKEN.Employee[]",
          "name": "",
          "type": "tuple[]"
        }
      ],
      "stateMutability": "view",
      "type": "function",
      "constant": true
    },
    {
      "inputs": [],
      "name": "user_view",
      "outputs": [
        {
          "components": [
            {
              "internalType": "string",
              "name": "name",
              "type": "string"
            },
            {
              "internalType": "address",
              "name": "user_crypto_id",
              "type": "address"
            },
            {
              "internalType": "string",
              "name": "password",
              "type": "string"
            }
          ],
          "internalType": "struct HAT_TOKEN.User[]",
          "name": "",
          "type": "tuple[]"
        }
      ],
      "stateMutability": "view",
      "type": "function",
      "constant": true
    },
    {
      "inputs": [
        {
          "internalType": "uint256",
          "name": "id",
          "type": "uint256"
        }
      ],
      "name": "user_view",
      "outputs": [
        {
          "internalType": "string",
          "name": "",
          "type": "string"
        },
        {
          "internalType": "address",
          "name": "",
          "type": "address"
        },
        {
          "internalType": "string",
          "name": "",
          "type": "string"
        }
      ],
      "stateMutability": "view",
      "type": "function",
      "constant": true
    },
    {
      "inputs": [],
      "name": "transaction_view",
      "outputs": [
        {
          "components": [
            {
              "internalType": "address",
              "name": "sender",
              "type": "address"
            },
            {
              "internalType": "address",
              "name": "reciver",
              "type": "address"
            },
            {
              "internalType": "uint256",
              "name": "amount",
              "type": "uint256"
            }
          ],
          "internalType": "struct HAT_TOKEN.Transaction[]",
          "name": "",
          "type": "tuple[]"
        }
      ],
      "stateMutability": "view",
      "type": "function",
      "constant": true
    },
    {
      "inputs": [],
      "name": "contacts_view",
      "outputs": [
        {
          "components": [
            {
              "internalType": "address",
              "name": "owner",
              "type": "address"
            },
            {
              "internalType": "address",
              "name": "contact_name",
              "type": "address"
            },
            {
              "internalType": "string",
              "name": "name",
              "type": "string"
            },
            {
              "internalType": "string",
              "name": "contact_type",
              "type": "string"
            }
          ],
          "internalType": "struct HAT_TOKEN.Contact[]",
          "name": "",
          "type": "tuple[]"
        }
      ],
      "stateMutability": "view",
      "type": "function",
      "constant": true
    }
  ],
  "bytecode": "0x60806040523480156200001157600080fd5b506040518060400160405280600c81526020017f48697461796120546f6b656e00000000000000000000000000000000000000008152506040518060400160405280600381526020017f484154000000000000000000000000000000000000000000000000000000000081525081600390805190602001906200009692919062000259565b508060049080519060200190620000af92919062000259565b505050620000d0336b033b2e3c9fd0803ce8000000620000d660201b60201c565b620004b5565b600073ffffffffffffffffffffffffffffffffffffffff168273ffffffffffffffffffffffffffffffffffffffff16141562000149576040517f08c379a0000000000000000000000000000000000000000000000000000000008152600401620001409062000341565b60405180910390fd5b6200015d600083836200024f60201b60201c565b806002600082825462000171919062000391565b92505081905550806000808473ffffffffffffffffffffffffffffffffffffffff1673ffffffffffffffffffffffffffffffffffffffff1681526020019081526020016000206000828254620001c8919062000391565b925050819055508173ffffffffffffffffffffffffffffffffffffffff16600073ffffffffffffffffffffffffffffffffffffffff167fddf252ad1be2c89b69c2b068fc378daa952ba7f163c4a11628f55a4df523b3ef836040516200022f919062000363565b60405180910390a36200024b600083836200025460201b60201c565b5050565b505050565b505050565b8280546200026790620003f8565b90600052602060002090601f0160209004810192826200028b5760008555620002d7565b82601f10620002a657805160ff1916838001178555620002d7565b82800160010185558215620002d7579182015b82811115620002d6578251825591602001919060010190620002b9565b5b509050620002e69190620002ea565b5090565b5b8082111562000305576000816000905550600101620002eb565b5090565b600062000318601f8362000380565b915062000325826200048c565b602082019050919050565b6200033b81620003ee565b82525050565b600060208201905081810360008301526200035c8162000309565b9050919050565b60006020820190506200037a600083018462000330565b92915050565b600082825260208201905092915050565b60006200039e82620003ee565b9150620003ab83620003ee565b9250827fffffffffffffffffffffffffffffffffffffffffffffffffffffffffffffffff03821115620003e357620003e26200042e565b5b828201905092915050565b6000819050919050565b600060028204905060018216806200041157607f821691505b602082108114156200042857620004276200045d565b5b50919050565b7f4e487b7100000000000000000000000000000000000000000000000000000000600052601160045260246000fd5b7f4e487b7100000000000000000000000000000000000000000000000000000000600052602260045260246000fd5b7f45524332303a206d696e7420746f20746865207a65726f206164647265737300600082015250565b61431f80620004c56000396000f3fe608060405234801561001057600080fd5b50600436106101e55760003560e01c80635827d6801161010f578063c87b6dc0116100a2578063da2e6c8711610071578063da2e6c87146105e7578063dd62ed3e1461061a578063f6ee99e01461064a578063f851a44014610668576101e5565b8063c87b6dc01461055f578063cf224e8a1461057d578063d3706bec14610599578063d69f9a82146105b5576101e5565b806395d89b41116100de57806395d89b41146104c3578063a457c2d7146104e1578063a9059cbb14610511578063acd3306d14610541576101e5565b80635827d6801461043d5780635eae54601461045957806370a0823114610475578063827057f1146104a5576101e5565b80631e98fd1c11610187578063395093511161015657806339509351146103a55780633a7d280c146103d557806340c10f191461040557806342966c6814610421576101e5565b80631e98fd1c146102f357806323b872dd14610325578063313ce5671461035557806334008b1614610373576101e5565b806310f3fcbe116101c357806310f3fcbe14610268578063151c259f14610286578063158686b5146102b957806318160ddd146102d5576101e5565b806306fdde03146101ea578063095ea7b3146102085780630eea2bb114610238575b600080fd5b6101f2610686565b6040516101ff91906138e8565b60405180910390f35b610222600480360381019061021d9190612ed1565b610718565b60405161022f91906138cd565b60405180910390f35b610252600480360381019061024d9190612fe5565b610736565b60405161025f91906138cd565b60405180910390f35b610270610860565b60405161027d9190613867565b60405180910390f35b6102a0600480360381019061029b91906130bc565b610b07565b6040516102b0949392919061394f565b60405180910390f35b6102d360048036038101906102ce9190612d1f565b610d67565b005b6102dd610dab565b6040516102ea9190613b10565b60405180910390f35b61030d600480360381019061030891906130bc565b610db5565b60405161031c9392919061390a565b60405180910390f35b61033f600480360381019061033a9190612e2b565b610f1f565b60405161034c91906138cd565b60405180910390f35b61035d611017565b60405161036a9190613b2b565b60405180910390f35b61038d600480360381019061038891906130bc565b611020565b60405161039c9392919061380e565b60405180910390f35b6103bf60048036038101906103ba9190612ed1565b61109a565b6040516103cc91906138cd565b60405180910390f35b6103ef60048036038101906103ea9190612f11565b611146565b6040516103fc91906138cd565b60405180910390f35b61041f600480360381019061041a9190612ed1565b611277565b005b61043b600480360381019061043691906130bc565b611315565b005b61045760048036038101906104529190612d1f565b611322565b005b610473600480360381019061046e9190612d8c565b611366565b005b61048f600480360381019061048a9190612d1f565b6114ae565b60405161049c9190613b10565b60405180910390f35b6104ad6114f6565b6040516104ba91906138ab565b60405180910390f35b6104cb6116cf565b6040516104d891906138e8565b60405180910390f35b6104fb60048036038101906104f69190612ed1565b611761565b60405161050891906138cd565b60405180910390f35b61052b60048036038101906105269190612ed1565b61184c565b60405161053891906138cd565b60405180910390f35b610549611ac8565b60405161055691906137a0565b60405180910390f35b610567611aee565b6040516105749190613889565b60405180910390f35b61059760048036038101906105929190612f5a565b611c03565b005b6105b360048036038101906105ae9190612e7e565b611ce7565b005b6105cf60048036038101906105ca91906130bc565b611dfe565b6040516105de9392919061390a565b60405180910390f35b61060160048036038101906105fc91906130bc565b611fcc565b60405161061194939291906137bb565b60405180910390f35b610634600480360381019061062f9190612d4c565b61215c565b6040516106419190613b10565b60405180910390f35b6106526121e3565b60405161065f9190613845565b60405180910390f35b610670612412565b60405161067d91906137a0565b60405180910390f35b60606003805461069590613dfe565b80601f01602080910402602001604051908101604052809291908181526020018280546106c190613dfe565b801561070e5780601f106106e35761010080835404028352916020019161070e565b820191906000526020600020905b8154815290600101906020018083116106f157829003601f168201915b5050505050905090565b600061072c610725612438565b8484612440565b6001905092915050565b60003373ffffffffffffffffffffffffffffffffffffffff16600a60009054906101000a900473ffffffffffffffffffffffffffffffffffffffff1673ffffffffffffffffffffffffffffffffffffffff161461079257600080fd5b6008604051806080016040528087815260200186815260200185815260200184815250908060018154018082558091505060019003906000526020600020906004020160009091909190915060008201518160000190805190602001906107fa929190612bcd565b506020820151816001019080519060200190610817929190612bcd565b506040820151816002019080519060200190610834929190612bcd565b506060820151816003019080519060200190610851929190612bcd565b50505060019050949350505050565b60606008805480602002602001604051908101604052809291908181526020016000905b82821015610afe57838290600052602060002090600402016040518060800160405290816000820180546108b790613dfe565b80601f01602080910402602001604051908101604052809291908181526020018280546108e390613dfe565b80156109305780601f1061090557610100808354040283529160200191610930565b820191906000526020600020905b81548152906001019060200180831161091357829003601f168201915b5050505050815260200160018201805461094990613dfe565b80601f016020809104026020016040519081016040528092919081815260200182805461097590613dfe565b80156109c25780601f10610997576101008083540402835291602001916109c2565b820191906000526020600020905b8154815290600101906020018083116109a557829003601f168201915b505050505081526020016002820180546109db90613dfe565b80601f0160208091040260200160405190810160405280929190818152602001828054610a0790613dfe565b8015610a545780601f10610a2957610100808354040283529160200191610a54565b820191906000526020600020905b815481529060010190602001808311610a3757829003601f168201915b50505050508152602001600382018054610a6d90613dfe565b80601f0160208091040260200160405190810160405280929190818152602001828054610a9990613dfe565b8015610ae65780601f10610abb57610100808354040283529160200191610ae6565b820191906000526020600020905b815481529060010190602001808311610ac957829003601f168201915b50505050508152505081526020019060010190610884565b50505050905090565b60088181548110610b1757600080fd5b9060005260206000209060040201600091509050806000018054610b3a90613dfe565b80601f0160208091040260200160405190810160405280929190818152602001828054610b6690613dfe565b8015610bb35780601f10610b8857610100808354040283529160200191610bb3565b820191906000526020600020905b815481529060010190602001808311610b9657829003601f168201915b505050505090806001018054610bc890613dfe565b80601f0160208091040260200160405190810160405280929190818152602001828054610bf490613dfe565b8015610c415780601f10610c1657610100808354040283529160200191610c41565b820191906000526020600020905b815481529060010190602001808311610c2457829003601f168201915b505050505090806002018054610c5690613dfe565b80601f0160208091040260200160405190810160405280929190818152602001828054610c8290613dfe565b8015610ccf5780601f10610ca457610100808354040283529160200191610ccf565b820191906000526020600020905b815481529060010190602001808311610cb257829003601f168201915b505050505090806003018054610ce490613dfe565b80601f0160208091040260200160405190810160405280929190818152602001828054610d1090613dfe565b8015610d5d5780601f10610d3257610100808354040283529160200191610d5d565b820191906000526020600020905b815481529060010190602001808311610d4057829003601f168201915b5050505050905084565b80600960006101000a81548173ffffffffffffffffffffffffffffffffffffffff021916908373ffffffffffffffffffffffffffffffffffffffff16021790555050565b6000600254905090565b60058181548110610dc557600080fd5b9060005260206000209060030201600091509050806000018054610de890613dfe565b80601f0160208091040260200160405190810160405280929190818152602001828054610e1490613dfe565b8015610e615780601f10610e3657610100808354040283529160200191610e61565b820191906000526020600020905b815481529060010190602001808311610e4457829003601f168201915b5050505050908060010160009054906101000a900473ffffffffffffffffffffffffffffffffffffffff1690806002018054610e9c90613dfe565b80601f0160208091040260200160405190810160405280929190818152602001828054610ec890613dfe565b8015610f155780601f10610eea57610100808354040283529160200191610f15565b820191906000526020600020905b815481529060010190602001808311610ef857829003601f168201915b5050505050905083565b6000610f2c84848461260b565b6000600160008673ffffffffffffffffffffffffffffffffffffffff1673ffffffffffffffffffffffffffffffffffffffff1681526020019081526020016000206000610f77612438565b73ffffffffffffffffffffffffffffffffffffffff1673ffffffffffffffffffffffffffffffffffffffff16815260200190815260200160002054905082811015610ff7576040517f08c379a0000000000000000000000000000000000000000000000000000000008152600401610fee90613a50565b60405180910390fd5b61100b85611003612438565b858403612440565b60019150509392505050565b60006012905090565b6007818154811061103057600080fd5b90600052602060002090600302016000915090508060000160009054906101000a900473ffffffffffffffffffffffffffffffffffffffff16908060010160009054906101000a900473ffffffffffffffffffffffffffffffffffffffff16908060020154905083565b600061113c6110a7612438565b8484600160006110b5612438565b73ffffffffffffffffffffffffffffffffffffffff1673ffffffffffffffffffffffffffffffffffffffff16815260200190815260200160002060008873ffffffffffffffffffffffffffffffffffffffff1673ffffffffffffffffffffffffffffffffffffffff168152602001908152602001600020546111379190613ccd565b612440565b6001905092915050565b600080600090505b60058054905081101561126c573373ffffffffffffffffffffffffffffffffffffffff166005828154811061118657611185613f08565b5b906000526020600020906003020160010160009054906101000a900473ffffffffffffffffffffffffffffffffffffffff1673ffffffffffffffffffffffffffffffffffffffff1614801561124a5750826040516020016111e79190613772565b604051602081830303815290604052805190602001206005828154811061121157611210613f08565b5b90600052602060002090600302016002016040516020016112329190613789565b60405160208183030381529060405280519060200120145b15611259576001915050611272565b808061126490613e61565b91505061114e565b50600090505b919050565b600960009054906101000a900473ffffffffffffffffffffffffffffffffffffffff1673ffffffffffffffffffffffffffffffffffffffff163373ffffffffffffffffffffffffffffffffffffffff1614611307576040517f08c379a00000000000000000000000000000000000000000000000000000000081526004016112fe90613a30565b60405180910390fd5b611311828261288c565b5050565b61131f33826129ec565b50565b80600a60006101000a81548173ffffffffffffffffffffffffffffffffffffffff021916908373ffffffffffffffffffffffffffffffffffffffff16021790555050565b600660405180608001604052808673ffffffffffffffffffffffffffffffffffffffff1681526020018573ffffffffffffffffffffffffffffffffffffffff16815260200184815260200183815250908060018154018082558091505060019003906000526020600020906004020160009091909190915060008201518160000160006101000a81548173ffffffffffffffffffffffffffffffffffffffff021916908373ffffffffffffffffffffffffffffffffffffffff16021790555060208201518160010160006101000a81548173ffffffffffffffffffffffffffffffffffffffff021916908373ffffffffffffffffffffffffffffffffffffffff1602179055506040820151816002019080519060200190611488929190612bcd565b5060608201518160030190805190602001906114a5929190612bcd565b50505050505050565b60008060008373ffffffffffffffffffffffffffffffffffffffff1673ffffffffffffffffffffffffffffffffffffffff168152602001908152602001600020549050919050565b60606005805480602002602001604051908101604052809291908181526020016000905b828210156116c6578382906000526020600020906003020160405180606001604052908160008201805461154d90613dfe565b80601f016020809104026020016040519081016040528092919081815260200182805461157990613dfe565b80156115c65780601f1061159b576101008083540402835291602001916115c6565b820191906000526020600020905b8154815290600101906020018083116115a957829003601f168201915b505050505081526020016001820160009054906101000a900473ffffffffffffffffffffffffffffffffffffffff1673ffffffffffffffffffffffffffffffffffffffff1673ffffffffffffffffffffffffffffffffffffffff16815260200160028201805461163590613dfe565b80601f016020809104026020016040519081016040528092919081815260200182805461166190613dfe565b80156116ae5780601f10611683576101008083540402835291602001916116ae565b820191906000526020600020905b81548152906001019060200180831161169157829003601f168201915b5050505050815250508152602001906001019061151a565b50505050905090565b6060600480546116de90613dfe565b80601f016020809104026020016040519081016040528092919081815260200182805461170a90613dfe565b80156117575780601f1061172c57610100808354040283529160200191611757565b820191906000526020600020905b81548152906001019060200180831161173a57829003601f168201915b5050505050905090565b60008060016000611770612438565b73ffffffffffffffffffffffffffffffffffffffff1673ffffffffffffffffffffffffffffffffffffffff16815260200190815260200160002060008573ffffffffffffffffffffffffffffffffffffffff1673ffffffffffffffffffffffffffffffffffffffff1681526020019081526020016000205490508281101561182d576040517f08c379a000000000000000000000000000000000000000000000000000000000815260040161182490613ad0565b60405180910390fd5b611841611838612438565b85858403612440565b600191505092915050565b6000806000905060005b600580549050811015611abb573373ffffffffffffffffffffffffffffffffffffffff166005828154811061188e5761188d613f08565b5b906000526020600020906003020160010160009054906101000a900473ffffffffffffffffffffffffffffffffffffffff1673ffffffffffffffffffffffffffffffffffffffff161415611aa85760005b600580549050821015611aa6578573ffffffffffffffffffffffffffffffffffffffff166005828154811061191757611916613f08565b5b906000526020600020906003020160010160009054906101000a900473ffffffffffffffffffffffffffffffffffffffff1673ffffffffffffffffffffffffffffffffffffffff161415611a93576001925061197b611974612438565b878761260b565b600760405180606001604052803373ffffffffffffffffffffffffffffffffffffffff1681526020018873ffffffffffffffffffffffffffffffffffffffff16815260200187815250908060018154018082558091505060019003906000526020600020906003020160009091909190915060008201518160000160006101000a81548173ffffffffffffffffffffffffffffffffffffffff021916908373ffffffffffffffffffffffffffffffffffffffff16021790555060208201518160010160006101000a81548173ffffffffffffffffffffffffffffffffffffffff021916908373ffffffffffffffffffffffffffffffffffffffff16021790555060408201518160020155505060019350505050611ac2565b8180611a9e90613e61565b9250506118df565b505b8080611ab390613e61565b915050611856565b5060009150505b92915050565b600a60009054906101000a900473ffffffffffffffffffffffffffffffffffffffff1681565b60606007805480602002602001604051908101604052809291908181526020016000905b82821015611bfa57838290600052602060002090600302016040518060600160405290816000820160009054906101000a900473ffffffffffffffffffffffffffffffffffffffff1673ffffffffffffffffffffffffffffffffffffffff1673ffffffffffffffffffffffffffffffffffffffff1681526020016001820160009054906101000a900473ffffffffffffffffffffffffffffffffffffffff1673ffffffffffffffffffffffffffffffffffffffff1673ffffffffffffffffffffffffffffffffffffffff16815260200160028201548152505081526020019060010190611b12565b50505050905090565b600560405180606001604052808581526020018473ffffffffffffffffffffffffffffffffffffffff1681526020018381525090806001815401808255809150506001900390600052602060002090600302016000909190919091506000820151816000019080519060200190611c7b929190612bcd565b5060208201518160010160006101000a81548173ffffffffffffffffffffffffffffffffffffffff021916908373ffffffffffffffffffffffffffffffffffffffff1602179055506040820151816002019080519060200190611cdf929190612bcd565b505050505050565b600760405180606001604052808573ffffffffffffffffffffffffffffffffffffffff1681526020018473ffffffffffffffffffffffffffffffffffffffff1681526020018363ffffffff16815250908060018154018082558091505060019003906000526020600020906003020160009091909190915060008201518160000160006101000a81548173ffffffffffffffffffffffffffffffffffffffff021916908373ffffffffffffffffffffffffffffffffffffffff16021790555060208201518160010160006101000a81548173ffffffffffffffffffffffffffffffffffffffff021916908373ffffffffffffffffffffffffffffffffffffffff160217905550604082015181600201555050505050565b606060006060600060058581548110611e1a57611e19613f08565b5b9060005260206000209060030201604051806060016040529081600082018054611e4390613dfe565b80601f0160208091040260200160405190810160405280929190818152602001828054611e6f90613dfe565b8015611ebc5780601f10611e9157610100808354040283529160200191611ebc565b820191906000526020600020905b815481529060010190602001808311611e9f57829003601f168201915b505050505081526020016001820160009054906101000a900473ffffffffffffffffffffffffffffffffffffffff1673ffffffffffffffffffffffffffffffffffffffff1673ffffffffffffffffffffffffffffffffffffffff168152602001600282018054611f2b90613dfe565b80601f0160208091040260200160405190810160405280929190818152602001828054611f5790613dfe565b8015611fa45780601f10611f7957610100808354040283529160200191611fa4565b820191906000526020600020905b815481529060010190602001808311611f8757829003601f168201915b5050505050815250509050806000015181602001518260400151935093509350509193909250565b60068181548110611fdc57600080fd5b90600052602060002090600402016000915090508060000160009054906101000a900473ffffffffffffffffffffffffffffffffffffffff16908060010160009054906101000a900473ffffffffffffffffffffffffffffffffffffffff169080600201805461204b90613dfe565b80601f016020809104026020016040519081016040528092919081815260200182805461207790613dfe565b80156120c45780601f10612099576101008083540402835291602001916120c4565b820191906000526020600020905b8154815290600101906020018083116120a757829003601f168201915b5050505050908060030180546120d990613dfe565b80601f016020809104026020016040519081016040528092919081815260200182805461210590613dfe565b80156121525780601f1061212757610100808354040283529160200191612152565b820191906000526020600020905b81548152906001019060200180831161213557829003601f168201915b5050505050905084565b6000600160008473ffffffffffffffffffffffffffffffffffffffff1673ffffffffffffffffffffffffffffffffffffffff16815260200190815260200160002060008373ffffffffffffffffffffffffffffffffffffffff1673ffffffffffffffffffffffffffffffffffffffff16815260200190815260200160002054905092915050565b60606006805480602002602001604051908101604052809291908181526020016000905b8282101561240957838290600052602060002090600402016040518060800160405290816000820160009054906101000a900473ffffffffffffffffffffffffffffffffffffffff1673ffffffffffffffffffffffffffffffffffffffff1673ffffffffffffffffffffffffffffffffffffffff1681526020016001820160009054906101000a900473ffffffffffffffffffffffffffffffffffffffff1673ffffffffffffffffffffffffffffffffffffffff1673ffffffffffffffffffffffffffffffffffffffff1681526020016002820180546122e690613dfe565b80601f016020809104026020016040519081016040528092919081815260200182805461231290613dfe565b801561235f5780601f106123345761010080835404028352916020019161235f565b820191906000526020600020905b81548152906001019060200180831161234257829003601f168201915b5050505050815260200160038201805461237890613dfe565b80601f01602080910402602001604051908101604052809291908181526020018280546123a490613dfe565b80156123f15780601f106123c6576101008083540402835291602001916123f1565b820191906000526020600020905b8154815290600101906020018083116123d457829003601f168201915b50505050508152505081526020019060010190612207565b50505050905090565b600960009054906101000a900473ffffffffffffffffffffffffffffffffffffffff1681565b600033905090565b600073ffffffffffffffffffffffffffffffffffffffff168373ffffffffffffffffffffffffffffffffffffffff1614156124b0576040517f08c379a00000000000000000000000000000000000000000000000000000000081526004016124a790613ab0565b60405180910390fd5b600073ffffffffffffffffffffffffffffffffffffffff168273ffffffffffffffffffffffffffffffffffffffff161415612520576040517f08c379a0000000000000000000000000000000000000000000000000000000008152600401612517906139f0565b60405180910390fd5b80600160008573ffffffffffffffffffffffffffffffffffffffff1673ffffffffffffffffffffffffffffffffffffffff16815260200190815260200160002060008473ffffffffffffffffffffffffffffffffffffffff1673ffffffffffffffffffffffffffffffffffffffff168152602001908152602001600020819055508173ffffffffffffffffffffffffffffffffffffffff168373ffffffffffffffffffffffffffffffffffffffff167f8c5be1e5ebec7d5bd14f71427d1e84f3dd0314c0f7b2291e5b200ac8c7c3b925836040516125fe9190613b10565b60405180910390a3505050565b600073ffffffffffffffffffffffffffffffffffffffff168373ffffffffffffffffffffffffffffffffffffffff16141561267b576040517f08c379a000000000000000000000000000000000000000000000000000000000815260040161267290613a90565b60405180910390fd5b600073ffffffffffffffffffffffffffffffffffffffff168273ffffffffffffffffffffffffffffffffffffffff1614156126eb576040517f08c379a00000000000000000000000000000000000000000000000000000000081526004016126e2906139b0565b60405180910390fd5b6126f6838383612bc3565b60008060008573ffffffffffffffffffffffffffffffffffffffff1673ffffffffffffffffffffffffffffffffffffffff1681526020019081526020016000205490508181101561277c576040517f08c379a000000000000000000000000000000000000000000000000000000000815260040161277390613a10565b60405180910390fd5b8181036000808673ffffffffffffffffffffffffffffffffffffffff1673ffffffffffffffffffffffffffffffffffffffff16815260200190815260200160002081905550816000808573ffffffffffffffffffffffffffffffffffffffff1673ffffffffffffffffffffffffffffffffffffffff168152602001908152602001600020600082825461280f9190613ccd565b925050819055508273ffffffffffffffffffffffffffffffffffffffff168473ffffffffffffffffffffffffffffffffffffffff167fddf252ad1be2c89b69c2b068fc378daa952ba7f163c4a11628f55a4df523b3ef846040516128739190613b10565b60405180910390a3612886848484612bc8565b50505050565b600073ffffffffffffffffffffffffffffffffffffffff168273ffffffffffffffffffffffffffffffffffffffff1614156128fc576040517f08c379a00000000000000000000000000000000000000000000000000000000081526004016128f390613af0565b60405180910390fd5b61290860008383612bc3565b806002600082825461291a9190613ccd565b92505081905550806000808473ffffffffffffffffffffffffffffffffffffffff1673ffffffffffffffffffffffffffffffffffffffff168152602001908152602001600020600082825461296f9190613ccd565b925050819055508173ffffffffffffffffffffffffffffffffffffffff16600073ffffffffffffffffffffffffffffffffffffffff167fddf252ad1be2c89b69c2b068fc378daa952ba7f163c4a11628f55a4df523b3ef836040516129d49190613b10565b60405180910390a36129e860008383612bc8565b5050565b600073ffffffffffffffffffffffffffffffffffffffff168273ffffffffffffffffffffffffffffffffffffffff161415612a5c576040517f08c379a0000000000000000000000000000000000000000000000000000000008152600401612a5390613a70565b60405180910390fd5b612a6882600083612bc3565b60008060008473ffffffffffffffffffffffffffffffffffffffff1673ffffffffffffffffffffffffffffffffffffffff16815260200190815260200160002054905081811015612aee576040517f08c379a0000000000000000000000000000000000000000000000000000000008152600401612ae5906139d0565b60405180910390fd5b8181036000808573ffffffffffffffffffffffffffffffffffffffff1673ffffffffffffffffffffffffffffffffffffffff168152602001908152602001600020819055508160026000828254612b459190613d23565b92505081905550600073ffffffffffffffffffffffffffffffffffffffff168373ffffffffffffffffffffffffffffffffffffffff167fddf252ad1be2c89b69c2b068fc378daa952ba7f163c4a11628f55a4df523b3ef84604051612baa9190613b10565b60405180910390a3612bbe83600084612bc8565b505050565b505050565b505050565b828054612bd990613dfe565b90600052602060002090601f016020900481019282612bfb5760008555612c42565b82601f10612c1457805160ff1916838001178555612c42565b82800160010185558215612c42579182015b82811115612c41578251825591602001919060010190612c26565b5b509050612c4f9190612c53565b5090565b5b80821115612c6c576000816000905550600101612c54565b5090565b6000612c83612c7e84613b6b565b613b46565b905082815260208101848484011115612c9f57612c9e613f6b565b5b612caa848285613dbc565b509392505050565b600081359050612cc1816142a4565b92915050565b600082601f830112612cdc57612cdb613f66565b5b8135612cec848260208601612c70565b91505092915050565b600081359050612d04816142bb565b92915050565b600081359050612d19816142d2565b92915050565b600060208284031215612d3557612d34613f75565b5b6000612d4384828501612cb2565b91505092915050565b60008060408385031215612d6357612d62613f75565b5b6000612d7185828601612cb2565b9250506020612d8285828601612cb2565b9150509250929050565b60008060008060808587031215612da657612da5613f75565b5b6000612db487828801612cb2565b9450506020612dc587828801612cb2565b935050604085013567ffffffffffffffff811115612de657612de5613f70565b5b612df287828801612cc7565b925050606085013567ffffffffffffffff811115612e1357612e12613f70565b5b612e1f87828801612cc7565b91505092959194509250565b600080600060608486031215612e4457612e43613f75565b5b6000612e5286828701612cb2565b9350506020612e6386828701612cb2565b9250506040612e7486828701612cf5565b9150509250925092565b600080600060608486031215612e9757612e96613f75565b5b6000612ea586828701612cb2565b9350506020612eb686828701612cb2565b9250506040612ec786828701612d0a565b9150509250925092565b60008060408385031215612ee857612ee7613f75565b5b6000612ef685828601612cb2565b9250506020612f0785828601612cf5565b9150509250929050565b600060208284031215612f2757612f26613f75565b5b600082013567ffffffffffffffff811115612f4557612f44613f70565b5b612f5184828501612cc7565b91505092915050565b600080600060608486031215612f7357612f72613f75565b5b600084013567ffffffffffffffff811115612f9157612f90613f70565b5b612f9d86828701612cc7565b9350506020612fae86828701612cb2565b925050604084013567ffffffffffffffff811115612fcf57612fce613f70565b5b612fdb86828701612cc7565b9150509250925092565b60008060008060808587031215612fff57612ffe613f75565b5b600085013567ffffffffffffffff81111561301d5761301c613f70565b5b61302987828801612cc7565b945050602085013567ffffffffffffffff81111561304a57613049613f70565b5b61305687828801612cc7565b935050604085013567ffffffffffffffff81111561307757613076613f70565b5b61308387828801612cc7565b925050606085013567ffffffffffffffff8111156130a4576130a3613f70565b5b6130b087828801612cc7565b91505092959194509250565b6000602082840312156130d2576130d1613f75565b5b60006130e084828501612cf5565b91505092915050565b60006130f583836135ca565b905092915050565b60006131098383613634565b905092915050565b600061311d83836136ac565b60608301905092915050565b600061313583836136ee565b905092915050565b61314681613d57565b82525050565b61315581613d57565b82525050565b600061316682613bf1565b6131708185613c5c565b93508360208202850161318285613b9c565b8060005b858110156131be578484038952815161319f85826130e9565b94506131aa83613c28565b925060208a01995050600181019050613186565b50829750879550505050505092915050565b60006131db82613bfc565b6131e58185613c6d565b9350836020820285016131f785613bac565b8060005b85811015613233578484038952815161321485826130fd565b945061321f83613c35565b925060208a019950506001810190506131fb565b50829750879550505050505092915050565b600061325082613c07565b61325a8185613c7e565b935061326583613bbc565b8060005b8381101561329657815161327d8882613111565b975061328883613c42565b925050600181019050613269565b5085935050505092915050565b60006132ae82613c12565b6132b88185613c8f565b9350836020820285016132ca85613bcc565b8060005b8581101561330657848403895281516132e78582613129565b94506132f283613c4f565b925060208a019950506001810190506132ce565b50829750879550505050505092915050565b61332181613d69565b82525050565b600061333282613c1d565b61333c8185613ca0565b935061334c818560208601613dcb565b61335581613f7a565b840191505092915050565b600061336b82613c1d565b6133758185613cb1565b9350613385818560208601613dcb565b61338e81613f7a565b840191505092915050565b60006133a482613c1d565b6133ae8185613cc2565b93506133be818560208601613dcb565b80840191505092915050565b600081546133d781613dfe565b6133e18186613cc2565b945060018216600081146133fc576001811461340d57613440565b60ff19831686528186019350613440565b61341685613bdc565b60005b8381101561343857815481890152600182019150602081019050613419565b838801955050505b50505092915050565b6000613456602383613cb1565b915061346182613f8b565b604082019050919050565b6000613479602283613cb1565b915061348482613fda565b604082019050919050565b600061349c602283613cb1565b91506134a782614029565b604082019050919050565b60006134bf602683613cb1565b91506134ca82614078565b604082019050919050565b60006134e2600a83613cb1565b91506134ed826140c7565b602082019050919050565b6000613505602883613cb1565b9150613510826140f0565b604082019050919050565b6000613528602183613cb1565b91506135338261413f565b604082019050919050565b600061354b602583613cb1565b91506135568261418e565b604082019050919050565b600061356e602483613cb1565b9150613579826141dd565b604082019050919050565b6000613591602583613cb1565b915061359c8261422c565b604082019050919050565b60006135b4601f83613cb1565b91506135bf8261427b565b602082019050919050565b60006080830160008301516135e2600086018261313d565b5060208301516135f5602086018261313d565b506040830151848203604086015261360d8282613327565b915050606083015184820360608601526136278282613327565b9150508091505092915050565b600060808301600083015184820360008601526136518282613327565b9150506020830151848203602086015261366b8282613327565b915050604083015184820360408601526136858282613327565b9150506060830151848203606086015261369f8282613327565b9150508091505092915050565b6060820160008201516136c2600085018261313d565b5060208201516136d5602085018261313d565b5060408201516136e86040850182613745565b50505050565b6000606083016000830151848203600086015261370b8282613327565b9150506020830151613720602086018261313d565b50604083015184820360408601526137388282613327565b9150508091505092915050565b61374e81613d95565b82525050565b61375d81613d95565b82525050565b61376c81613daf565b82525050565b600061377e8284613399565b915081905092915050565b600061379582846133ca565b915081905092915050565b60006020820190506137b5600083018461314c565b92915050565b60006080820190506137d0600083018761314c565b6137dd602083018661314c565b81810360408301526137ef8185613360565b905081810360608301526138038184613360565b905095945050505050565b6000606082019050613823600083018661314c565b613830602083018561314c565b61383d6040830184613754565b949350505050565b6000602082019050818103600083015261385f818461315b565b905092915050565b6000602082019050818103600083015261388181846131d0565b905092915050565b600060208201905081810360008301526138a38184613245565b905092915050565b600060208201905081810360008301526138c581846132a3565b905092915050565b60006020820190506138e26000830184613318565b92915050565b600060208201905081810360008301526139028184613360565b905092915050565b600060608201905081810360008301526139248186613360565b9050613933602083018561314c565b81810360408301526139458184613360565b9050949350505050565b600060808201905081810360008301526139698187613360565b9050818103602083015261397d8186613360565b905081810360408301526139918185613360565b905081810360608301526139a58184613360565b905095945050505050565b600060208201905081810360008301526139c981613449565b9050919050565b600060208201905081810360008301526139e98161346c565b9050919050565b60006020820190508181036000830152613a098161348f565b9050919050565b60006020820190508181036000830152613a29816134b2565b9050919050565b60006020820190508181036000830152613a49816134d5565b9050919050565b60006020820190508181036000830152613a69816134f8565b9050919050565b60006020820190508181036000830152613a898161351b565b9050919050565b60006020820190508181036000830152613aa98161353e565b9050919050565b60006020820190508181036000830152613ac981613561565b9050919050565b60006020820190508181036000830152613ae981613584565b9050919050565b60006020820190508181036000830152613b09816135a7565b9050919050565b6000602082019050613b256000830184613754565b92915050565b6000602082019050613b406000830184613763565b92915050565b6000613b50613b61565b9050613b5c8282613e30565b919050565b6000604051905090565b600067ffffffffffffffff821115613b8657613b85613f37565b5b613b8f82613f7a565b9050602081019050919050565b6000819050602082019050919050565b6000819050602082019050919050565b6000819050602082019050919050565b6000819050602082019050919050565b60008190508160005260206000209050919050565b600081519050919050565b600081519050919050565b600081519050919050565b600081519050919050565b600081519050919050565b6000602082019050919050565b6000602082019050919050565b6000602082019050919050565b6000602082019050919050565b600082825260208201905092915050565b600082825260208201905092915050565b600082825260208201905092915050565b600082825260208201905092915050565b600082825260208201905092915050565b600082825260208201905092915050565b600081905092915050565b6000613cd882613d95565b9150613ce383613d95565b9250827fffffffffffffffffffffffffffffffffffffffffffffffffffffffffffffffff03821115613d1857613d17613eaa565b5b828201905092915050565b6000613d2e82613d95565b9150613d3983613d95565b925082821015613d4c57613d4b613eaa565b5b828203905092915050565b6000613d6282613d75565b9050919050565b60008115159050919050565b600073ffffffffffffffffffffffffffffffffffffffff82169050919050565b6000819050919050565b600063ffffffff82169050919050565b600060ff82169050919050565b82818337600083830152505050565b60005b83811015613de9578082015181840152602081019050613dce565b83811115613df8576000848401525b50505050565b60006002820490506001821680613e1657607f821691505b60208210811415613e2a57613e29613ed9565b5b50919050565b613e3982613f7a565b810181811067ffffffffffffffff82111715613e5857613e57613f37565b5b80604052505050565b6000613e6c82613d95565b91507fffffffffffffffffffffffffffffffffffffffffffffffffffffffffffffffff821415613e9f57613e9e613eaa565b5b600182019050919050565b7f4e487b7100000000000000000000000000000000000000000000000000000000600052601160045260246000fd5b7f4e487b7100000000000000000000000000000000000000000000000000000000600052602260045260246000fd5b7f4e487b7100000000000000000000000000000000000000000000000000000000600052603260045260246000fd5b7f4e487b7100000000000000000000000000000000000000000000000000000000600052604160045260246000fd5b600080fd5b600080fd5b600080fd5b600080fd5b6000601f19601f8301169050919050565b7f45524332303a207472616e7366657220746f20746865207a65726f206164647260008201527f6573730000000000000000000000000000000000000000000000000000000000602082015250565b7f45524332303a206275726e20616d6f756e7420657863656564732062616c616e60008201527f6365000000000000000000000000000000000000000000000000000000000000602082015250565b7f45524332303a20617070726f766520746f20746865207a65726f20616464726560008201527f7373000000000000000000000000000000000000000000000000000000000000602082015250565b7f45524332303a207472616e7366657220616d6f756e742065786365656473206260008201527f616c616e63650000000000000000000000000000000000000000000000000000602082015250565b7f6f6e6c792061646d696e00000000000000000000000000000000000000000000600082015250565b7f45524332303a207472616e7366657220616d6f756e742065786365656473206160008201527f6c6c6f77616e6365000000000000000000000000000000000000000000000000602082015250565b7f45524332303a206275726e2066726f6d20746865207a65726f2061646472657360008201527f7300000000000000000000000000000000000000000000000000000000000000602082015250565b7f45524332303a207472616e736665722066726f6d20746865207a65726f20616460008201527f6472657373000000000000000000000000000000000000000000000000000000602082015250565b7f45524332303a20617070726f76652066726f6d20746865207a65726f2061646460008201527f7265737300000000000000000000000000000000000000000000000000000000602082015250565b7f45524332303a2064656372656173656420616c6c6f77616e63652062656c6f7760008201527f207a65726f000000000000000000000000000000000000000000000000000000602082015250565b7f45524332303a206d696e7420746f20746865207a65726f206164647265737300600082015250565b6142ad81613d57565b81146142b857600080fd5b50565b6142c481613d95565b81146142cf57600080fd5b50565b6142db81613d9f565b81146142e657600080fd5b5056fea2646970667358221220aa91719c77447afd89895b0dc933d1a93322abc5ac95b2a20d797dc58780e4b264736f6c63430008050033",
  "immutableReferences": {},
  "source": "// SPDX-License-Identifier: MIT\r\n\r\npragma solidity ^0.8.5;\r\n\r\n\r\nimport \"@openzeppelin/contracts/token/ERC20/ERC20.sol\";\r\n\r\n\r\ncontract HAT_TOKEN is ERC20 {\r\n    \r\n    \r\n    struct Employee{\r\n        string name;\r\n        string employeeid;\r\n        string employeerank;\r\n        string employeegroup;\r\n    }\r\n    \r\n    \r\n    struct User{\r\n        string name;\r\n        address user_crypto_id;\r\n        string password;\r\n    }\r\n    \r\n    \r\n    struct Transaction{\r\n        address sender;\r\n        address reciver;\r\n        uint256 amount;\r\n    }\r\n    \r\n    \r\n    struct Contact{\r\n        address owner;\r\n        address contact_name;\r\n        string name;\r\n        string contact_type;\r\n    }\r\n\r\n    //event NewUser( string name, address user_crypto_id, string password);\r\n    \r\n    User[] public Users;\r\n    Contact[] public Contacts;\r\n    Transaction[] public Transactions;\r\n    Employee[] public Employees;\r\n\r\n    \r\n    address public admin;\r\n    address public employeeadmin;\r\n    \r\n    constructor() ERC20('Hitaya Token', 'HAT'){\r\n        _mint(msg.sender, 1000000000 * 10 ** 18);\r\n    }\r\n    \r\n    \r\n    function mint(address to, uint amount) external {\r\n        require(msg.sender==admin, 'only admin');\r\n        _mint(to, amount);\r\n    }\r\n    \r\n    \r\n    function burn(uint amount) external {\r\n        _burn(msg.sender, amount);\r\n    }\r\n    \r\n    \r\n    function change_admin(address _address) public{\r\n        admin=_address;\r\n    }\r\n    \r\n    \r\n    function change_employeeadmin(address _address) public{\r\n        employeeadmin=_address;\r\n    }\r\n    \r\n    \r\n    function login(string memory _password) public view returns (bool){\r\n        for (uint i=0;i<Users.length;i++){\r\n            if (Users[i].user_crypto_id==msg.sender && keccak256(abi.encodePacked(Users[i].password))==keccak256(abi.encodePacked(_password))){\r\n                return true;\r\n            }\r\n        }\r\n        return false;\r\n    }\r\n\r\n    \r\n    function _create_New_User(string memory _name, address _user_crypto_id, string memory _password) public {\r\n        Users.push(User( _name, _user_crypto_id, _password));\r\n\t//emit NewUser(_name, _user_crypto_id, _password);\r\n       \r\n    }\r\n    \r\n    \r\n    function _create_New_Employee(string memory _name, string memory _employeeid, string memory _employeerank, string memory _emplyeegroup) public returns(bool){\r\n        require(employeeadmin==msg.sender);\r\n        Employees.push(Employee( _name, _employeeid, _employeerank, _emplyeegroup));\r\n        return true;\r\n    }\r\n    \r\n    \r\n    function _create_New_Contact(address _owner, address _contact_name, string memory _name, string memory _contact_type) public {\r\n        Contacts.push(Contact( _owner, _contact_name, _name,_contact_type));\r\n    }\r\n    \r\n    \r\n    function _Transaction_details(address _sender, address _reciver, uint32 _amount) public {\r\n        Transactions.push(Transaction( _sender, _reciver, _amount));\r\n    }\r\n    \r\n    \r\n    // function _create_New_Contact(address _contact_name, string memory _name, string _contact_type) public {\r\n    //     for (uint i=0;i<Users.length;i++){\r\n    //         if(Users[i].user_crypto_id==msg.sender){\r\n    //             Contacts.push(Contact( msg.sender, _contact_name, _contact_type));\r\n    //         }\r\n    //     }\r\n    // }\r\n    \r\n    \r\n    function transfer(address recipient, uint256 amount) public virtual override returns (bool) {\r\n        bool key = false;\r\n        for (uint i=0;i<Users.length;i++){\r\n            if(Users[i].user_crypto_id==msg.sender){\r\n                for (uint j=0;i<Users.length;i++){\r\n                    if(Users[j].user_crypto_id==recipient){\r\n                        key = true;\r\n                        _transfer(_msgSender(), recipient, amount);\r\n                        Transactions.push(Transaction( msg.sender, recipient, amount));\r\n                        return true;\r\n                    }\r\n                }\r\n            }\r\n        }\r\n        return false;\r\n    }\r\n    \r\n    \r\n    function user_view(uint id) public view returns (string memory ,address , string memory)\r\n    {\r\n        User memory p = Users[id];\r\n        return (p.name,p.user_crypto_id,p.password); // return multiple values like this\r\n    }\r\n    \r\n    \r\n    function employees_view() public view returns (Employee[] memory)\r\n    {\r\n\r\n        return (Employees); // return multiple values like this\r\n    }\r\n    \r\n    \r\n    function user_view() public view returns (User[] memory)\r\n    {\r\n\r\n        return (Users); // return multiple values like this\r\n    }\r\n    \r\n    \r\n    function transaction_view() public view returns (Transaction[] memory)\r\n    {\r\n\r\n        return (Transactions); // return multiple values like this\r\n    }\r\n    \r\n    \r\n    function contacts_view() public view returns (Contact[] memory)\r\n    {\r\n\r\n        return (Contacts); // return multiple values like this\r\n    }\r\n    \r\n    \r\n    \r\n    // function get_transaction_details() public view returns (Transactions[] memory){\r\n    //     Transactions[] memory Transactions_Detail= new Transactions[](Transactions.length);\r\n    //     uint count=0;\r\n    //     for (uint i=0;i<Transactions.length;i++){\r\n    //         if (Transactions[i].sender==msg.sender){\r\n    //             Transactions_Detail[count].push([Transactions[i].sender,Transaction[i].recipient,Transactions[i].amount]);\r\n    //             count++;\r\n    //         }\r\n    //     }\r\n    //     return Transactions_Detail;\r\n    // }\r\n    \r\n}\r\n",
  "sourcePath": "C:\\Users\\ZEUS\\Desktop\\Hitaya\\truffle\\contracts\\HAT_TOKEN.sol",
  "compiler": {
    "name": "solc",
    "version": "0.8.5+commit.a4f2e591.Emscripten.clang"
  },
  "schemaVersion": "3.4.3",
  "updatedAt": "2021-08-28T22:13:52.182Z",
  "networkType": "ethereum",
  "devdoc": {
    "kind": "dev",
    "methods": {
      "allowance(address,address)": {
        "details": "See {IERC20-allowance}."
      },
      "approve(address,uint256)": {
        "details": "See {IERC20-approve}. Requirements: - `spender` cannot be the zero address."
      },
      "balanceOf(address)": {
        "details": "See {IERC20-balanceOf}."
      },
      "decimals()": {
        "details": "Returns the number of decimals used to get its user representation. For example, if `decimals` equals `2`, a balance of `505` tokens should be displayed to a user as `5.05` (`505 / 10 ** 2`). Tokens usually opt for a value of 18, imitating the relationship between Ether and Wei. This is the value {ERC20} uses, unless this function is overridden; NOTE: This information is only used for _display_ purposes: it in no way affects any of the arithmetic of the contract, including {IERC20-balanceOf} and {IERC20-transfer}."
      },
      "decreaseAllowance(address,uint256)": {
        "details": "Atomically decreases the allowance granted to `spender` by the caller. This is an alternative to {approve} that can be used as a mitigation for problems described in {IERC20-approve}. Emits an {Approval} event indicating the updated allowance. Requirements: - `spender` cannot be the zero address. - `spender` must have allowance for the caller of at least `subtractedValue`."
      },
      "increaseAllowance(address,uint256)": {
        "details": "Atomically increases the allowance granted to `spender` by the caller. This is an alternative to {approve} that can be used as a mitigation for problems described in {IERC20-approve}. Emits an {Approval} event indicating the updated allowance. Requirements: - `spender` cannot be the zero address."
      },
      "name()": {
        "details": "Returns the name of the token."
      },
      "symbol()": {
        "details": "Returns the symbol of the token, usually a shorter version of the name."
      },
      "totalSupply()": {
        "details": "See {IERC20-totalSupply}."
      },
      "transfer(address,uint256)": {
        "details": "See {IERC20-transfer}. Requirements: - `recipient` cannot be the zero address. - the caller must have a balance of at least `amount`."
      },
      "transferFrom(address,address,uint256)": {
        "details": "See {IERC20-transferFrom}. Emits an {Approval} event indicating the updated allowance. This is not required by the EIP. See the note at the beginning of {ERC20}. Requirements: - `sender` and `recipient` cannot be the zero address. - `sender` must have a balance of at least `amount`. - the caller must have allowance for ``sender``'s tokens of at least `amount`."
      }
    },
    "version": 1
  },
  "userdoc": {
    "kind": "user",
    "methods": {},
    "version": 1
  }
}