{
  "contractName": "HAT_TOKEN",
  "abi": [
    {
      "inputs": [],
      "stateMutability": "nonpayable",
      "type": "constructor"
    },
    {
      "anonymous": false,
      "inputs": [
        {
          "indexed": true,
          "internalType": "address",
          "name": "owner",
          "type": "address"
        },
        {
          "indexed": true,
          "internalType": "address",
          "name": "spender",
          "type": "address"
        },
        {
          "indexed": false,
          "internalType": "uint256",
          "name": "value",
          "type": "uint256"
        }
      ],
      "name": "Approval",
      "type": "event"
    },
    {
      "anonymous": false,
      "inputs": [
        {
          "indexed": true,
          "internalType": "address",
          "name": "from",
          "type": "address"
        },
        {
          "indexed": true,
          "internalType": "address",
          "name": "to",
          "type": "address"
        },
        {
          "indexed": false,
          "internalType": "uint256",
          "name": "value",
          "type": "uint256"
        }
      ],
      "name": "Transfer",
      "type": "event"
    },
    {
      "inputs": [
        {
          "internalType": "uint256",
          "name": "",
          "type": "uint256"
        }
      ],
      "name": "Contacts",
      "outputs": [
        {
          "internalType": "address",
          "name": "owner",
          "type": "address"
        },
        {
          "internalType": "address",
          "name": "contact_name",
          "type": "address"
        },
        {
          "internalType": "string",
          "name": "name",
          "type": "string"
        }
      ],
      "stateMutability": "view",
      "type": "function",
      "constant": true
    },
    {
      "inputs": [
        {
          "internalType": "uint256",
          "name": "",
          "type": "uint256"
        }
      ],
      "name": "Transactions",
      "outputs": [
        {
          "internalType": "address",
          "name": "sender",
          "type": "address"
        },
        {
          "internalType": "address",
          "name": "reciver",
          "type": "address"
        },
        {
          "internalType": "uint256",
          "name": "amount",
          "type": "uint256"
        }
      ],
      "stateMutability": "view",
      "type": "function",
      "constant": true
    },
    {
      "inputs": [
        {
          "internalType": "uint256",
          "name": "",
          "type": "uint256"
        }
      ],
      "name": "Users",
      "outputs": [
        {
          "internalType": "string",
          "name": "name",
          "type": "string"
        },
        {
          "internalType": "address",
          "name": "user_crypto_id",
          "type": "address"
        },
        {
          "internalType": "string",
          "name": "password",
          "type": "string"
        }
      ],
      "stateMutability": "view",
      "type": "function",
      "constant": true
    },
    {
      "inputs": [],
      "name": "admin",
      "outputs": [
        {
          "internalType": "address",
          "name": "",
          "type": "address"
        }
      ],
      "stateMutability": "view",
      "type": "function",
      "constant": true
    },
    {
      "inputs": [
        {
          "internalType": "address",
          "name": "owner",
          "type": "address"
        },
        {
          "internalType": "address",
          "name": "spender",
          "type": "address"
        }
      ],
      "name": "allowance",
      "outputs": [
        {
          "internalType": "uint256",
          "name": "",
          "type": "uint256"
        }
      ],
      "stateMutability": "view",
      "type": "function",
      "constant": true
    },
    {
      "inputs": [
        {
          "internalType": "address",
          "name": "spender",
          "type": "address"
        },
        {
          "internalType": "uint256",
          "name": "amount",
          "type": "uint256"
        }
      ],
      "name": "approve",
      "outputs": [
        {
          "internalType": "bool",
          "name": "",
          "type": "bool"
        }
      ],
      "stateMutability": "nonpayable",
      "type": "function"
    },
    {
      "inputs": [
        {
          "internalType": "address",
          "name": "account",
          "type": "address"
        }
      ],
      "name": "balanceOf",
      "outputs": [
        {
          "internalType": "uint256",
          "name": "",
          "type": "uint256"
        }
      ],
      "stateMutability": "view",
      "type": "function",
      "constant": true
    },
    {
      "inputs": [],
      "name": "decimals",
      "outputs": [
        {
          "internalType": "uint8",
          "name": "",
          "type": "uint8"
        }
      ],
      "stateMutability": "view",
      "type": "function",
      "constant": true
    },
    {
      "inputs": [
        {
          "internalType": "address",
          "name": "spender",
          "type": "address"
        },
        {
          "internalType": "uint256",
          "name": "subtractedValue",
          "type": "uint256"
        }
      ],
      "name": "decreaseAllowance",
      "outputs": [
        {
          "internalType": "bool",
          "name": "",
          "type": "bool"
        }
      ],
      "stateMutability": "nonpayable",
      "type": "function"
    },
    {
      "inputs": [
        {
          "internalType": "address",
          "name": "spender",
          "type": "address"
        },
        {
          "internalType": "uint256",
          "name": "addedValue",
          "type": "uint256"
        }
      ],
      "name": "increaseAllowance",
      "outputs": [
        {
          "internalType": "bool",
          "name": "",
          "type": "bool"
        }
      ],
      "stateMutability": "nonpayable",
      "type": "function"
    },
    {
      "inputs": [],
      "name": "name",
      "outputs": [
        {
          "internalType": "string",
          "name": "",
          "type": "string"
        }
      ],
      "stateMutability": "view",
      "type": "function",
      "constant": true
    },
    {
      "inputs": [],
      "name": "symbol",
      "outputs": [
        {
          "internalType": "string",
          "name": "",
          "type": "string"
        }
      ],
      "stateMutability": "view",
      "type": "function",
      "constant": true
    },
    {
      "inputs": [],
      "name": "totalSupply",
      "outputs": [
        {
          "internalType": "uint256",
          "name": "",
          "type": "uint256"
        }
      ],
      "stateMutability": "view",
      "type": "function",
      "constant": true
    },
    {
      "inputs": [
        {
          "internalType": "address",
          "name": "sender",
          "type": "address"
        },
        {
          "internalType": "address",
          "name": "recipient",
          "type": "address"
        },
        {
          "internalType": "uint256",
          "name": "amount",
          "type": "uint256"
        }
      ],
      "name": "transferFrom",
      "outputs": [
        {
          "internalType": "bool",
          "name": "",
          "type": "bool"
        }
      ],
      "stateMutability": "nonpayable",
      "type": "function"
    },
    {
      "inputs": [
        {
          "internalType": "address",
          "name": "to",
          "type": "address"
        },
        {
          "internalType": "uint256",
          "name": "amount",
          "type": "uint256"
        }
      ],
      "name": "mint",
      "outputs": [],
      "stateMutability": "nonpayable",
      "type": "function"
    },
    {
      "inputs": [
        {
          "internalType": "uint256",
          "name": "amounnt",
          "type": "uint256"
        }
      ],
      "name": "burn",
      "outputs": [],
      "stateMutability": "nonpayable",
      "type": "function"
    },
    {
      "inputs": [
        {
          "internalType": "string",
          "name": "_password",
          "type": "string"
        }
      ],
      "name": "login",
      "outputs": [
        {
          "internalType": "bool",
          "name": "",
          "type": "bool"
        }
      ],
      "stateMutability": "view",
      "type": "function",
      "constant": true
    },
    {
      "inputs": [
        {
          "internalType": "string",
          "name": "_name",
          "type": "string"
        },
        {
          "internalType": "address",
          "name": "_user_crypto_id",
          "type": "address"
        },
        {
          "internalType": "string",
          "name": "_password",
          "type": "string"
        }
      ],
      "name": "_create_New_User",
      "outputs": [],
      "stateMutability": "nonpayable",
      "type": "function"
    },
    {
      "inputs": [
        {
          "internalType": "address",
          "name": "_contact_name",
          "type": "address"
        },
        {
          "internalType": "string",
          "name": "_name",
          "type": "string"
        }
      ],
      "name": "_create_New_Contact",
      "outputs": [],
      "stateMutability": "nonpayable",
      "type": "function"
    },
    {
      "inputs": [
        {
          "internalType": "address",
          "name": "recipient",
          "type": "address"
        },
        {
          "internalType": "uint256",
          "name": "amount",
          "type": "uint256"
        }
      ],
      "name": "transfer",
      "outputs": [
        {
          "internalType": "bool",
          "name": "",
          "type": "bool"
        }
      ],
      "stateMutability": "nonpayable",
      "type": "function"
    },
    {
      "inputs": [
        {
          "internalType": "uint256",
          "name": "id",
          "type": "uint256"
        }
      ],
      "name": "user_view",
      "outputs": [
        {
          "internalType": "string",
          "name": "",
          "type": "string"
        },
        {
          "internalType": "address",
          "name": "",
          "type": "address"
        },
        {
          "internalType": "string",
          "name": "",
          "type": "string"
        }
      ],
      "stateMutability": "view",
      "type": "function",
      "constant": true
    }
  ],
  "bytecode": "0x60806040523480156200001157600080fd5b506040518060400160405280600c81526020017f48697461796120546f6b656e00000000000000000000000000000000000000008152506040518060400160405280600381526020017f484154000000000000000000000000000000000000000000000000000000000081525081600390805190602001906200009692919062000259565b508060049080519060200190620000af92919062000259565b505050620000d0336b033b2e3c9fd0803ce8000000620000d660201b60201c565b620004b5565b600073ffffffffffffffffffffffffffffffffffffffff168273ffffffffffffffffffffffffffffffffffffffff16141562000149576040517f08c379a0000000000000000000000000000000000000000000000000000000008152600401620001409062000341565b60405180910390fd5b6200015d600083836200024f60201b60201c565b806002600082825462000171919062000391565b92505081905550806000808473ffffffffffffffffffffffffffffffffffffffff1673ffffffffffffffffffffffffffffffffffffffff1681526020019081526020016000206000828254620001c8919062000391565b925050819055508173ffffffffffffffffffffffffffffffffffffffff16600073ffffffffffffffffffffffffffffffffffffffff167fddf252ad1be2c89b69c2b068fc378daa952ba7f163c4a11628f55a4df523b3ef836040516200022f919062000363565b60405180910390a36200024b600083836200025460201b60201c565b5050565b505050565b505050565b8280546200026790620003f8565b90600052602060002090601f0160209004810192826200028b5760008555620002d7565b82601f10620002a657805160ff1916838001178555620002d7565b82800160010185558215620002d7579182015b82811115620002d6578251825591602001919060010190620002b9565b5b509050620002e69190620002ea565b5090565b5b8082111562000305576000816000905550600101620002eb565b5090565b600062000318601f8362000380565b915062000325826200048c565b602082019050919050565b6200033b81620003ee565b82525050565b600060208201905081810360008301526200035c8162000309565b9050919050565b60006020820190506200037a600083018462000330565b92915050565b600082825260208201905092915050565b60006200039e82620003ee565b9150620003ab83620003ee565b9250827fffffffffffffffffffffffffffffffffffffffffffffffffffffffffffffffff03821115620003e357620003e26200042e565b5b828201905092915050565b6000819050919050565b600060028204905060018216806200041157607f821691505b602082108114156200042857620004276200045d565b5b50919050565b7f4e487b7100000000000000000000000000000000000000000000000000000000600052601160045260246000fd5b7f4e487b7100000000000000000000000000000000000000000000000000000000600052602260045260246000fd5b7f45524332303a206d696e7420746f20746865207a65726f206164647265737300600082015250565b612c7c80620004c56000396000f3fe608060405234801561001057600080fd5b50600436106101375760003560e01c806342966c68116100b8578063a9059cbb1161007c578063a9059cbb1461038c578063cf224e8a146103bc578063d69f9a82146103d8578063da2e6c871461040a578063dd62ed3e1461043c578063f851a4401461046c57610137565b806342966c68146102d657806345bd3a95146102f257806370a082311461030e57806395d89b411461033e578063a457c2d71461035c57610137565b8063313ce567116100ff578063313ce5671461020a57806334008b1614610228578063395093511461025a5780633a7d280c1461028a57806340c10f19146102ba57610137565b806306fdde031461013c578063095ea7b31461015a57806318160ddd1461018a5780631e98fd1c146101a857806323b872dd146101da575b600080fd5b61014461048a565b60405161015191906123c2565b60405180910390f35b610174600480360381019061016f9190611f02565b61051c565b60405161018191906123a7565b60405180910390f35b61019261053a565b60405161019f9190612589565b60405180910390f35b6101c260048036038101906101bd9190612016565b610544565b6040516101d1939291906123e4565b60405180910390f35b6101f460048036038101906101ef9190611e53565b6106ae565b60405161020191906123a7565b60405180910390f35b6102126107a6565b60405161021f91906125a4565b60405180910390f35b610242600480360381019061023d9190612016565b6107af565b60405161025193929190612370565b60405180910390f35b610274600480360381019061026f9190611f02565b610829565b60405161028191906123a7565b60405180910390f35b6102a4600480360381019061029f9190611f42565b6108d5565b6040516102b191906123a7565b60405180910390f35b6102d460048036038101906102cf9190611f02565b610a06565b005b6102f060048036038101906102eb9190612016565b610aa4565b005b61030c60048036038101906103079190611ea6565b610ab1565b005b61032860048036038101906103239190611de6565b610c72565b6040516103359190612589565b60405180910390f35b610346610cba565b60405161035391906123c2565b60405180910390f35b61037660048036038101906103719190611f02565b610d4c565b60405161038391906123a7565b60405180910390f35b6103a660048036038101906103a19190611f02565b610e37565b6040516103b391906123a7565b60405180910390f35b6103d660048036038101906103d19190611f8b565b6110b3565b005b6103f260048036038101906103ed9190612016565b611197565b604051610401939291906123e4565b60405180910390f35b610424600480360381019061041f9190612016565b611365565b60405161043393929190612332565b60405180910390f35b61045660048036038101906104519190611e13565b611467565b6040516104639190612589565b60405180910390f35b6104746114ee565b6040516104819190612317565b60405180910390f35b60606003805461049990612772565b80601f01602080910402602001604051908101604052809291908181526020018280546104c590612772565b80156105125780601f106104e757610100808354040283529160200191610512565b820191906000526020600020905b8154815290600101906020018083116104f557829003601f168201915b5050505050905090565b6000610530610529611514565b848461151c565b6001905092915050565b6000600254905090565b6005818154811061055457600080fd5b906000526020600020906003020160009150905080600001805461057790612772565b80601f01602080910402602001604051908101604052809291908181526020018280546105a390612772565b80156105f05780601f106105c5576101008083540402835291602001916105f0565b820191906000526020600020905b8154815290600101906020018083116105d357829003601f168201915b5050505050908060010160009054906101000a900473ffffffffffffffffffffffffffffffffffffffff169080600201805461062b90612772565b80601f016020809104026020016040519081016040528092919081815260200182805461065790612772565b80156106a45780601f10610679576101008083540402835291602001916106a4565b820191906000526020600020905b81548152906001019060200180831161068757829003601f168201915b5050505050905083565b60006106bb8484846116e7565b6000600160008673ffffffffffffffffffffffffffffffffffffffff1673ffffffffffffffffffffffffffffffffffffffff1681526020019081526020016000206000610706611514565b73ffffffffffffffffffffffffffffffffffffffff1673ffffffffffffffffffffffffffffffffffffffff16815260200190815260200160002054905082811015610786576040517f08c379a000000000000000000000000000000000000000000000000000000000815260040161077d906124c9565b60405180910390fd5b61079a85610792611514565b85840361151c565b60019150509392505050565b60006012905090565b600781815481106107bf57600080fd5b90600052602060002090600302016000915090508060000160009054906101000a900473ffffffffffffffffffffffffffffffffffffffff16908060010160009054906101000a900473ffffffffffffffffffffffffffffffffffffffff16908060020154905083565b60006108cb610836611514565b848460016000610844611514565b73ffffffffffffffffffffffffffffffffffffffff1673ffffffffffffffffffffffffffffffffffffffff16815260200190815260200160002060008873ffffffffffffffffffffffffffffffffffffffff1673ffffffffffffffffffffffffffffffffffffffff168152602001908152602001600020546108c69190612651565b61151c565b6001905092915050565b600080600090505b6005805490508110156109fb573373ffffffffffffffffffffffffffffffffffffffff16600582815481106109155761091461287c565b5b906000526020600020906003020160010160009054906101000a900473ffffffffffffffffffffffffffffffffffffffff1673ffffffffffffffffffffffffffffffffffffffff161480156109d957508260405160200161097691906122e9565b60405160208183030381529060405280519060200120600582815481106109a05761099f61287c565b5b90600052602060002090600302016002016040516020016109c19190612300565b60405160208183030381529060405280519060200120145b156109e8576001915050610a01565b80806109f3906127d5565b9150506108dd565b50600090505b919050565b600860009054906101000a900473ffffffffffffffffffffffffffffffffffffffff1673ffffffffffffffffffffffffffffffffffffffff163373ffffffffffffffffffffffffffffffffffffffff1614610a96576040517f08c379a0000000000000000000000000000000000000000000000000000000008152600401610a8d906124a9565b60405180910390fd5b610aa08282611968565b5050565b610aae3382611ac8565b50565b60005b600580549050811015610c6d573373ffffffffffffffffffffffffffffffffffffffff1660058281548110610aec57610aeb61287c565b5b906000526020600020906003020160010160009054906101000a900473ffffffffffffffffffffffffffffffffffffffff1673ffffffffffffffffffffffffffffffffffffffff161415610c5a57600660405180606001604052803373ffffffffffffffffffffffffffffffffffffffff1681526020018573ffffffffffffffffffffffffffffffffffffffff16815260200184815250908060018154018082558091505060019003906000526020600020906003020160009091909190915060008201518160000160006101000a81548173ffffffffffffffffffffffffffffffffffffffff021916908373ffffffffffffffffffffffffffffffffffffffff16021790555060208201518160010160006101000a81548173ffffffffffffffffffffffffffffffffffffffff021916908373ffffffffffffffffffffffffffffffffffffffff1602179055506040820151816002019080519060200190610c56929190611ca9565b5050505b8080610c65906127d5565b915050610ab4565b505050565b60008060008373ffffffffffffffffffffffffffffffffffffffff1673ffffffffffffffffffffffffffffffffffffffff168152602001908152602001600020549050919050565b606060048054610cc990612772565b80601f0160208091040260200160405190810160405280929190818152602001828054610cf590612772565b8015610d425780601f10610d1757610100808354040283529160200191610d42565b820191906000526020600020905b815481529060010190602001808311610d2557829003601f168201915b5050505050905090565b60008060016000610d5b611514565b73ffffffffffffffffffffffffffffffffffffffff1673ffffffffffffffffffffffffffffffffffffffff16815260200190815260200160002060008573ffffffffffffffffffffffffffffffffffffffff1673ffffffffffffffffffffffffffffffffffffffff16815260200190815260200160002054905082811015610e18576040517f08c379a0000000000000000000000000000000000000000000000000000000008152600401610e0f90612549565b60405180910390fd5b610e2c610e23611514565b8585840361151c565b600191505092915050565b6000806000905060005b6005805490508110156110a6573373ffffffffffffffffffffffffffffffffffffffff1660058281548110610e7957610e7861287c565b5b906000526020600020906003020160010160009054906101000a900473ffffffffffffffffffffffffffffffffffffffff1673ffffffffffffffffffffffffffffffffffffffff1614156110935760005b600580549050821015611091578573ffffffffffffffffffffffffffffffffffffffff1660058281548110610f0257610f0161287c565b5b906000526020600020906003020160010160009054906101000a900473ffffffffffffffffffffffffffffffffffffffff1673ffffffffffffffffffffffffffffffffffffffff16141561107e5760019250610f66610f5f611514565b87876116e7565b600760405180606001604052803373ffffffffffffffffffffffffffffffffffffffff1681526020018873ffffffffffffffffffffffffffffffffffffffff16815260200187815250908060018154018082558091505060019003906000526020600020906003020160009091909190915060008201518160000160006101000a81548173ffffffffffffffffffffffffffffffffffffffff021916908373ffffffffffffffffffffffffffffffffffffffff16021790555060208201518160010160006101000a81548173ffffffffffffffffffffffffffffffffffffffff021916908373ffffffffffffffffffffffffffffffffffffffff160217905550604082015181600201555050600193505050506110ad565b8180611089906127d5565b925050610eca565b505b808061109e906127d5565b915050610e41565b5060009150505b92915050565b600560405180606001604052808581526020018473ffffffffffffffffffffffffffffffffffffffff168152602001838152509080600181540180825580915050600190039060005260206000209060030201600090919091909150600082015181600001908051906020019061112b929190611ca9565b5060208201518160010160006101000a81548173ffffffffffffffffffffffffffffffffffffffff021916908373ffffffffffffffffffffffffffffffffffffffff160217905550604082015181600201908051906020019061118f929190611ca9565b505050505050565b6060600060606000600585815481106111b3576111b261287c565b5b90600052602060002090600302016040518060600160405290816000820180546111dc90612772565b80601f016020809104026020016040519081016040528092919081815260200182805461120890612772565b80156112555780601f1061122a57610100808354040283529160200191611255565b820191906000526020600020905b81548152906001019060200180831161123857829003601f168201915b505050505081526020016001820160009054906101000a900473ffffffffffffffffffffffffffffffffffffffff1673ffffffffffffffffffffffffffffffffffffffff1673ffffffffffffffffffffffffffffffffffffffff1681526020016002820180546112c490612772565b80601f01602080910402602001604051908101604052809291908181526020018280546112f090612772565b801561133d5780601f106113125761010080835404028352916020019161133d565b820191906000526020600020905b81548152906001019060200180831161132057829003601f168201915b5050505050815250509050806000015181602001518260400151935093509350509193909250565b6006818154811061137557600080fd5b90600052602060002090600302016000915090508060000160009054906101000a900473ffffffffffffffffffffffffffffffffffffffff16908060010160009054906101000a900473ffffffffffffffffffffffffffffffffffffffff16908060020180546113e490612772565b80601f016020809104026020016040519081016040528092919081815260200182805461141090612772565b801561145d5780601f106114325761010080835404028352916020019161145d565b820191906000526020600020905b81548152906001019060200180831161144057829003601f168201915b5050505050905083565b6000600160008473ffffffffffffffffffffffffffffffffffffffff1673ffffffffffffffffffffffffffffffffffffffff16815260200190815260200160002060008373ffffffffffffffffffffffffffffffffffffffff1673ffffffffffffffffffffffffffffffffffffffff16815260200190815260200160002054905092915050565b600860009054906101000a900473ffffffffffffffffffffffffffffffffffffffff1681565b600033905090565b600073ffffffffffffffffffffffffffffffffffffffff168373ffffffffffffffffffffffffffffffffffffffff16141561158c576040517f08c379a000000000000000000000000000000000000000000000000000000000815260040161158390612529565b60405180910390fd5b600073ffffffffffffffffffffffffffffffffffffffff168273ffffffffffffffffffffffffffffffffffffffff1614156115fc576040517f08c379a00000000000000000000000000000000000000000000000000000000081526004016115f390612469565b60405180910390fd5b80600160008573ffffffffffffffffffffffffffffffffffffffff1673ffffffffffffffffffffffffffffffffffffffff16815260200190815260200160002060008473ffffffffffffffffffffffffffffffffffffffff1673ffffffffffffffffffffffffffffffffffffffff168152602001908152602001600020819055508173ffffffffffffffffffffffffffffffffffffffff168373ffffffffffffffffffffffffffffffffffffffff167f8c5be1e5ebec7d5bd14f71427d1e84f3dd0314c0f7b2291e5b200ac8c7c3b925836040516116da9190612589565b60405180910390a3505050565b600073ffffffffffffffffffffffffffffffffffffffff168373ffffffffffffffffffffffffffffffffffffffff161415611757576040517f08c379a000000000000000000000000000000000000000000000000000000000815260040161174e90612509565b60405180910390fd5b600073ffffffffffffffffffffffffffffffffffffffff168273ffffffffffffffffffffffffffffffffffffffff1614156117c7576040517f08c379a00000000000000000000000000000000000000000000000000000000081526004016117be90612429565b60405180910390fd5b6117d2838383611c9f565b60008060008573ffffffffffffffffffffffffffffffffffffffff1673ffffffffffffffffffffffffffffffffffffffff16815260200190815260200160002054905081811015611858576040517f08c379a000000000000000000000000000000000000000000000000000000000815260040161184f90612489565b60405180910390fd5b8181036000808673ffffffffffffffffffffffffffffffffffffffff1673ffffffffffffffffffffffffffffffffffffffff16815260200190815260200160002081905550816000808573ffffffffffffffffffffffffffffffffffffffff1673ffffffffffffffffffffffffffffffffffffffff16815260200190815260200160002060008282546118eb9190612651565b925050819055508273ffffffffffffffffffffffffffffffffffffffff168473ffffffffffffffffffffffffffffffffffffffff167fddf252ad1be2c89b69c2b068fc378daa952ba7f163c4a11628f55a4df523b3ef8460405161194f9190612589565b60405180910390a3611962848484611ca4565b50505050565b600073ffffffffffffffffffffffffffffffffffffffff168273ffffffffffffffffffffffffffffffffffffffff1614156119d8576040517f08c379a00000000000000000000000000000000000000000000000000000000081526004016119cf90612569565b60405180910390fd5b6119e460008383611c9f565b80600260008282546119f69190612651565b92505081905550806000808473ffffffffffffffffffffffffffffffffffffffff1673ffffffffffffffffffffffffffffffffffffffff1681526020019081526020016000206000828254611a4b9190612651565b925050819055508173ffffffffffffffffffffffffffffffffffffffff16600073ffffffffffffffffffffffffffffffffffffffff167fddf252ad1be2c89b69c2b068fc378daa952ba7f163c4a11628f55a4df523b3ef83604051611ab09190612589565b60405180910390a3611ac460008383611ca4565b5050565b600073ffffffffffffffffffffffffffffffffffffffff168273ffffffffffffffffffffffffffffffffffffffff161415611b38576040517f08c379a0000000000000000000000000000000000000000000000000000000008152600401611b2f906124e9565b60405180910390fd5b611b4482600083611c9f565b60008060008473ffffffffffffffffffffffffffffffffffffffff1673ffffffffffffffffffffffffffffffffffffffff16815260200190815260200160002054905081811015611bca576040517f08c379a0000000000000000000000000000000000000000000000000000000008152600401611bc190612449565b60405180910390fd5b8181036000808573ffffffffffffffffffffffffffffffffffffffff1673ffffffffffffffffffffffffffffffffffffffff168152602001908152602001600020819055508160026000828254611c2191906126a7565b92505081905550600073ffffffffffffffffffffffffffffffffffffffff168373ffffffffffffffffffffffffffffffffffffffff167fddf252ad1be2c89b69c2b068fc378daa952ba7f163c4a11628f55a4df523b3ef84604051611c869190612589565b60405180910390a3611c9a83600084611ca4565b505050565b505050565b505050565b828054611cb590612772565b90600052602060002090601f016020900481019282611cd75760008555611d1e565b82601f10611cf057805160ff1916838001178555611d1e565b82800160010185558215611d1e579182015b82811115611d1d578251825591602001919060010190611d02565b5b509050611d2b9190611d2f565b5090565b5b80821115611d48576000816000905550600101611d30565b5090565b6000611d5f611d5a846125e4565b6125bf565b905082815260208101848484011115611d7b57611d7a6128df565b5b611d86848285612730565b509392505050565b600081359050611d9d81612c18565b92915050565b600082601f830112611db857611db76128da565b5b8135611dc8848260208601611d4c565b91505092915050565b600081359050611de081612c2f565b92915050565b600060208284031215611dfc57611dfb6128e9565b5b6000611e0a84828501611d8e565b91505092915050565b60008060408385031215611e2a57611e296128e9565b5b6000611e3885828601611d8e565b9250506020611e4985828601611d8e565b9150509250929050565b600080600060608486031215611e6c57611e6b6128e9565b5b6000611e7a86828701611d8e565b9350506020611e8b86828701611d8e565b9250506040611e9c86828701611dd1565b9150509250925092565b60008060408385031215611ebd57611ebc6128e9565b5b6000611ecb85828601611d8e565b925050602083013567ffffffffffffffff811115611eec57611eeb6128e4565b5b611ef885828601611da3565b9150509250929050565b60008060408385031215611f1957611f186128e9565b5b6000611f2785828601611d8e565b9250506020611f3885828601611dd1565b9150509250929050565b600060208284031215611f5857611f576128e9565b5b600082013567ffffffffffffffff811115611f7657611f756128e4565b5b611f8284828501611da3565b91505092915050565b600080600060608486031215611fa457611fa36128e9565b5b600084013567ffffffffffffffff811115611fc257611fc16128e4565b5b611fce86828701611da3565b9350506020611fdf86828701611d8e565b925050604084013567ffffffffffffffff81111561200057611fff6128e4565b5b61200c86828701611da3565b9150509250925092565b60006020828403121561202c5761202b6128e9565b5b600061203a84828501611dd1565b91505092915050565b61204c816126db565b82525050565b61205b816126ed565b82525050565b600061206c8261262a565b6120768185612635565b935061208681856020860161273f565b61208f816128ee565b840191505092915050565b60006120a58261262a565b6120af8185612646565b93506120bf81856020860161273f565b80840191505092915050565b600081546120d881612772565b6120e28186612646565b945060018216600081146120fd576001811461210e57612141565b60ff19831686528186019350612141565b61211785612615565b60005b838110156121395781548189015260018201915060208101905061211a565b838801955050505b50505092915050565b6000612157602383612635565b9150612162826128ff565b604082019050919050565b600061217a602283612635565b91506121858261294e565b604082019050919050565b600061219d602283612635565b91506121a88261299d565b604082019050919050565b60006121c0602683612635565b91506121cb826129ec565b604082019050919050565b60006121e3600a83612635565b91506121ee82612a3b565b602082019050919050565b6000612206602883612635565b915061221182612a64565b604082019050919050565b6000612229602183612635565b915061223482612ab3565b604082019050919050565b600061224c602583612635565b915061225782612b02565b604082019050919050565b600061226f602483612635565b915061227a82612b51565b604082019050919050565b6000612292602583612635565b915061229d82612ba0565b604082019050919050565b60006122b5601f83612635565b91506122c082612bef565b602082019050919050565b6122d481612719565b82525050565b6122e381612723565b82525050565b60006122f5828461209a565b915081905092915050565b600061230c82846120cb565b915081905092915050565b600060208201905061232c6000830184612043565b92915050565b60006060820190506123476000830186612043565b6123546020830185612043565b81810360408301526123668184612061565b9050949350505050565b60006060820190506123856000830186612043565b6123926020830185612043565b61239f60408301846122cb565b949350505050565b60006020820190506123bc6000830184612052565b92915050565b600060208201905081810360008301526123dc8184612061565b905092915050565b600060608201905081810360008301526123fe8186612061565b905061240d6020830185612043565b818103604083015261241f8184612061565b9050949350505050565b600060208201905081810360008301526124428161214a565b9050919050565b600060208201905081810360008301526124628161216d565b9050919050565b6000602082019050818103600083015261248281612190565b9050919050565b600060208201905081810360008301526124a2816121b3565b9050919050565b600060208201905081810360008301526124c2816121d6565b9050919050565b600060208201905081810360008301526124e2816121f9565b9050919050565b600060208201905081810360008301526125028161221c565b9050919050565b600060208201905081810360008301526125228161223f565b9050919050565b6000602082019050818103600083015261254281612262565b9050919050565b6000602082019050818103600083015261256281612285565b9050919050565b60006020820190508181036000830152612582816122a8565b9050919050565b600060208201905061259e60008301846122cb565b92915050565b60006020820190506125b960008301846122da565b92915050565b60006125c96125da565b90506125d582826127a4565b919050565b6000604051905090565b600067ffffffffffffffff8211156125ff576125fe6128ab565b5b612608826128ee565b9050602081019050919050565b60008190508160005260206000209050919050565b600081519050919050565b600082825260208201905092915050565b600081905092915050565b600061265c82612719565b915061266783612719565b9250827fffffffffffffffffffffffffffffffffffffffffffffffffffffffffffffffff0382111561269c5761269b61281e565b5b828201905092915050565b60006126b282612719565b91506126bd83612719565b9250828210156126d0576126cf61281e565b5b828203905092915050565b60006126e6826126f9565b9050919050565b60008115159050919050565b600073ffffffffffffffffffffffffffffffffffffffff82169050919050565b6000819050919050565b600060ff82169050919050565b82818337600083830152505050565b60005b8381101561275d578082015181840152602081019050612742565b8381111561276c576000848401525b50505050565b6000600282049050600182168061278a57607f821691505b6020821081141561279e5761279d61284d565b5b50919050565b6127ad826128ee565b810181811067ffffffffffffffff821117156127cc576127cb6128ab565b5b80604052505050565b60006127e082612719565b91507fffffffffffffffffffffffffffffffffffffffffffffffffffffffffffffffff8214156128135761281261281e565b5b600182019050919050565b7f4e487b7100000000000000000000000000000000000000000000000000000000600052601160045260246000fd5b7f4e487b7100000000000000000000000000000000000000000000000000000000600052602260045260246000fd5b7f4e487b7100000000000000000000000000000000000000000000000000000000600052603260045260246000fd5b7f4e487b7100000000000000000000000000000000000000000000000000000000600052604160045260246000fd5b600080fd5b600080fd5b600080fd5b600080fd5b6000601f19601f8301169050919050565b7f45524332303a207472616e7366657220746f20746865207a65726f206164647260008201527f6573730000000000000000000000000000000000000000000000000000000000602082015250565b7f45524332303a206275726e20616d6f756e7420657863656564732062616c616e60008201527f6365000000000000000000000000000000000000000000000000000000000000602082015250565b7f45524332303a20617070726f766520746f20746865207a65726f20616464726560008201527f7373000000000000000000000000000000000000000000000000000000000000602082015250565b7f45524332303a207472616e7366657220616d6f756e742065786365656473206260008201527f616c616e63650000000000000000000000000000000000000000000000000000602082015250565b7f6f6e6c792061646d696e00000000000000000000000000000000000000000000600082015250565b7f45524332303a207472616e7366657220616d6f756e742065786365656473206160008201527f6c6c6f77616e6365000000000000000000000000000000000000000000000000602082015250565b7f45524332303a206275726e2066726f6d20746865207a65726f2061646472657360008201527f7300000000000000000000000000000000000000000000000000000000000000602082015250565b7f45524332303a207472616e736665722066726f6d20746865207a65726f20616460008201527f6472657373000000000000000000000000000000000000000000000000000000602082015250565b7f45524332303a20617070726f76652066726f6d20746865207a65726f2061646460008201527f7265737300000000000000000000000000000000000000000000000000000000602082015250565b7f45524332303a2064656372656173656420616c6c6f77616e63652062656c6f7760008201527f207a65726f000000000000000000000000000000000000000000000000000000602082015250565b7f45524332303a206d696e7420746f20746865207a65726f206164647265737300600082015250565b612c21816126db565b8114612c2c57600080fd5b50565b612c3881612719565b8114612c4357600080fd5b5056fea2646970667358221220f51929d4d105c28c7db9f2b553db1a61415c66b4f67d8c70071059e28cdb5fc864736f6c63430008050033",
  "immutableReferences": {},
  "source": "// SPDX-License-Identifier: MIT\r\n\r\npragma solidity ^0.8.5;\r\n\r\nimport \"@openzeppelin/contracts/token/ERC20/ERC20.sol\";\r\n\r\n\r\ncontract HAT_TOKEN is ERC20 {\r\n    \r\n    struct User{\r\n        string name;\r\n        address user_crypto_id;\r\n        string password;\r\n    }\r\n    \r\n    struct Transaction{\r\n        address sender;\r\n        address reciver;\r\n        uint256 amount;\r\n    }\r\n    \r\n    struct Contact{\r\n        address owner;\r\n        address contact_name;\r\n        string name;\r\n    }\r\n\r\n    //event NewUser( string name, address user_crypto_id, string password);\r\n    \r\n    User[] public Users;\r\n    Contact[] public Contacts;\r\n    Transaction[] public Transactions;\r\n\r\n    \r\n    address public admin;\r\n    \r\n    constructor() ERC20('Hitaya Token', 'HAT'){\r\n        _mint(msg.sender, 1000000000 * 10 ** 18);\r\n    }\r\n    \r\n    \r\n    function mint(address to, uint amount) external {\r\n        require(msg.sender==admin, 'only admin');\r\n        _mint(to, amount);\r\n    }\r\n    \r\n    \r\n    function burn(uint amounnt) external {\r\n        _burn(msg.sender, amounnt);\r\n    }\r\n    \r\n    \r\n    function login(string memory _password) public view returns (bool){\r\n        for (uint i=0;i<Users.length;i++){\r\n            if (Users[i].user_crypto_id==msg.sender && keccak256(abi.encodePacked(Users[i].password))==keccak256(abi.encodePacked(_password))){\r\n                return true;\r\n            }\r\n        }\r\n        return false;\r\n    }\r\n\r\n    \r\n    function _create_New_User(string memory _name, address _user_crypto_id, string memory _password) public {\r\n        Users.push(User( _name, _user_crypto_id, _password));\r\n\t//emit NewUser(_name, _user_crypto_id, _password);\r\n       \r\n    }\r\n    \r\n    \r\n    function _create_New_Contact(address _contact_name, string memory _name) public {\r\n        for (uint i=0;i<Users.length;i++){\r\n            if(Users[i].user_crypto_id==msg.sender){\r\n                Contacts.push(Contact( msg.sender, _contact_name, _name));\r\n            }\r\n        }\r\n    }\r\n    \r\n    \r\n    function transfer(address recipient, uint256 amount) public virtual override returns (bool) {\r\n        bool key = false;\r\n        for (uint i=0;i<Users.length;i++){\r\n            if(Users[i].user_crypto_id==msg.sender){\r\n                for (uint j=0;i<Users.length;i++){\r\n                    if(Users[j].user_crypto_id==recipient){\r\n                        key = true;\r\n                        _transfer(_msgSender(), recipient, amount);\r\n                        Transactions.push(Transaction( msg.sender, recipient, amount));\r\n                        return true;\r\n                    }\r\n                }\r\n            }\r\n        }\r\n        return false;\r\n    }\r\n    \r\n    \r\n    function user_view(uint id) public view returns (string memory ,address , string memory)\r\n    {\r\n        User memory p = Users[id];\r\n        return (p.name,p.user_crypto_id,p.password); // return multiple values like this\r\n    }\r\n    \r\n    \r\n    // function get_transaction_details() public view returns (Transactions[] memory){\r\n    //     Transactions[] memory Transactions_Detail= new Transactions[](Transactions.length);\r\n    //     uint count=0;\r\n    //     for (uint i=0;i<Transactions.length;i++){\r\n    //         if (Transactions[i].sender==msg.sender){\r\n    //             Transactions_Detail[count].push([Transactions[i].sender,Transaction[i].recipient,Transactions[i].amount]);\r\n    //             count++;\r\n    //         }\r\n    //     }\r\n    //     return Transactions_Detail;\r\n    // }\r\n    \r\n}\r\n",
  "sourcePath": "C:\\Users\\ZEUS\\Desktop\\Hitaya\\truffle\\contracts\\HAT_TOKEN.sol",
  "compiler": {
    "name": "solc",
    "version": "0.8.5+commit.a4f2e591.Emscripten.clang"
  },
  "schemaVersion": "3.4.3",
  "updatedAt": "2021-08-26T11:46:57.066Z",
  "networkType": "ethereum",
  "devdoc": {
    "kind": "dev",
    "methods": {
      "allowance(address,address)": {
        "details": "See {IERC20-allowance}."
      },
      "approve(address,uint256)": {
        "details": "See {IERC20-approve}. Requirements: - `spender` cannot be the zero address."
      },
      "balanceOf(address)": {
        "details": "See {IERC20-balanceOf}."
      },
      "decimals()": {
        "details": "Returns the number of decimals used to get its user representation. For example, if `decimals` equals `2`, a balance of `505` tokens should be displayed to a user as `5.05` (`505 / 10 ** 2`). Tokens usually opt for a value of 18, imitating the relationship between Ether and Wei. This is the value {ERC20} uses, unless this function is overridden; NOTE: This information is only used for _display_ purposes: it in no way affects any of the arithmetic of the contract, including {IERC20-balanceOf} and {IERC20-transfer}."
      },
      "decreaseAllowance(address,uint256)": {
        "details": "Atomically decreases the allowance granted to `spender` by the caller. This is an alternative to {approve} that can be used as a mitigation for problems described in {IERC20-approve}. Emits an {Approval} event indicating the updated allowance. Requirements: - `spender` cannot be the zero address. - `spender` must have allowance for the caller of at least `subtractedValue`."
      },
      "increaseAllowance(address,uint256)": {
        "details": "Atomically increases the allowance granted to `spender` by the caller. This is an alternative to {approve} that can be used as a mitigation for problems described in {IERC20-approve}. Emits an {Approval} event indicating the updated allowance. Requirements: - `spender` cannot be the zero address."
      },
      "name()": {
        "details": "Returns the name of the token."
      },
      "symbol()": {
        "details": "Returns the symbol of the token, usually a shorter version of the name."
      },
      "totalSupply()": {
        "details": "See {IERC20-totalSupply}."
      },
      "transfer(address,uint256)": {
        "details": "See {IERC20-transfer}. Requirements: - `recipient` cannot be the zero address. - the caller must have a balance of at least `amount`."
      },
      "transferFrom(address,address,uint256)": {
        "details": "See {IERC20-transferFrom}. Emits an {Approval} event indicating the updated allowance. This is not required by the EIP. See the note at the beginning of {ERC20}. Requirements: - `sender` and `recipient` cannot be the zero address. - `sender` must have a balance of at least `amount`. - the caller must have allowance for ``sender``'s tokens of at least `amount`."
      }
    },
    "version": 1
  },
  "userdoc": {
    "kind": "user",
    "methods": {},
    "version": 1
  }
}