{
  "contractName": "HAT_TOKEN",
  "abi": [
    {
      "inputs": [],
      "stateMutability": "nonpayable",
      "type": "constructor"
    },
    {
      "anonymous": false,
      "inputs": [
        {
          "indexed": true,
          "internalType": "address",
          "name": "owner",
          "type": "address"
        },
        {
          "indexed": true,
          "internalType": "address",
          "name": "spender",
          "type": "address"
        },
        {
          "indexed": false,
          "internalType": "uint256",
          "name": "value",
          "type": "uint256"
        }
      ],
      "name": "Approval",
      "type": "event"
    },
    {
      "anonymous": false,
      "inputs": [
        {
          "indexed": false,
          "internalType": "string",
          "name": "name",
          "type": "string"
        },
        {
          "indexed": false,
          "internalType": "address",
          "name": "user_crypto_id",
          "type": "address"
        },
        {
          "indexed": false,
          "internalType": "string",
          "name": "password",
          "type": "string"
        }
      ],
      "name": "NewUser",
      "type": "event"
    },
    {
      "anonymous": false,
      "inputs": [
        {
          "indexed": true,
          "internalType": "address",
          "name": "from",
          "type": "address"
        },
        {
          "indexed": true,
          "internalType": "address",
          "name": "to",
          "type": "address"
        },
        {
          "indexed": false,
          "internalType": "uint256",
          "name": "value",
          "type": "uint256"
        }
      ],
      "name": "Transfer",
      "type": "event"
    },
    {
      "inputs": [
        {
          "internalType": "uint256",
          "name": "",
          "type": "uint256"
        }
      ],
      "name": "Contacts",
      "outputs": [
        {
          "internalType": "address",
          "name": "owner",
          "type": "address"
        },
        {
          "internalType": "address",
          "name": "contact_name",
          "type": "address"
        },
        {
          "internalType": "string",
          "name": "name",
          "type": "string"
        }
      ],
      "stateMutability": "view",
      "type": "function",
      "constant": true
    },
    {
      "inputs": [
        {
          "internalType": "uint256",
          "name": "",
          "type": "uint256"
        }
      ],
      "name": "Transactions",
      "outputs": [
        {
          "internalType": "address",
          "name": "sender",
          "type": "address"
        },
        {
          "internalType": "address",
          "name": "reciver",
          "type": "address"
        },
        {
          "internalType": "uint256",
          "name": "amount",
          "type": "uint256"
        }
      ],
      "stateMutability": "view",
      "type": "function",
      "constant": true
    },
    {
      "inputs": [
        {
          "internalType": "uint256",
          "name": "",
          "type": "uint256"
        }
      ],
      "name": "Users",
      "outputs": [
        {
          "internalType": "string",
          "name": "name",
          "type": "string"
        },
        {
          "internalType": "address",
          "name": "user_crypto_id",
          "type": "address"
        },
        {
          "internalType": "string",
          "name": "password",
          "type": "string"
        }
      ],
      "stateMutability": "view",
      "type": "function",
      "constant": true
    },
    {
      "inputs": [],
      "name": "admin",
      "outputs": [
        {
          "internalType": "address",
          "name": "",
          "type": "address"
        }
      ],
      "stateMutability": "view",
      "type": "function",
      "constant": true
    },
    {
      "inputs": [
        {
          "internalType": "address",
          "name": "owner",
          "type": "address"
        },
        {
          "internalType": "address",
          "name": "spender",
          "type": "address"
        }
      ],
      "name": "allowance",
      "outputs": [
        {
          "internalType": "uint256",
          "name": "",
          "type": "uint256"
        }
      ],
      "stateMutability": "view",
      "type": "function",
      "constant": true
    },
    {
      "inputs": [
        {
          "internalType": "address",
          "name": "spender",
          "type": "address"
        },
        {
          "internalType": "uint256",
          "name": "amount",
          "type": "uint256"
        }
      ],
      "name": "approve",
      "outputs": [
        {
          "internalType": "bool",
          "name": "",
          "type": "bool"
        }
      ],
      "stateMutability": "nonpayable",
      "type": "function"
    },
    {
      "inputs": [
        {
          "internalType": "address",
          "name": "account",
          "type": "address"
        }
      ],
      "name": "balanceOf",
      "outputs": [
        {
          "internalType": "uint256",
          "name": "",
          "type": "uint256"
        }
      ],
      "stateMutability": "view",
      "type": "function",
      "constant": true
    },
    {
      "inputs": [],
      "name": "decimals",
      "outputs": [
        {
          "internalType": "uint8",
          "name": "",
          "type": "uint8"
        }
      ],
      "stateMutability": "view",
      "type": "function",
      "constant": true
    },
    {
      "inputs": [
        {
          "internalType": "address",
          "name": "spender",
          "type": "address"
        },
        {
          "internalType": "uint256",
          "name": "subtractedValue",
          "type": "uint256"
        }
      ],
      "name": "decreaseAllowance",
      "outputs": [
        {
          "internalType": "bool",
          "name": "",
          "type": "bool"
        }
      ],
      "stateMutability": "nonpayable",
      "type": "function"
    },
    {
      "inputs": [
        {
          "internalType": "address",
          "name": "spender",
          "type": "address"
        },
        {
          "internalType": "uint256",
          "name": "addedValue",
          "type": "uint256"
        }
      ],
      "name": "increaseAllowance",
      "outputs": [
        {
          "internalType": "bool",
          "name": "",
          "type": "bool"
        }
      ],
      "stateMutability": "nonpayable",
      "type": "function"
    },
    {
      "inputs": [],
      "name": "name",
      "outputs": [
        {
          "internalType": "string",
          "name": "",
          "type": "string"
        }
      ],
      "stateMutability": "view",
      "type": "function",
      "constant": true
    },
    {
      "inputs": [],
      "name": "symbol",
      "outputs": [
        {
          "internalType": "string",
          "name": "",
          "type": "string"
        }
      ],
      "stateMutability": "view",
      "type": "function",
      "constant": true
    },
    {
      "inputs": [],
      "name": "totalSupply",
      "outputs": [
        {
          "internalType": "uint256",
          "name": "",
          "type": "uint256"
        }
      ],
      "stateMutability": "view",
      "type": "function",
      "constant": true
    },
    {
      "inputs": [
        {
          "internalType": "address",
          "name": "sender",
          "type": "address"
        },
        {
          "internalType": "address",
          "name": "recipient",
          "type": "address"
        },
        {
          "internalType": "uint256",
          "name": "amount",
          "type": "uint256"
        }
      ],
      "name": "transferFrom",
      "outputs": [
        {
          "internalType": "bool",
          "name": "",
          "type": "bool"
        }
      ],
      "stateMutability": "nonpayable",
      "type": "function"
    },
    {
      "inputs": [
        {
          "internalType": "address",
          "name": "to",
          "type": "address"
        },
        {
          "internalType": "uint256",
          "name": "amount",
          "type": "uint256"
        }
      ],
      "name": "mint",
      "outputs": [],
      "stateMutability": "nonpayable",
      "type": "function"
    },
    {
      "inputs": [
        {
          "internalType": "uint256",
          "name": "amounnt",
          "type": "uint256"
        }
      ],
      "name": "burn",
      "outputs": [],
      "stateMutability": "nonpayable",
      "type": "function"
    },
    {
      "inputs": [
        {
          "internalType": "string",
          "name": "_password",
          "type": "string"
        }
      ],
      "name": "login",
      "outputs": [
        {
          "internalType": "bool",
          "name": "",
          "type": "bool"
        }
      ],
      "stateMutability": "view",
      "type": "function",
      "constant": true
    },
    {
      "inputs": [
        {
          "internalType": "string",
          "name": "_name",
          "type": "string"
        },
        {
          "internalType": "address",
          "name": "_user_crypto_id",
          "type": "address"
        },
        {
          "internalType": "string",
          "name": "_password",
          "type": "string"
        }
      ],
      "name": "_create_New_User",
      "outputs": [],
      "stateMutability": "nonpayable",
      "type": "function"
    },
    {
      "inputs": [
        {
          "internalType": "address",
          "name": "_contact_name",
          "type": "address"
        },
        {
          "internalType": "string",
          "name": "_name",
          "type": "string"
        }
      ],
      "name": "_create_New_Contact",
      "outputs": [],
      "stateMutability": "nonpayable",
      "type": "function"
    },
    {
      "inputs": [
        {
          "internalType": "address",
          "name": "recipient",
          "type": "address"
        },
        {
          "internalType": "uint256",
          "name": "amount",
          "type": "uint256"
        }
      ],
      "name": "transfer",
      "outputs": [
        {
          "internalType": "bool",
          "name": "",
          "type": "bool"
        }
      ],
      "stateMutability": "nonpayable",
      "type": "function"
    }
  ],
  "bytecode": "0x60806040523480156200001157600080fd5b506040518060400160405280600c81526020017f48697461796120546f6b656e00000000000000000000000000000000000000008152506040518060400160405280600381526020017f484154000000000000000000000000000000000000000000000000000000000081525081600390805190602001906200009692919062000259565b508060049080519060200190620000af92919062000259565b505050620000d0336b033b2e3c9fd0803ce8000000620000d660201b60201c565b620004b5565b600073ffffffffffffffffffffffffffffffffffffffff168273ffffffffffffffffffffffffffffffffffffffff16141562000149576040517f08c379a0000000000000000000000000000000000000000000000000000000008152600401620001409062000341565b60405180910390fd5b6200015d600083836200024f60201b60201c565b806002600082825462000171919062000391565b92505081905550806000808473ffffffffffffffffffffffffffffffffffffffff1673ffffffffffffffffffffffffffffffffffffffff1681526020019081526020016000206000828254620001c8919062000391565b925050819055508173ffffffffffffffffffffffffffffffffffffffff16600073ffffffffffffffffffffffffffffffffffffffff167fddf252ad1be2c89b69c2b068fc378daa952ba7f163c4a11628f55a4df523b3ef836040516200022f919062000363565b60405180910390a36200024b600083836200025460201b60201c565b5050565b505050565b505050565b8280546200026790620003f8565b90600052602060002090601f0160209004810192826200028b5760008555620002d7565b82601f10620002a657805160ff1916838001178555620002d7565b82800160010185558215620002d7579182015b82811115620002d6578251825591602001919060010190620002b9565b5b509050620002e69190620002ea565b5090565b5b8082111562000305576000816000905550600101620002eb565b5090565b600062000318601f8362000380565b915062000325826200048c565b602082019050919050565b6200033b81620003ee565b82525050565b600060208201905081810360008301526200035c8162000309565b9050919050565b60006020820190506200037a600083018462000330565b92915050565b600082825260208201905092915050565b60006200039e82620003ee565b9150620003ab83620003ee565b9250827fffffffffffffffffffffffffffffffffffffffffffffffffffffffffffffffff03821115620003e357620003e26200042e565b5b828201905092915050565b6000819050919050565b600060028204905060018216806200041157607f821691505b602082108114156200042857620004276200045d565b5b50919050565b7f4e487b7100000000000000000000000000000000000000000000000000000000600052601160045260246000fd5b7f4e487b7100000000000000000000000000000000000000000000000000000000600052602260045260246000fd5b7f45524332303a206d696e7420746f20746865207a65726f206164647265737300600082015250565b612aac80620004c56000396000f3fe608060405234801561001057600080fd5b506004361061012c5760003560e01c806342966c68116100ad578063a9059cbb11610071578063a9059cbb14610381578063cf224e8a146103b1578063da2e6c87146103cd578063dd62ed3e146103ff578063f851a4401461042f5761012c565b806342966c68146102cb57806345bd3a95146102e757806370a082311461030357806395d89b4114610333578063a457c2d7146103515761012c565b8063313ce567116100f4578063313ce567146101ff57806334008b161461021d578063395093511461024f5780633a7d280c1461027f57806340c10f19146102af5761012c565b806306fdde0314610131578063095ea7b31461014f57806318160ddd1461017f5780631e98fd1c1461019d57806323b872dd146101cf575b600080fd5b61013961044d565b60405161014691906121f2565b60405180910390f35b61016960048036038101906101649190611d32565b6104df565b60405161017691906121d7565b60405180910390f35b6101876104fd565b60405161019491906123b9565b60405180910390f35b6101b760048036038101906101b29190611e46565b610507565b6040516101c693929190612214565b60405180910390f35b6101e960048036038101906101e49190611c83565b610671565b6040516101f691906121d7565b60405180910390f35b610207610769565b60405161021491906123d4565b60405180910390f35b61023760048036038101906102329190611e46565b610772565b604051610246939291906121a0565b60405180910390f35b61026960048036038101906102649190611d32565b6107ec565b60405161027691906121d7565b60405180910390f35b61029960048036038101906102949190611d72565b610898565b6040516102a691906121d7565b60405180910390f35b6102c960048036038101906102c49190611d32565b6109c9565b005b6102e560048036038101906102e09190611e46565b610a67565b005b61030160048036038101906102fc9190611cd6565b610a74565b005b61031d60048036038101906103189190611c16565b610c35565b60405161032a91906123b9565b60405180910390f35b61033b610c7d565b60405161034891906121f2565b60405180910390f35b61036b60048036038101906103669190611d32565b610d0f565b60405161037891906121d7565b60405180910390f35b61039b60048036038101906103969190611d32565b610dfa565b6040516103a891906121d7565b60405180910390f35b6103cb60048036038101906103c69190611dbb565b611076565b005b6103e760048036038101906103e29190611e46565b611195565b6040516103f693929190612162565b60405180910390f35b61041960048036038101906104149190611c43565b611297565b60405161042691906123b9565b60405180910390f35b61043761131e565b6040516104449190612147565b60405180910390f35b60606003805461045c906125a2565b80601f0160208091040260200160405190810160405280929190818152602001828054610488906125a2565b80156104d55780601f106104aa576101008083540402835291602001916104d5565b820191906000526020600020905b8154815290600101906020018083116104b857829003601f168201915b5050505050905090565b60006104f36104ec611344565b848461134c565b6001905092915050565b6000600254905090565b6005818154811061051757600080fd5b906000526020600020906003020160009150905080600001805461053a906125a2565b80601f0160208091040260200160405190810160405280929190818152602001828054610566906125a2565b80156105b35780601f10610588576101008083540402835291602001916105b3565b820191906000526020600020905b81548152906001019060200180831161059657829003601f168201915b5050505050908060010160009054906101000a900473ffffffffffffffffffffffffffffffffffffffff16908060020180546105ee906125a2565b80601f016020809104026020016040519081016040528092919081815260200182805461061a906125a2565b80156106675780601f1061063c57610100808354040283529160200191610667565b820191906000526020600020905b81548152906001019060200180831161064a57829003601f168201915b5050505050905083565b600061067e848484611517565b6000600160008673ffffffffffffffffffffffffffffffffffffffff1673ffffffffffffffffffffffffffffffffffffffff16815260200190815260200160002060006106c9611344565b73ffffffffffffffffffffffffffffffffffffffff1673ffffffffffffffffffffffffffffffffffffffff16815260200190815260200160002054905082811015610749576040517f08c379a0000000000000000000000000000000000000000000000000000000008152600401610740906122f9565b60405180910390fd5b61075d85610755611344565b85840361134c565b60019150509392505050565b60006012905090565b6007818154811061078257600080fd5b90600052602060002090600302016000915090508060000160009054906101000a900473ffffffffffffffffffffffffffffffffffffffff16908060010160009054906101000a900473ffffffffffffffffffffffffffffffffffffffff16908060020154905083565b600061088e6107f9611344565b848460016000610807611344565b73ffffffffffffffffffffffffffffffffffffffff1673ffffffffffffffffffffffffffffffffffffffff16815260200190815260200160002060008873ffffffffffffffffffffffffffffffffffffffff1673ffffffffffffffffffffffffffffffffffffffff168152602001908152602001600020546108899190612481565b61134c565b6001905092915050565b600080600090505b6005805490508110156109be573373ffffffffffffffffffffffffffffffffffffffff16600582815481106108d8576108d76126ac565b5b906000526020600020906003020160010160009054906101000a900473ffffffffffffffffffffffffffffffffffffffff1673ffffffffffffffffffffffffffffffffffffffff1614801561099c5750826040516020016109399190612119565b6040516020818303038152906040528051906020012060058281548110610963576109626126ac565b5b90600052602060002090600302016002016040516020016109849190612130565b60405160208183030381529060405280519060200120145b156109ab5760019150506109c4565b80806109b690612605565b9150506108a0565b50600090505b919050565b600860009054906101000a900473ffffffffffffffffffffffffffffffffffffffff1673ffffffffffffffffffffffffffffffffffffffff163373ffffffffffffffffffffffffffffffffffffffff1614610a59576040517f08c379a0000000000000000000000000000000000000000000000000000000008152600401610a50906122d9565b60405180910390fd5b610a638282611798565b5050565b610a7133826118f8565b50565b60005b600580549050811015610c30573373ffffffffffffffffffffffffffffffffffffffff1660058281548110610aaf57610aae6126ac565b5b906000526020600020906003020160010160009054906101000a900473ffffffffffffffffffffffffffffffffffffffff1673ffffffffffffffffffffffffffffffffffffffff161415610c1d57600660405180606001604052803373ffffffffffffffffffffffffffffffffffffffff1681526020018573ffffffffffffffffffffffffffffffffffffffff16815260200184815250908060018154018082558091505060019003906000526020600020906003020160009091909190915060008201518160000160006101000a81548173ffffffffffffffffffffffffffffffffffffffff021916908373ffffffffffffffffffffffffffffffffffffffff16021790555060208201518160010160006101000a81548173ffffffffffffffffffffffffffffffffffffffff021916908373ffffffffffffffffffffffffffffffffffffffff1602179055506040820151816002019080519060200190610c19929190611ad9565b5050505b8080610c2890612605565b915050610a77565b505050565b60008060008373ffffffffffffffffffffffffffffffffffffffff1673ffffffffffffffffffffffffffffffffffffffff168152602001908152602001600020549050919050565b606060048054610c8c906125a2565b80601f0160208091040260200160405190810160405280929190818152602001828054610cb8906125a2565b8015610d055780601f10610cda57610100808354040283529160200191610d05565b820191906000526020600020905b815481529060010190602001808311610ce857829003601f168201915b5050505050905090565b60008060016000610d1e611344565b73ffffffffffffffffffffffffffffffffffffffff1673ffffffffffffffffffffffffffffffffffffffff16815260200190815260200160002060008573ffffffffffffffffffffffffffffffffffffffff1673ffffffffffffffffffffffffffffffffffffffff16815260200190815260200160002054905082811015610ddb576040517f08c379a0000000000000000000000000000000000000000000000000000000008152600401610dd290612379565b60405180910390fd5b610def610de6611344565b8585840361134c565b600191505092915050565b6000806000905060005b600580549050811015611069573373ffffffffffffffffffffffffffffffffffffffff1660058281548110610e3c57610e3b6126ac565b5b906000526020600020906003020160010160009054906101000a900473ffffffffffffffffffffffffffffffffffffffff1673ffffffffffffffffffffffffffffffffffffffff1614156110565760005b600580549050821015611054578573ffffffffffffffffffffffffffffffffffffffff1660058281548110610ec557610ec46126ac565b5b906000526020600020906003020160010160009054906101000a900473ffffffffffffffffffffffffffffffffffffffff1673ffffffffffffffffffffffffffffffffffffffff1614156110415760019250610f29610f22611344565b8787611517565b600760405180606001604052803373ffffffffffffffffffffffffffffffffffffffff1681526020018873ffffffffffffffffffffffffffffffffffffffff16815260200187815250908060018154018082558091505060019003906000526020600020906003020160009091909190915060008201518160000160006101000a81548173ffffffffffffffffffffffffffffffffffffffff021916908373ffffffffffffffffffffffffffffffffffffffff16021790555060208201518160010160006101000a81548173ffffffffffffffffffffffffffffffffffffffff021916908373ffffffffffffffffffffffffffffffffffffffff16021790555060408201518160020155505060019350505050611070565b818061104c90612605565b925050610e8d565b505b808061106190612605565b915050610e04565b5060009150505b92915050565b600560405180606001604052808581526020018473ffffffffffffffffffffffffffffffffffffffff16815260200183815250908060018154018082558091505060019003906000526020600020906003020160009091909190915060008201518160000190805190602001906110ee929190611ad9565b5060208201518160010160006101000a81548173ffffffffffffffffffffffffffffffffffffffff021916908373ffffffffffffffffffffffffffffffffffffffff1602179055506040820151816002019080519060200190611152929190611ad9565b5050507f24688d6c39da363233cb0882939cf0f71354fd4a8050accf45e1d2a8e60bb46c83838360405161118893929190612214565b60405180910390a1505050565b600681815481106111a557600080fd5b90600052602060002090600302016000915090508060000160009054906101000a900473ffffffffffffffffffffffffffffffffffffffff16908060010160009054906101000a900473ffffffffffffffffffffffffffffffffffffffff1690806002018054611214906125a2565b80601f0160208091040260200160405190810160405280929190818152602001828054611240906125a2565b801561128d5780601f106112625761010080835404028352916020019161128d565b820191906000526020600020905b81548152906001019060200180831161127057829003601f168201915b5050505050905083565b6000600160008473ffffffffffffffffffffffffffffffffffffffff1673ffffffffffffffffffffffffffffffffffffffff16815260200190815260200160002060008373ffffffffffffffffffffffffffffffffffffffff1673ffffffffffffffffffffffffffffffffffffffff16815260200190815260200160002054905092915050565b600860009054906101000a900473ffffffffffffffffffffffffffffffffffffffff1681565b600033905090565b600073ffffffffffffffffffffffffffffffffffffffff168373ffffffffffffffffffffffffffffffffffffffff1614156113bc576040517f08c379a00000000000000000000000000000000000000000000000000000000081526004016113b390612359565b60405180910390fd5b600073ffffffffffffffffffffffffffffffffffffffff168273ffffffffffffffffffffffffffffffffffffffff16141561142c576040517f08c379a000000000000000000000000000000000000000000000000000000000815260040161142390612299565b60405180910390fd5b80600160008573ffffffffffffffffffffffffffffffffffffffff1673ffffffffffffffffffffffffffffffffffffffff16815260200190815260200160002060008473ffffffffffffffffffffffffffffffffffffffff1673ffffffffffffffffffffffffffffffffffffffff168152602001908152602001600020819055508173ffffffffffffffffffffffffffffffffffffffff168373ffffffffffffffffffffffffffffffffffffffff167f8c5be1e5ebec7d5bd14f71427d1e84f3dd0314c0f7b2291e5b200ac8c7c3b9258360405161150a91906123b9565b60405180910390a3505050565b600073ffffffffffffffffffffffffffffffffffffffff168373ffffffffffffffffffffffffffffffffffffffff161415611587576040517f08c379a000000000000000000000000000000000000000000000000000000000815260040161157e90612339565b60405180910390fd5b600073ffffffffffffffffffffffffffffffffffffffff168273ffffffffffffffffffffffffffffffffffffffff1614156115f7576040517f08c379a00000000000000000000000000000000000000000000000000000000081526004016115ee90612259565b60405180910390fd5b611602838383611acf565b60008060008573ffffffffffffffffffffffffffffffffffffffff1673ffffffffffffffffffffffffffffffffffffffff16815260200190815260200160002054905081811015611688576040517f08c379a000000000000000000000000000000000000000000000000000000000815260040161167f906122b9565b60405180910390fd5b8181036000808673ffffffffffffffffffffffffffffffffffffffff1673ffffffffffffffffffffffffffffffffffffffff16815260200190815260200160002081905550816000808573ffffffffffffffffffffffffffffffffffffffff1673ffffffffffffffffffffffffffffffffffffffff168152602001908152602001600020600082825461171b9190612481565b925050819055508273ffffffffffffffffffffffffffffffffffffffff168473ffffffffffffffffffffffffffffffffffffffff167fddf252ad1be2c89b69c2b068fc378daa952ba7f163c4a11628f55a4df523b3ef8460405161177f91906123b9565b60405180910390a3611792848484611ad4565b50505050565b600073ffffffffffffffffffffffffffffffffffffffff168273ffffffffffffffffffffffffffffffffffffffff161415611808576040517f08c379a00000000000000000000000000000000000000000000000000000000081526004016117ff90612399565b60405180910390fd5b61181460008383611acf565b80600260008282546118269190612481565b92505081905550806000808473ffffffffffffffffffffffffffffffffffffffff1673ffffffffffffffffffffffffffffffffffffffff168152602001908152602001600020600082825461187b9190612481565b925050819055508173ffffffffffffffffffffffffffffffffffffffff16600073ffffffffffffffffffffffffffffffffffffffff167fddf252ad1be2c89b69c2b068fc378daa952ba7f163c4a11628f55a4df523b3ef836040516118e091906123b9565b60405180910390a36118f460008383611ad4565b5050565b600073ffffffffffffffffffffffffffffffffffffffff168273ffffffffffffffffffffffffffffffffffffffff161415611968576040517f08c379a000000000000000000000000000000000000000000000000000000000815260040161195f90612319565b60405180910390fd5b61197482600083611acf565b60008060008473ffffffffffffffffffffffffffffffffffffffff1673ffffffffffffffffffffffffffffffffffffffff168152602001908152602001600020549050818110156119fa576040517f08c379a00000000000000000000000000000000000000000000000000000000081526004016119f190612279565b60405180910390fd5b8181036000808573ffffffffffffffffffffffffffffffffffffffff1673ffffffffffffffffffffffffffffffffffffffff168152602001908152602001600020819055508160026000828254611a5191906124d7565b92505081905550600073ffffffffffffffffffffffffffffffffffffffff168373ffffffffffffffffffffffffffffffffffffffff167fddf252ad1be2c89b69c2b068fc378daa952ba7f163c4a11628f55a4df523b3ef84604051611ab691906123b9565b60405180910390a3611aca83600084611ad4565b505050565b505050565b505050565b828054611ae5906125a2565b90600052602060002090601f016020900481019282611b075760008555611b4e565b82601f10611b2057805160ff1916838001178555611b4e565b82800160010185558215611b4e579182015b82811115611b4d578251825591602001919060010190611b32565b5b509050611b5b9190611b5f565b5090565b5b80821115611b78576000816000905550600101611b60565b5090565b6000611b8f611b8a84612414565b6123ef565b905082815260208101848484011115611bab57611baa61270f565b5b611bb6848285612560565b509392505050565b600081359050611bcd81612a48565b92915050565b600082601f830112611be857611be761270a565b5b8135611bf8848260208601611b7c565b91505092915050565b600081359050611c1081612a5f565b92915050565b600060208284031215611c2c57611c2b612719565b5b6000611c3a84828501611bbe565b91505092915050565b60008060408385031215611c5a57611c59612719565b5b6000611c6885828601611bbe565b9250506020611c7985828601611bbe565b9150509250929050565b600080600060608486031215611c9c57611c9b612719565b5b6000611caa86828701611bbe565b9350506020611cbb86828701611bbe565b9250506040611ccc86828701611c01565b9150509250925092565b60008060408385031215611ced57611cec612719565b5b6000611cfb85828601611bbe565b925050602083013567ffffffffffffffff811115611d1c57611d1b612714565b5b611d2885828601611bd3565b9150509250929050565b60008060408385031215611d4957611d48612719565b5b6000611d5785828601611bbe565b9250506020611d6885828601611c01565b9150509250929050565b600060208284031215611d8857611d87612719565b5b600082013567ffffffffffffffff811115611da657611da5612714565b5b611db284828501611bd3565b91505092915050565b600080600060608486031215611dd457611dd3612719565b5b600084013567ffffffffffffffff811115611df257611df1612714565b5b611dfe86828701611bd3565b9350506020611e0f86828701611bbe565b925050604084013567ffffffffffffffff811115611e3057611e2f612714565b5b611e3c86828701611bd3565b9150509250925092565b600060208284031215611e5c57611e5b612719565b5b6000611e6a84828501611c01565b91505092915050565b611e7c8161250b565b82525050565b611e8b8161251d565b82525050565b6000611e9c8261245a565b611ea68185612465565b9350611eb681856020860161256f565b611ebf8161271e565b840191505092915050565b6000611ed58261245a565b611edf8185612476565b9350611eef81856020860161256f565b80840191505092915050565b60008154611f08816125a2565b611f128186612476565b94506001821660008114611f2d5760018114611f3e57611f71565b60ff19831686528186019350611f71565b611f4785612445565b60005b83811015611f6957815481890152600182019150602081019050611f4a565b838801955050505b50505092915050565b6000611f87602383612465565b9150611f928261272f565b604082019050919050565b6000611faa602283612465565b9150611fb58261277e565b604082019050919050565b6000611fcd602283612465565b9150611fd8826127cd565b604082019050919050565b6000611ff0602683612465565b9150611ffb8261281c565b604082019050919050565b6000612013600a83612465565b915061201e8261286b565b602082019050919050565b6000612036602883612465565b915061204182612894565b604082019050919050565b6000612059602183612465565b9150612064826128e3565b604082019050919050565b600061207c602583612465565b915061208782612932565b604082019050919050565b600061209f602483612465565b91506120aa82612981565b604082019050919050565b60006120c2602583612465565b91506120cd826129d0565b604082019050919050565b60006120e5601f83612465565b91506120f082612a1f565b602082019050919050565b61210481612549565b82525050565b61211381612553565b82525050565b60006121258284611eca565b915081905092915050565b600061213c8284611efb565b915081905092915050565b600060208201905061215c6000830184611e73565b92915050565b60006060820190506121776000830186611e73565b6121846020830185611e73565b81810360408301526121968184611e91565b9050949350505050565b60006060820190506121b56000830186611e73565b6121c26020830185611e73565b6121cf60408301846120fb565b949350505050565b60006020820190506121ec6000830184611e82565b92915050565b6000602082019050818103600083015261220c8184611e91565b905092915050565b6000606082019050818103600083015261222e8186611e91565b905061223d6020830185611e73565b818103604083015261224f8184611e91565b9050949350505050565b6000602082019050818103600083015261227281611f7a565b9050919050565b6000602082019050818103600083015261229281611f9d565b9050919050565b600060208201905081810360008301526122b281611fc0565b9050919050565b600060208201905081810360008301526122d281611fe3565b9050919050565b600060208201905081810360008301526122f281612006565b9050919050565b6000602082019050818103600083015261231281612029565b9050919050565b600060208201905081810360008301526123328161204c565b9050919050565b600060208201905081810360008301526123528161206f565b9050919050565b6000602082019050818103600083015261237281612092565b9050919050565b60006020820190508181036000830152612392816120b5565b9050919050565b600060208201905081810360008301526123b2816120d8565b9050919050565b60006020820190506123ce60008301846120fb565b92915050565b60006020820190506123e9600083018461210a565b92915050565b60006123f961240a565b905061240582826125d4565b919050565b6000604051905090565b600067ffffffffffffffff82111561242f5761242e6126db565b5b6124388261271e565b9050602081019050919050565b60008190508160005260206000209050919050565b600081519050919050565b600082825260208201905092915050565b600081905092915050565b600061248c82612549565b915061249783612549565b9250827fffffffffffffffffffffffffffffffffffffffffffffffffffffffffffffffff038211156124cc576124cb61264e565b5b828201905092915050565b60006124e282612549565b91506124ed83612549565b925082821015612500576124ff61264e565b5b828203905092915050565b600061251682612529565b9050919050565b60008115159050919050565b600073ffffffffffffffffffffffffffffffffffffffff82169050919050565b6000819050919050565b600060ff82169050919050565b82818337600083830152505050565b60005b8381101561258d578082015181840152602081019050612572565b8381111561259c576000848401525b50505050565b600060028204905060018216806125ba57607f821691505b602082108114156125ce576125cd61267d565b5b50919050565b6125dd8261271e565b810181811067ffffffffffffffff821117156125fc576125fb6126db565b5b80604052505050565b600061261082612549565b91507fffffffffffffffffffffffffffffffffffffffffffffffffffffffffffffffff8214156126435761264261264e565b5b600182019050919050565b7f4e487b7100000000000000000000000000000000000000000000000000000000600052601160045260246000fd5b7f4e487b7100000000000000000000000000000000000000000000000000000000600052602260045260246000fd5b7f4e487b7100000000000000000000000000000000000000000000000000000000600052603260045260246000fd5b7f4e487b7100000000000000000000000000000000000000000000000000000000600052604160045260246000fd5b600080fd5b600080fd5b600080fd5b600080fd5b6000601f19601f8301169050919050565b7f45524332303a207472616e7366657220746f20746865207a65726f206164647260008201527f6573730000000000000000000000000000000000000000000000000000000000602082015250565b7f45524332303a206275726e20616d6f756e7420657863656564732062616c616e60008201527f6365000000000000000000000000000000000000000000000000000000000000602082015250565b7f45524332303a20617070726f766520746f20746865207a65726f20616464726560008201527f7373000000000000000000000000000000000000000000000000000000000000602082015250565b7f45524332303a207472616e7366657220616d6f756e742065786365656473206260008201527f616c616e63650000000000000000000000000000000000000000000000000000602082015250565b7f6f6e6c792061646d696e00000000000000000000000000000000000000000000600082015250565b7f45524332303a207472616e7366657220616d6f756e742065786365656473206160008201527f6c6c6f77616e6365000000000000000000000000000000000000000000000000602082015250565b7f45524332303a206275726e2066726f6d20746865207a65726f2061646472657360008201527f7300000000000000000000000000000000000000000000000000000000000000602082015250565b7f45524332303a207472616e736665722066726f6d20746865207a65726f20616460008201527f6472657373000000000000000000000000000000000000000000000000000000602082015250565b7f45524332303a20617070726f76652066726f6d20746865207a65726f2061646460008201527f7265737300000000000000000000000000000000000000000000000000000000602082015250565b7f45524332303a2064656372656173656420616c6c6f77616e63652062656c6f7760008201527f207a65726f000000000000000000000000000000000000000000000000000000602082015250565b7f45524332303a206d696e7420746f20746865207a65726f206164647265737300600082015250565b612a518161250b565b8114612a5c57600080fd5b50565b612a6881612549565b8114612a7357600080fd5b5056fea2646970667358221220976810043d22dc584e4d6350a55c2a917d1cdd8eb8728e1b31f8285595361a1d64736f6c63430008050033",
  "immutableReferences": {},
  "source": "// SPDX-License-Identifier: MIT\r\n\r\npragma solidity ^0.8.5;\r\n\r\nimport \"@openzeppelin/contracts/token/ERC20/ERC20.sol\";\r\n\r\n\r\ncontract HAT_TOKEN is ERC20 {\r\n    \r\n    struct User{\r\n        string name;\r\n        address user_crypto_id;\r\n        string password;\r\n    }\r\n    \r\n    struct Transaction{\r\n        address sender;\r\n        address reciver;\r\n        uint256 amount;\r\n    }\r\n    \r\n    struct Contact{\r\n        address owner;\r\n        address contact_name;\r\n        string name;\r\n    }\r\n\r\n    event NewUser( string name, address user_crypto_id, string password);\r\n    \r\n    User[] public Users;\r\n    Contact[] public Contacts;\r\n    Transaction[] public Transactions;\r\n\r\n    \r\n    address public admin;\r\n    \r\n    constructor() ERC20('Hitaya Token', 'HAT'){\r\n        _mint(msg.sender, 1000000000 * 10 ** 18);\r\n    }\r\n    \r\n    \r\n    function mint(address to, uint amount) external {\r\n        require(msg.sender==admin, 'only admin');\r\n        _mint(to, amount);\r\n    }\r\n    \r\n    \r\n    function burn(uint amounnt) external {\r\n        _burn(msg.sender, amounnt);\r\n    }\r\n    \r\n    \r\n    function login(string memory _password) public view returns (bool){\r\n        for (uint i=0;i<Users.length;i++){\r\n            if (Users[i].user_crypto_id==msg.sender && keccak256(abi.encodePacked(Users[i].password))==keccak256(abi.encodePacked(_password))){\r\n                return true;\r\n            }\r\n        }\r\n        return false;\r\n    }\r\n\r\n    \r\n    function _create_New_User(string memory _name, address _user_crypto_id, string memory _password) public {\r\n        Users.push(User( _name, _user_crypto_id, _password));\r\n\temit NewUser(_name, _user_crypto_id, _password);\r\n       \r\n    }\r\n    \r\n    \r\n    function _create_New_Contact(address _contact_name, string memory _name) public {\r\n        for (uint i=0;i<Users.length;i++){\r\n            if(Users[i].user_crypto_id==msg.sender){\r\n                Contacts.push(Contact( msg.sender, _contact_name, _name));\r\n            }\r\n        }\r\n    }\r\n    \r\n    \r\n    function transfer(address recipient, uint256 amount) public virtual override returns (bool) {\r\n        bool key = false;\r\n        for (uint i=0;i<Users.length;i++){\r\n            if(Users[i].user_crypto_id==msg.sender){\r\n                for (uint j=0;i<Users.length;i++){\r\n                    if(Users[j].user_crypto_id==recipient){\r\n                        key = true;\r\n                        _transfer(_msgSender(), recipient, amount);\r\n                        Transactions.push(Transaction( msg.sender, recipient, amount));\r\n                        return true;\r\n                    }\r\n                }\r\n            }\r\n        }\r\n        return false;\r\n    }\r\n        \r\n    \r\n    // function get_transaction_details() public view returns (Transactions[] memory){\r\n    //     Transactions[] memory Transactions_Detail= new Transactions[](Transactions.length);\r\n    //     uint count=0;\r\n    //     for (uint i=0;i<Transactions.length;i++){\r\n    //         if (Transactions[i].sender==msg.sender){\r\n    //             Transactions_Detail[count].push([Transactions[i].sender,Transaction[i].recipient,Transactions[i].amount]);\r\n    //             count++;\r\n    //         }\r\n    //     }\r\n    //     return Transactions_Detail;\r\n    // }\r\n    \r\n}\r\n",
  "sourcePath": "C:\\Users\\ZEUS\\Desktop\\Hitaya\\truffle\\contracts\\HAT_TOKEN.sol",
  "compiler": {
    "name": "solc",
    "version": "0.8.5+commit.a4f2e591.Emscripten.clang"
  },
  "schemaVersion": "3.4.3",
  "updatedAt": "2021-08-26T08:17:29.438Z",
  "networkType": "ethereum",
  "devdoc": {
    "kind": "dev",
    "methods": {
      "allowance(address,address)": {
        "details": "See {IERC20-allowance}."
      },
      "approve(address,uint256)": {
        "details": "See {IERC20-approve}. Requirements: - `spender` cannot be the zero address."
      },
      "balanceOf(address)": {
        "details": "See {IERC20-balanceOf}."
      },
      "decimals()": {
        "details": "Returns the number of decimals used to get its user representation. For example, if `decimals` equals `2`, a balance of `505` tokens should be displayed to a user as `5.05` (`505 / 10 ** 2`). Tokens usually opt for a value of 18, imitating the relationship between Ether and Wei. This is the value {ERC20} uses, unless this function is overridden; NOTE: This information is only used for _display_ purposes: it in no way affects any of the arithmetic of the contract, including {IERC20-balanceOf} and {IERC20-transfer}."
      },
      "decreaseAllowance(address,uint256)": {
        "details": "Atomically decreases the allowance granted to `spender` by the caller. This is an alternative to {approve} that can be used as a mitigation for problems described in {IERC20-approve}. Emits an {Approval} event indicating the updated allowance. Requirements: - `spender` cannot be the zero address. - `spender` must have allowance for the caller of at least `subtractedValue`."
      },
      "increaseAllowance(address,uint256)": {
        "details": "Atomically increases the allowance granted to `spender` by the caller. This is an alternative to {approve} that can be used as a mitigation for problems described in {IERC20-approve}. Emits an {Approval} event indicating the updated allowance. Requirements: - `spender` cannot be the zero address."
      },
      "name()": {
        "details": "Returns the name of the token."
      },
      "symbol()": {
        "details": "Returns the symbol of the token, usually a shorter version of the name."
      },
      "totalSupply()": {
        "details": "See {IERC20-totalSupply}."
      },
      "transfer(address,uint256)": {
        "details": "See {IERC20-transfer}. Requirements: - `recipient` cannot be the zero address. - the caller must have a balance of at least `amount`."
      },
      "transferFrom(address,address,uint256)": {
        "details": "See {IERC20-transferFrom}. Emits an {Approval} event indicating the updated allowance. This is not required by the EIP. See the note at the beginning of {ERC20}. Requirements: - `sender` and `recipient` cannot be the zero address. - `sender` must have a balance of at least `amount`. - the caller must have allowance for ``sender``'s tokens of at least `amount`."
      }
    },
    "version": 1
  },
  "userdoc": {
    "kind": "user",
    "methods": {},
    "version": 1
  }
}