{
  "contractName": "HAT_TOKEN",
  "abi": [
    {
      "inputs": [],
      "stateMutability": "nonpayable",
      "type": "constructor"
    },
    {
      "anonymous": false,
      "inputs": [
        {
          "indexed": true,
          "internalType": "address",
          "name": "owner",
          "type": "address"
        },
        {
          "indexed": true,
          "internalType": "address",
          "name": "spender",
          "type": "address"
        },
        {
          "indexed": false,
          "internalType": "uint256",
          "name": "value",
          "type": "uint256"
        }
      ],
      "name": "Approval",
      "type": "event"
    },
    {
      "anonymous": false,
      "inputs": [
        {
          "indexed": true,
          "internalType": "address",
          "name": "from",
          "type": "address"
        },
        {
          "indexed": true,
          "internalType": "address",
          "name": "to",
          "type": "address"
        },
        {
          "indexed": false,
          "internalType": "uint256",
          "name": "value",
          "type": "uint256"
        }
      ],
      "name": "Transfer",
      "type": "event"
    },
    {
      "inputs": [
        {
          "internalType": "uint256",
          "name": "",
          "type": "uint256"
        }
      ],
      "name": "Contacts",
      "outputs": [
        {
          "internalType": "address",
          "name": "owner",
          "type": "address"
        },
        {
          "internalType": "address",
          "name": "contact_name",
          "type": "address"
        },
        {
          "internalType": "string",
          "name": "name",
          "type": "string"
        },
        {
          "internalType": "string",
          "name": "contact_type",
          "type": "string"
        }
      ],
      "stateMutability": "view",
      "type": "function",
      "constant": true
    },
    {
      "inputs": [
        {
          "internalType": "uint256",
          "name": "",
          "type": "uint256"
        }
      ],
      "name": "Employees",
      "outputs": [
        {
          "internalType": "string",
          "name": "name",
          "type": "string"
        },
        {
          "internalType": "string",
          "name": "employeeid",
          "type": "string"
        },
        {
          "internalType": "string",
          "name": "employeerank",
          "type": "string"
        },
        {
          "internalType": "string",
          "name": "employeegroup",
          "type": "string"
        }
      ],
      "stateMutability": "view",
      "type": "function",
      "constant": true
    },
    {
      "inputs": [
        {
          "internalType": "uint256",
          "name": "",
          "type": "uint256"
        }
      ],
      "name": "Transactions",
      "outputs": [
        {
          "internalType": "address",
          "name": "sender",
          "type": "address"
        },
        {
          "internalType": "address",
          "name": "reciver",
          "type": "address"
        },
        {
          "internalType": "uint256",
          "name": "amount",
          "type": "uint256"
        },
        {
          "internalType": "string",
          "name": "transaction_type",
          "type": "string"
        }
      ],
      "stateMutability": "view",
      "type": "function",
      "constant": true
    },
    {
      "inputs": [
        {
          "internalType": "uint256",
          "name": "",
          "type": "uint256"
        }
      ],
      "name": "Users",
      "outputs": [
        {
          "internalType": "string",
          "name": "name",
          "type": "string"
        },
        {
          "internalType": "address",
          "name": "user_crypto_id",
          "type": "address"
        },
        {
          "internalType": "string",
          "name": "password",
          "type": "string"
        },
        {
          "internalType": "uint256",
          "name": "balance",
          "type": "uint256"
        }
      ],
      "stateMutability": "view",
      "type": "function",
      "constant": true
    },
    {
      "inputs": [],
      "name": "admin",
      "outputs": [
        {
          "internalType": "address",
          "name": "",
          "type": "address"
        }
      ],
      "stateMutability": "view",
      "type": "function",
      "constant": true
    },
    {
      "inputs": [
        {
          "internalType": "address",
          "name": "owner",
          "type": "address"
        },
        {
          "internalType": "address",
          "name": "spender",
          "type": "address"
        }
      ],
      "name": "allowance",
      "outputs": [
        {
          "internalType": "uint256",
          "name": "",
          "type": "uint256"
        }
      ],
      "stateMutability": "view",
      "type": "function",
      "constant": true
    },
    {
      "inputs": [
        {
          "internalType": "address",
          "name": "spender",
          "type": "address"
        },
        {
          "internalType": "uint256",
          "name": "amount",
          "type": "uint256"
        }
      ],
      "name": "approve",
      "outputs": [
        {
          "internalType": "bool",
          "name": "",
          "type": "bool"
        }
      ],
      "stateMutability": "nonpayable",
      "type": "function"
    },
    {
      "inputs": [
        {
          "internalType": "address",
          "name": "account",
          "type": "address"
        }
      ],
      "name": "balanceOf",
      "outputs": [
        {
          "internalType": "uint256",
          "name": "",
          "type": "uint256"
        }
      ],
      "stateMutability": "view",
      "type": "function",
      "constant": true
    },
    {
      "inputs": [],
      "name": "decimals",
      "outputs": [
        {
          "internalType": "uint8",
          "name": "",
          "type": "uint8"
        }
      ],
      "stateMutability": "view",
      "type": "function",
      "constant": true
    },
    {
      "inputs": [
        {
          "internalType": "address",
          "name": "spender",
          "type": "address"
        },
        {
          "internalType": "uint256",
          "name": "subtractedValue",
          "type": "uint256"
        }
      ],
      "name": "decreaseAllowance",
      "outputs": [
        {
          "internalType": "bool",
          "name": "",
          "type": "bool"
        }
      ],
      "stateMutability": "nonpayable",
      "type": "function"
    },
    {
      "inputs": [],
      "name": "employeeadmin",
      "outputs": [
        {
          "internalType": "address",
          "name": "",
          "type": "address"
        }
      ],
      "stateMutability": "view",
      "type": "function",
      "constant": true
    },
    {
      "inputs": [
        {
          "internalType": "address",
          "name": "spender",
          "type": "address"
        },
        {
          "internalType": "uint256",
          "name": "addedValue",
          "type": "uint256"
        }
      ],
      "name": "increaseAllowance",
      "outputs": [
        {
          "internalType": "bool",
          "name": "",
          "type": "bool"
        }
      ],
      "stateMutability": "nonpayable",
      "type": "function"
    },
    {
      "inputs": [],
      "name": "name",
      "outputs": [
        {
          "internalType": "string",
          "name": "",
          "type": "string"
        }
      ],
      "stateMutability": "view",
      "type": "function",
      "constant": true
    },
    {
      "inputs": [],
      "name": "symbol",
      "outputs": [
        {
          "internalType": "string",
          "name": "",
          "type": "string"
        }
      ],
      "stateMutability": "view",
      "type": "function",
      "constant": true
    },
    {
      "inputs": [],
      "name": "totalSupply",
      "outputs": [
        {
          "internalType": "uint256",
          "name": "",
          "type": "uint256"
        }
      ],
      "stateMutability": "view",
      "type": "function",
      "constant": true
    },
    {
      "inputs": [
        {
          "internalType": "address",
          "name": "sender",
          "type": "address"
        },
        {
          "internalType": "address",
          "name": "recipient",
          "type": "address"
        },
        {
          "internalType": "uint256",
          "name": "amount",
          "type": "uint256"
        }
      ],
      "name": "transferFrom",
      "outputs": [
        {
          "internalType": "bool",
          "name": "",
          "type": "bool"
        }
      ],
      "stateMutability": "nonpayable",
      "type": "function"
    },
    {
      "inputs": [
        {
          "internalType": "address",
          "name": "to",
          "type": "address"
        },
        {
          "internalType": "uint256",
          "name": "amount",
          "type": "uint256"
        }
      ],
      "name": "mint",
      "outputs": [],
      "stateMutability": "nonpayable",
      "type": "function"
    },
    {
      "inputs": [
        {
          "internalType": "uint256",
          "name": "amount",
          "type": "uint256"
        }
      ],
      "name": "burn",
      "outputs": [],
      "stateMutability": "nonpayable",
      "type": "function"
    },
    {
      "inputs": [
        {
          "internalType": "address",
          "name": "_address",
          "type": "address"
        }
      ],
      "name": "change_admin",
      "outputs": [],
      "stateMutability": "nonpayable",
      "type": "function"
    },
    {
      "inputs": [
        {
          "internalType": "address",
          "name": "_address",
          "type": "address"
        }
      ],
      "name": "change_employeeadmin",
      "outputs": [],
      "stateMutability": "nonpayable",
      "type": "function"
    },
    {
      "inputs": [
        {
          "internalType": "string",
          "name": "_password",
          "type": "string"
        }
      ],
      "name": "login",
      "outputs": [
        {
          "internalType": "bool",
          "name": "",
          "type": "bool"
        }
      ],
      "stateMutability": "view",
      "type": "function",
      "constant": true
    },
    {
      "inputs": [],
      "name": "hat_burnt",
      "outputs": [
        {
          "internalType": "uint256",
          "name": "",
          "type": "uint256"
        }
      ],
      "stateMutability": "view",
      "type": "function",
      "constant": true
    },
    {
      "inputs": [
        {
          "internalType": "string",
          "name": "_name",
          "type": "string"
        },
        {
          "internalType": "address",
          "name": "_user_crypto_id",
          "type": "address"
        },
        {
          "internalType": "string",
          "name": "_password",
          "type": "string"
        }
      ],
      "name": "_create_New_User",
      "outputs": [],
      "stateMutability": "nonpayable",
      "type": "function"
    },
    {
      "inputs": [
        {
          "internalType": "string",
          "name": "_name",
          "type": "string"
        },
        {
          "internalType": "string",
          "name": "_employeeid",
          "type": "string"
        },
        {
          "internalType": "string",
          "name": "_employeerank",
          "type": "string"
        },
        {
          "internalType": "string",
          "name": "_emplyeegroup",
          "type": "string"
        }
      ],
      "name": "_create_New_Employee",
      "outputs": [
        {
          "internalType": "bool",
          "name": "",
          "type": "bool"
        }
      ],
      "stateMutability": "nonpayable",
      "type": "function"
    },
    {
      "inputs": [
        {
          "internalType": "address",
          "name": "_owner",
          "type": "address"
        },
        {
          "internalType": "address",
          "name": "_contact_name",
          "type": "address"
        },
        {
          "internalType": "string",
          "name": "_name",
          "type": "string"
        },
        {
          "internalType": "string",
          "name": "_contact_type",
          "type": "string"
        }
      ],
      "name": "_create_New_Contact",
      "outputs": [],
      "stateMutability": "nonpayable",
      "type": "function"
    },
    {
      "inputs": [
        {
          "internalType": "address",
          "name": "recipient",
          "type": "address"
        },
        {
          "internalType": "uint256",
          "name": "amount",
          "type": "uint256"
        },
        {
          "internalType": "string",
          "name": "_trans_type",
          "type": "string"
        }
      ],
      "name": "transfer",
      "outputs": [
        {
          "internalType": "bool",
          "name": "",
          "type": "bool"
        }
      ],
      "stateMutability": "nonpayable",
      "type": "function"
    },
    {
      "inputs": [
        {
          "internalType": "address",
          "name": "recipient",
          "type": "address"
        },
        {
          "internalType": "uint256",
          "name": "amount",
          "type": "uint256"
        }
      ],
      "name": "transfer",
      "outputs": [
        {
          "internalType": "bool",
          "name": "",
          "type": "bool"
        }
      ],
      "stateMutability": "nonpayable",
      "type": "function"
    },
    {
      "inputs": [
        {
          "internalType": "address",
          "name": "recipient",
          "type": "address"
        },
        {
          "internalType": "uint256",
          "name": "amount",
          "type": "uint256"
        }
      ],
      "name": "airdrop",
      "outputs": [
        {
          "internalType": "bool",
          "name": "",
          "type": "bool"
        }
      ],
      "stateMutability": "nonpayable",
      "type": "function"
    },
    {
      "inputs": [],
      "name": "employees_view",
      "outputs": [
        {
          "components": [
            {
              "internalType": "string",
              "name": "name",
              "type": "string"
            },
            {
              "internalType": "string",
              "name": "employeeid",
              "type": "string"
            },
            {
              "internalType": "string",
              "name": "employeerank",
              "type": "string"
            },
            {
              "internalType": "string",
              "name": "employeegroup",
              "type": "string"
            }
          ],
          "internalType": "struct HAT_TOKEN.Employee[]",
          "name": "",
          "type": "tuple[]"
        }
      ],
      "stateMutability": "view",
      "type": "function",
      "constant": true
    },
    {
      "inputs": [],
      "name": "user_view",
      "outputs": [
        {
          "components": [
            {
              "internalType": "string",
              "name": "name",
              "type": "string"
            },
            {
              "internalType": "address",
              "name": "user_crypto_id",
              "type": "address"
            },
            {
              "internalType": "string",
              "name": "password",
              "type": "string"
            },
            {
              "internalType": "uint256",
              "name": "balance",
              "type": "uint256"
            }
          ],
          "internalType": "struct HAT_TOKEN.User[]",
          "name": "",
          "type": "tuple[]"
        }
      ],
      "stateMutability": "view",
      "type": "function",
      "constant": true
    },
    {
      "inputs": [
        {
          "internalType": "uint256",
          "name": "id",
          "type": "uint256"
        }
      ],
      "name": "user_view",
      "outputs": [
        {
          "internalType": "string",
          "name": "",
          "type": "string"
        },
        {
          "internalType": "address",
          "name": "",
          "type": "address"
        },
        {
          "internalType": "string",
          "name": "",
          "type": "string"
        }
      ],
      "stateMutability": "view",
      "type": "function",
      "constant": true
    },
    {
      "inputs": [],
      "name": "transaction_view",
      "outputs": [
        {
          "components": [
            {
              "internalType": "address",
              "name": "sender",
              "type": "address"
            },
            {
              "internalType": "address",
              "name": "reciver",
              "type": "address"
            },
            {
              "internalType": "uint256",
              "name": "amount",
              "type": "uint256"
            },
            {
              "internalType": "string",
              "name": "transaction_type",
              "type": "string"
            }
          ],
          "internalType": "struct HAT_TOKEN.Transaction[]",
          "name": "",
          "type": "tuple[]"
        }
      ],
      "stateMutability": "view",
      "type": "function",
      "constant": true
    },
    {
      "inputs": [],
      "name": "contacts_view",
      "outputs": [
        {
          "components": [
            {
              "internalType": "address",
              "name": "owner",
              "type": "address"
            },
            {
              "internalType": "address",
              "name": "contact_name",
              "type": "address"
            },
            {
              "internalType": "string",
              "name": "name",
              "type": "string"
            },
            {
              "internalType": "string",
              "name": "contact_type",
              "type": "string"
            }
          ],
          "internalType": "struct HAT_TOKEN.Contact[]",
          "name": "",
          "type": "tuple[]"
        }
      ],
      "stateMutability": "view",
      "type": "function",
      "constant": true
    }
  ],
  "bytecode": "0x60806040523480156200001157600080fd5b506040518060400160405280600c81526020017f48697461796120546f6b656e00000000000000000000000000000000000000008152506040518060400160405280600381526020017f484154000000000000000000000000000000000000000000000000000000000081525081600390805190602001906200009692919062000259565b508060049080519060200190620000af92919062000259565b505050620000d0336b033b2e3c9fd0803ce8000000620000d660201b60201c565b620004b5565b600073ffffffffffffffffffffffffffffffffffffffff168273ffffffffffffffffffffffffffffffffffffffff16141562000149576040517f08c379a0000000000000000000000000000000000000000000000000000000008152600401620001409062000341565b60405180910390fd5b6200015d600083836200024f60201b60201c565b806002600082825462000171919062000391565b92505081905550806000808473ffffffffffffffffffffffffffffffffffffffff1673ffffffffffffffffffffffffffffffffffffffff1681526020019081526020016000206000828254620001c8919062000391565b925050819055508173ffffffffffffffffffffffffffffffffffffffff16600073ffffffffffffffffffffffffffffffffffffffff167fddf252ad1be2c89b69c2b068fc378daa952ba7f163c4a11628f55a4df523b3ef836040516200022f919062000363565b60405180910390a36200024b600083836200025460201b60201c565b5050565b505050565b505050565b8280546200026790620003f8565b90600052602060002090601f0160209004810192826200028b5760008555620002d7565b82601f10620002a657805160ff1916838001178555620002d7565b82800160010185558215620002d7579182015b82811115620002d6578251825591602001919060010190620002b9565b5b509050620002e69190620002ea565b5090565b5b8082111562000305576000816000905550600101620002eb565b5090565b600062000318601f8362000380565b915062000325826200048c565b602082019050919050565b6200033b81620003ee565b82525050565b600060208201905081810360008301526200035c8162000309565b9050919050565b60006020820190506200037a600083018462000330565b92915050565b600082825260208201905092915050565b60006200039e82620003ee565b9150620003ab83620003ee565b9250827fffffffffffffffffffffffffffffffffffffffffffffffffffffffffffffffff03821115620003e357620003e26200042e565b5b828201905092915050565b6000819050919050565b600060028204905060018216806200041157607f821691505b602082108114156200042857620004276200045d565b5b50919050565b7f4e487b7100000000000000000000000000000000000000000000000000000000600052601160045260246000fd5b7f4e487b7100000000000000000000000000000000000000000000000000000000600052602260045260246000fd5b7f45524332303a206d696e7420746f20746865207a65726f206164647265737300600082015250565b6147a780620004c56000396000f3fe608060405234801561001057600080fd5b50600436106101fb5760003560e01c80635827d6801161011a578063acd3306d116100ad578063d69f9a821161007c578063d69f9a821461062f578063da2e6c8714610661578063dd62ed3e14610694578063f6ee99e0146106c4578063f851a440146106e2576101fb565b8063acd3306d146105b9578063c1201af3146105d7578063c87b6dc0146105f5578063cf224e8a14610613576101fb565b80638ba4cc3c116100e95780638ba4cc3c1461050b57806395d89b411461053b578063a457c2d714610559578063a9059cbb14610589576101fb565b80635827d680146104855780635eae5460146104a157806370a08231146104bd578063827057f1146104ed576101fb565b806323b872dd116101925780633a7d280c116101615780633a7d280c146103ed57806340c10f191461041d57806342966c681461043957806356b8c72414610455576101fb565b806323b872dd1461033c578063313ce5671461036c57806334008b161461038a57806339509351146103bd576101fb565b8063151c259f116101ce578063151c259f1461029c578063158686b5146102cf57806318160ddd146102eb5780631e98fd1c14610309576101fb565b806306fdde0314610200578063095ea7b31461021e5780630eea2bb11461024e57806310f3fcbe1461027e575b600080fd5b610208610700565b6040516102159190613d44565b60405180910390f35b61023860048036038101906102339190613262565b610792565b6040516102459190613d29565b60405180910390f35b610268600480360381019061026391906133e5565b6107b0565b6040516102759190613d29565b60405180910390f35b6102866108da565b6040516102939190613cc3565b60405180910390f35b6102b660048036038101906102b191906134bc565b610b81565b6040516102c69493929190613dfe565b60405180910390f35b6102e960048036038101906102e49190613103565b610de1565b005b6102f3610e25565b6040516103009190613fbf565b60405180910390f35b610323600480360381019061031e91906134bc565b610e2f565b6040516103339493929190613dab565b60405180910390f35b6103566004803603810190610351919061320f565b610f9f565b6040516103639190613d29565b60405180910390f35b610374611097565b6040516103819190613fda565b60405180910390f35b6103a4600480360381019061039f91906134bc565b6110a0565b6040516103b49493929190613c55565b60405180910390f35b6103d760048036038101906103d29190613262565b6111a8565b6040516103e49190613d29565b60405180910390f35b61040760048036038101906104029190613311565b611254565b6040516104149190613d29565b60405180910390f35b61043760048036038101906104329190613262565b611385565b005b610453600480360381019061044e91906134bc565b611423565b005b61046f600480360381019061046a91906132a2565b611449565b60405161047c9190613d29565b60405180910390f35b61049f600480360381019061049a9190613103565b61175c565b005b6104bb60048036038101906104b69190613170565b6117a0565b005b6104d760048036038101906104d29190613103565b6118e8565b6040516104e49190613fbf565b60405180910390f35b6104f5611930565b6040516105029190613d07565b60405180910390f35b61052560048036038101906105209190613262565b611b13565b6040516105329190613d29565b60405180910390f35b610543611d86565b6040516105509190613d44565b60405180910390f35b610573600480360381019061056e9190613262565b611e18565b6040516105809190613d29565b60405180910390f35b6105a3600480360381019061059e9190613262565b611f03565b6040516105b09190613d29565b60405180910390f35b6105c1611f21565b6040516105ce9190613be7565b60405180910390f35b6105df611f47565b6040516105ec9190613fbf565b60405180910390f35b6105fd611f51565b60405161060a9190613ce5565b60405180910390f35b61062d6004803603810190610628919061335a565b6120f8565b005b610649600480360381019061064491906134bc565b6121ed565b60405161065893929190613d66565b60405180910390f35b61067b600480360381019061067691906134bc565b6123c5565b60405161068b9493929190613c02565b60405180910390f35b6106ae60048036038101906106a99190613130565b612555565b6040516106bb9190613fbf565b60405180910390f35b6106cc6125dc565b6040516106d99190613ca1565b60405180910390f35b6106ea61280b565b6040516106f79190613be7565b60405180910390f35b60606003805461070f9061429d565b80601f016020809104026020016040519081016040528092919081815260200182805461073b9061429d565b80156107885780601f1061075d57610100808354040283529160200191610788565b820191906000526020600020905b81548152906001019060200180831161076b57829003601f168201915b5050505050905090565b60006107a661079f612831565b8484612839565b6001905092915050565b60003373ffffffffffffffffffffffffffffffffffffffff16600a60009054906101000a900473ffffffffffffffffffffffffffffffffffffffff1673ffffffffffffffffffffffffffffffffffffffff161461080c57600080fd5b600860405180608001604052808781526020018681526020018581526020018481525090806001815401808255809150506001900390600052602060002090600402016000909190919091506000820151816000019080519060200190610874929190612fc6565b506020820151816001019080519060200190610891929190612fc6565b5060408201518160020190805190602001906108ae929190612fc6565b5060608201518160030190805190602001906108cb929190612fc6565b50505060019050949350505050565b60606008805480602002602001604051908101604052809291908181526020016000905b82821015610b7857838290600052602060002090600402016040518060800160405290816000820180546109319061429d565b80601f016020809104026020016040519081016040528092919081815260200182805461095d9061429d565b80156109aa5780601f1061097f576101008083540402835291602001916109aa565b820191906000526020600020905b81548152906001019060200180831161098d57829003601f168201915b505050505081526020016001820180546109c39061429d565b80601f01602080910402602001604051908101604052809291908181526020018280546109ef9061429d565b8015610a3c5780601f10610a1157610100808354040283529160200191610a3c565b820191906000526020600020905b815481529060010190602001808311610a1f57829003601f168201915b50505050508152602001600282018054610a559061429d565b80601f0160208091040260200160405190810160405280929190818152602001828054610a819061429d565b8015610ace5780601f10610aa357610100808354040283529160200191610ace565b820191906000526020600020905b815481529060010190602001808311610ab157829003601f168201915b50505050508152602001600382018054610ae79061429d565b80601f0160208091040260200160405190810160405280929190818152602001828054610b139061429d565b8015610b605780601f10610b3557610100808354040283529160200191610b60565b820191906000526020600020905b815481529060010190602001808311610b4357829003601f168201915b505050505081525050815260200190600101906108fe565b50505050905090565b60088181548110610b9157600080fd5b9060005260206000209060040201600091509050806000018054610bb49061429d565b80601f0160208091040260200160405190810160405280929190818152602001828054610be09061429d565b8015610c2d5780601f10610c0257610100808354040283529160200191610c2d565b820191906000526020600020905b815481529060010190602001808311610c1057829003601f168201915b505050505090806001018054610c429061429d565b80601f0160208091040260200160405190810160405280929190818152602001828054610c6e9061429d565b8015610cbb5780601f10610c9057610100808354040283529160200191610cbb565b820191906000526020600020905b815481529060010190602001808311610c9e57829003601f168201915b505050505090806002018054610cd09061429d565b80601f0160208091040260200160405190810160405280929190818152602001828054610cfc9061429d565b8015610d495780601f10610d1e57610100808354040283529160200191610d49565b820191906000526020600020905b815481529060010190602001808311610d2c57829003601f168201915b505050505090806003018054610d5e9061429d565b80601f0160208091040260200160405190810160405280929190818152602001828054610d8a9061429d565b8015610dd75780601f10610dac57610100808354040283529160200191610dd7565b820191906000526020600020905b815481529060010190602001808311610dba57829003601f168201915b5050505050905084565b80600960006101000a81548173ffffffffffffffffffffffffffffffffffffffff021916908373ffffffffffffffffffffffffffffffffffffffff16021790555050565b6000600254905090565b60058181548110610e3f57600080fd5b9060005260206000209060040201600091509050806000018054610e629061429d565b80601f0160208091040260200160405190810160405280929190818152602001828054610e8e9061429d565b8015610edb5780601f10610eb057610100808354040283529160200191610edb565b820191906000526020600020905b815481529060010190602001808311610ebe57829003601f168201915b5050505050908060010160009054906101000a900473ffffffffffffffffffffffffffffffffffffffff1690806002018054610f169061429d565b80601f0160208091040260200160405190810160405280929190818152602001828054610f429061429d565b8015610f8f5780601f10610f6457610100808354040283529160200191610f8f565b820191906000526020600020905b815481529060010190602001808311610f7257829003601f168201915b5050505050908060030154905084565b6000610fac848484612a04565b6000600160008673ffffffffffffffffffffffffffffffffffffffff1673ffffffffffffffffffffffffffffffffffffffff1681526020019081526020016000206000610ff7612831565b73ffffffffffffffffffffffffffffffffffffffff1673ffffffffffffffffffffffffffffffffffffffff16815260200190815260200160002054905082811015611077576040517f08c379a000000000000000000000000000000000000000000000000000000000815260040161106e90613eff565b60405180910390fd5b61108b85611083612831565b858403612839565b60019150509392505050565b60006012905090565b600781815481106110b057600080fd5b90600052602060002090600402016000915090508060000160009054906101000a900473ffffffffffffffffffffffffffffffffffffffff16908060010160009054906101000a900473ffffffffffffffffffffffffffffffffffffffff16908060020154908060030180546111259061429d565b80601f01602080910402602001604051908101604052809291908181526020018280546111519061429d565b801561119e5780601f106111735761010080835404028352916020019161119e565b820191906000526020600020905b81548152906001019060200180831161118157829003601f168201915b5050505050905084565b600061124a6111b5612831565b8484600160006111c3612831565b73ffffffffffffffffffffffffffffffffffffffff1673ffffffffffffffffffffffffffffffffffffffff16815260200190815260200160002060008873ffffffffffffffffffffffffffffffffffffffff1673ffffffffffffffffffffffffffffffffffffffff16815260200190815260200160002054611245919061417c565b612839565b6001905092915050565b600080600090505b60058054905081101561137a573373ffffffffffffffffffffffffffffffffffffffff1660058281548110611294576112936143a7565b5b906000526020600020906004020160010160009054906101000a900473ffffffffffffffffffffffffffffffffffffffff1673ffffffffffffffffffffffffffffffffffffffff161480156113585750826040516020016112f59190613bb9565b604051602081830303815290604052805190602001206005828154811061131f5761131e6143a7565b5b90600052602060002090600402016002016040516020016113409190613bd0565b60405160208183030381529060405280519060200120145b15611367576001915050611380565b808061137290614300565b91505061125c565b50600090505b919050565b600960009054906101000a900473ffffffffffffffffffffffffffffffffffffffff1673ffffffffffffffffffffffffffffffffffffffff163373ffffffffffffffffffffffffffffffffffffffff1614611415576040517f08c379a000000000000000000000000000000000000000000000000000000000815260040161140c90613edf565b60405180910390fd5b61141f8282612c85565b5050565b80600b6000828254611435919061417c565b925050819055506114463382612de5565b50565b6000611456338585612a04565b60005b600580549050811015611621573373ffffffffffffffffffffffffffffffffffffffff1660058281548110611491576114906143a7565b5b906000526020600020906004020160010160009054906101000a900473ffffffffffffffffffffffffffffffffffffffff1673ffffffffffffffffffffffffffffffffffffffff16141561153a5783600582815481106114f4576114f36143a7565b5b90600052602060002090600402016003015461151091906141d2565b60058281548110611524576115236143a7565b5b9060005260206000209060040201600301819055505b8473ffffffffffffffffffffffffffffffffffffffff1660058281548110611565576115646143a7565b5b906000526020600020906004020160010160009054906101000a900473ffffffffffffffffffffffffffffffffffffffff1673ffffffffffffffffffffffffffffffffffffffff16141561160e5783600582815481106115c8576115c76143a7565b5b9060005260206000209060040201600301546115e4919061417c565b600582815481106115f8576115f76143a7565b5b9060005260206000209060040201600301819055505b808061161990614300565b915050611459565b50600760405180608001604052803373ffffffffffffffffffffffffffffffffffffffff1681526020018673ffffffffffffffffffffffffffffffffffffffff16815260200185815260200184815250908060018154018082558091505060019003906000526020600020906004020160009091909190915060008201518160000160006101000a81548173ffffffffffffffffffffffffffffffffffffffff021916908373ffffffffffffffffffffffffffffffffffffffff16021790555060208201518160010160006101000a81548173ffffffffffffffffffffffffffffffffffffffff021916908373ffffffffffffffffffffffffffffffffffffffff16021790555060408201518160020155606082015181600301908051906020019061174e929190612fc6565b505050600190509392505050565b80600a60006101000a81548173ffffffffffffffffffffffffffffffffffffffff021916908373ffffffffffffffffffffffffffffffffffffffff16021790555050565b600660405180608001604052808673ffffffffffffffffffffffffffffffffffffffff1681526020018573ffffffffffffffffffffffffffffffffffffffff16815260200184815260200183815250908060018154018082558091505060019003906000526020600020906004020160009091909190915060008201518160000160006101000a81548173ffffffffffffffffffffffffffffffffffffffff021916908373ffffffffffffffffffffffffffffffffffffffff16021790555060208201518160010160006101000a81548173ffffffffffffffffffffffffffffffffffffffff021916908373ffffffffffffffffffffffffffffffffffffffff16021790555060408201518160020190805190602001906118c2929190612fc6565b5060608201518160030190805190602001906118df929190612fc6565b50505050505050565b60008060008373ffffffffffffffffffffffffffffffffffffffff1673ffffffffffffffffffffffffffffffffffffffff168152602001908152602001600020549050919050565b60606005805480602002602001604051908101604052809291908181526020016000905b82821015611b0a57838290600052602060002090600402016040518060800160405290816000820180546119879061429d565b80601f01602080910402602001604051908101604052809291908181526020018280546119b39061429d565b8015611a005780601f106119d557610100808354040283529160200191611a00565b820191906000526020600020905b8154815290600101906020018083116119e357829003601f168201915b505050505081526020016001820160009054906101000a900473ffffffffffffffffffffffffffffffffffffffff1673ffffffffffffffffffffffffffffffffffffffff1673ffffffffffffffffffffffffffffffffffffffff168152602001600282018054611a6f9061429d565b80601f0160208091040260200160405190810160405280929190818152602001828054611a9b9061429d565b8015611ae85780601f10611abd57610100808354040283529160200191611ae8565b820191906000526020600020905b815481529060010190602001808311611acb57829003601f168201915b5050505050815260200160038201548152505081526020019060010190611954565b50505050905090565b6000611b20338484612a04565b60005b600580549050811015611c17578373ffffffffffffffffffffffffffffffffffffffff1660058281548110611b5b57611b5a6143a7565b5b906000526020600020906004020160010160009054906101000a900473ffffffffffffffffffffffffffffffffffffffff1673ffffffffffffffffffffffffffffffffffffffff161415611c04578260058281548110611bbe57611bbd6143a7565b5b906000526020600020906004020160030154611bda919061417c565b60058281548110611bee57611bed6143a7565b5b9060005260206000209060040201600301819055505b8080611c0f90614300565b915050611b23565b50600760405180608001604052803373ffffffffffffffffffffffffffffffffffffffff1681526020018573ffffffffffffffffffffffffffffffffffffffff1681526020018481526020016040518060400160405280600881526020017f4149522044524f50000000000000000000000000000000000000000000000000815250815250908060018154018082558091505060019003906000526020600020906004020160009091909190915060008201518160000160006101000a81548173ffffffffffffffffffffffffffffffffffffffff021916908373ffffffffffffffffffffffffffffffffffffffff16021790555060208201518160010160006101000a81548173ffffffffffffffffffffffffffffffffffffffff021916908373ffffffffffffffffffffffffffffffffffffffff160217905550604082015181600201556060820151816003019080519060200190611d79929190612fc6565b5050506001905092915050565b606060048054611d959061429d565b80601f0160208091040260200160405190810160405280929190818152602001828054611dc19061429d565b8015611e0e5780601f10611de357610100808354040283529160200191611e0e565b820191906000526020600020905b815481529060010190602001808311611df157829003601f168201915b5050505050905090565b60008060016000611e27612831565b73ffffffffffffffffffffffffffffffffffffffff1673ffffffffffffffffffffffffffffffffffffffff16815260200190815260200160002060008573ffffffffffffffffffffffffffffffffffffffff1673ffffffffffffffffffffffffffffffffffffffff16815260200190815260200160002054905082811015611ee4576040517f08c379a0000000000000000000000000000000000000000000000000000000008152600401611edb90613f7f565b60405180910390fd5b611ef8611eef612831565b85858403612839565b600191505092915050565b6000611f17611f10612831565b8484612a04565b6001905092915050565b600a60009054906101000a900473ffffffffffffffffffffffffffffffffffffffff1681565b6000600b54905090565b60606007805480602002602001604051908101604052809291908181526020016000905b828210156120ef57838290600052602060002090600402016040518060800160405290816000820160009054906101000a900473ffffffffffffffffffffffffffffffffffffffff1673ffffffffffffffffffffffffffffffffffffffff1673ffffffffffffffffffffffffffffffffffffffff1681526020016001820160009054906101000a900473ffffffffffffffffffffffffffffffffffffffff1673ffffffffffffffffffffffffffffffffffffffff1673ffffffffffffffffffffffffffffffffffffffff1681526020016002820154815260200160038201805461205e9061429d565b80601f016020809104026020016040519081016040528092919081815260200182805461208a9061429d565b80156120d75780601f106120ac576101008083540402835291602001916120d7565b820191906000526020600020905b8154815290600101906020018083116120ba57829003601f168201915b50505050508152505081526020019060010190611f75565b50505050905090565b600560405180608001604052808581526020018473ffffffffffffffffffffffffffffffffffffffff168152602001838152602001600081525090806001815401808255809150506001900390600052602060002090600402016000909190919091506000820151816000019080519060200190612177929190612fc6565b5060208201518160010160006101000a81548173ffffffffffffffffffffffffffffffffffffffff021916908373ffffffffffffffffffffffffffffffffffffffff16021790555060408201518160020190805190602001906121db929190612fc6565b50606082015181600301555050505050565b606060006060600060058581548110612209576122086143a7565b5b90600052602060002090600402016040518060800160405290816000820180546122329061429d565b80601f016020809104026020016040519081016040528092919081815260200182805461225e9061429d565b80156122ab5780601f10612280576101008083540402835291602001916122ab565b820191906000526020600020905b81548152906001019060200180831161228e57829003601f168201915b505050505081526020016001820160009054906101000a900473ffffffffffffffffffffffffffffffffffffffff1673ffffffffffffffffffffffffffffffffffffffff1673ffffffffffffffffffffffffffffffffffffffff16815260200160028201805461231a9061429d565b80601f01602080910402602001604051908101604052809291908181526020018280546123469061429d565b80156123935780601f1061236857610100808354040283529160200191612393565b820191906000526020600020905b81548152906001019060200180831161237657829003601f168201915b505050505081526020016003820154815250509050806000015181602001518260400151935093509350509193909250565b600681815481106123d557600080fd5b90600052602060002090600402016000915090508060000160009054906101000a900473ffffffffffffffffffffffffffffffffffffffff16908060010160009054906101000a900473ffffffffffffffffffffffffffffffffffffffff16908060020180546124449061429d565b80601f01602080910402602001604051908101604052809291908181526020018280546124709061429d565b80156124bd5780601f10612492576101008083540402835291602001916124bd565b820191906000526020600020905b8154815290600101906020018083116124a057829003601f168201915b5050505050908060030180546124d29061429d565b80601f01602080910402602001604051908101604052809291908181526020018280546124fe9061429d565b801561254b5780601f106125205761010080835404028352916020019161254b565b820191906000526020600020905b81548152906001019060200180831161252e57829003601f168201915b5050505050905084565b6000600160008473ffffffffffffffffffffffffffffffffffffffff1673ffffffffffffffffffffffffffffffffffffffff16815260200190815260200160002060008373ffffffffffffffffffffffffffffffffffffffff1673ffffffffffffffffffffffffffffffffffffffff16815260200190815260200160002054905092915050565b60606006805480602002602001604051908101604052809291908181526020016000905b8282101561280257838290600052602060002090600402016040518060800160405290816000820160009054906101000a900473ffffffffffffffffffffffffffffffffffffffff1673ffffffffffffffffffffffffffffffffffffffff1673ffffffffffffffffffffffffffffffffffffffff1681526020016001820160009054906101000a900473ffffffffffffffffffffffffffffffffffffffff1673ffffffffffffffffffffffffffffffffffffffff1673ffffffffffffffffffffffffffffffffffffffff1681526020016002820180546126df9061429d565b80601f016020809104026020016040519081016040528092919081815260200182805461270b9061429d565b80156127585780601f1061272d57610100808354040283529160200191612758565b820191906000526020600020905b81548152906001019060200180831161273b57829003601f168201915b505050505081526020016003820180546127719061429d565b80601f016020809104026020016040519081016040528092919081815260200182805461279d9061429d565b80156127ea5780601f106127bf576101008083540402835291602001916127ea565b820191906000526020600020905b8154815290600101906020018083116127cd57829003601f168201915b50505050508152505081526020019060010190612600565b50505050905090565b600960009054906101000a900473ffffffffffffffffffffffffffffffffffffffff1681565b600033905090565b600073ffffffffffffffffffffffffffffffffffffffff168373ffffffffffffffffffffffffffffffffffffffff1614156128a9576040517f08c379a00000000000000000000000000000000000000000000000000000000081526004016128a090613f5f565b60405180910390fd5b600073ffffffffffffffffffffffffffffffffffffffff168273ffffffffffffffffffffffffffffffffffffffff161415612919576040517f08c379a000000000000000000000000000000000000000000000000000000000815260040161291090613e9f565b60405180910390fd5b80600160008573ffffffffffffffffffffffffffffffffffffffff1673ffffffffffffffffffffffffffffffffffffffff16815260200190815260200160002060008473ffffffffffffffffffffffffffffffffffffffff1673ffffffffffffffffffffffffffffffffffffffff168152602001908152602001600020819055508173ffffffffffffffffffffffffffffffffffffffff168373ffffffffffffffffffffffffffffffffffffffff167f8c5be1e5ebec7d5bd14f71427d1e84f3dd0314c0f7b2291e5b200ac8c7c3b925836040516129f79190613fbf565b60405180910390a3505050565b600073ffffffffffffffffffffffffffffffffffffffff168373ffffffffffffffffffffffffffffffffffffffff161415612a74576040517f08c379a0000000000000000000000000000000000000000000000000000000008152600401612a6b90613f3f565b60405180910390fd5b600073ffffffffffffffffffffffffffffffffffffffff168273ffffffffffffffffffffffffffffffffffffffff161415612ae4576040517f08c379a0000000000000000000000000000000000000000000000000000000008152600401612adb90613e5f565b60405180910390fd5b612aef838383612fbc565b60008060008573ffffffffffffffffffffffffffffffffffffffff1673ffffffffffffffffffffffffffffffffffffffff16815260200190815260200160002054905081811015612b75576040517f08c379a0000000000000000000000000000000000000000000000000000000008152600401612b6c90613ebf565b60405180910390fd5b8181036000808673ffffffffffffffffffffffffffffffffffffffff1673ffffffffffffffffffffffffffffffffffffffff16815260200190815260200160002081905550816000808573ffffffffffffffffffffffffffffffffffffffff1673ffffffffffffffffffffffffffffffffffffffff1681526020019081526020016000206000828254612c08919061417c565b925050819055508273ffffffffffffffffffffffffffffffffffffffff168473ffffffffffffffffffffffffffffffffffffffff167fddf252ad1be2c89b69c2b068fc378daa952ba7f163c4a11628f55a4df523b3ef84604051612c6c9190613fbf565b60405180910390a3612c7f848484612fc1565b50505050565b600073ffffffffffffffffffffffffffffffffffffffff168273ffffffffffffffffffffffffffffffffffffffff161415612cf5576040517f08c379a0000000000000000000000000000000000000000000000000000000008152600401612cec90613f9f565b60405180910390fd5b612d0160008383612fbc565b8060026000828254612d13919061417c565b92505081905550806000808473ffffffffffffffffffffffffffffffffffffffff1673ffffffffffffffffffffffffffffffffffffffff1681526020019081526020016000206000828254612d68919061417c565b925050819055508173ffffffffffffffffffffffffffffffffffffffff16600073ffffffffffffffffffffffffffffffffffffffff167fddf252ad1be2c89b69c2b068fc378daa952ba7f163c4a11628f55a4df523b3ef83604051612dcd9190613fbf565b60405180910390a3612de160008383612fc1565b5050565b600073ffffffffffffffffffffffffffffffffffffffff168273ffffffffffffffffffffffffffffffffffffffff161415612e55576040517f08c379a0000000000000000000000000000000000000000000000000000000008152600401612e4c90613f1f565b60405180910390fd5b612e6182600083612fbc565b60008060008473ffffffffffffffffffffffffffffffffffffffff1673ffffffffffffffffffffffffffffffffffffffff16815260200190815260200160002054905081811015612ee7576040517f08c379a0000000000000000000000000000000000000000000000000000000008152600401612ede90613e7f565b60405180910390fd5b8181036000808573ffffffffffffffffffffffffffffffffffffffff1673ffffffffffffffffffffffffffffffffffffffff168152602001908152602001600020819055508160026000828254612f3e91906141d2565b92505081905550600073ffffffffffffffffffffffffffffffffffffffff168373ffffffffffffffffffffffffffffffffffffffff167fddf252ad1be2c89b69c2b068fc378daa952ba7f163c4a11628f55a4df523b3ef84604051612fa39190613fbf565b60405180910390a3612fb783600084612fc1565b505050565b505050565b505050565b828054612fd29061429d565b90600052602060002090601f016020900481019282612ff4576000855561303b565b82601f1061300d57805160ff191683800117855561303b565b8280016001018555821561303b579182015b8281111561303a57825182559160200191906001019061301f565b5b509050613048919061304c565b5090565b5b8082111561306557600081600090555060010161304d565b5090565b600061307c6130778461401a565b613ff5565b9050828152602081018484840111156130985761309761440a565b5b6130a384828561425b565b509392505050565b6000813590506130ba81614743565b92915050565b600082601f8301126130d5576130d4614405565b5b81356130e5848260208601613069565b91505092915050565b6000813590506130fd8161475a565b92915050565b60006020828403121561311957613118614414565b5b6000613127848285016130ab565b91505092915050565b6000806040838503121561314757613146614414565b5b6000613155858286016130ab565b9250506020613166858286016130ab565b9150509250929050565b6000806000806080858703121561318a57613189614414565b5b6000613198878288016130ab565b94505060206131a9878288016130ab565b935050604085013567ffffffffffffffff8111156131ca576131c961440f565b5b6131d6878288016130c0565b925050606085013567ffffffffffffffff8111156131f7576131f661440f565b5b613203878288016130c0565b91505092959194509250565b60008060006060848603121561322857613227614414565b5b6000613236868287016130ab565b9350506020613247868287016130ab565b9250506040613258868287016130ee565b9150509250925092565b6000806040838503121561327957613278614414565b5b6000613287858286016130ab565b9250506020613298858286016130ee565b9150509250929050565b6000806000606084860312156132bb576132ba614414565b5b60006132c9868287016130ab565b93505060206132da868287016130ee565b925050604084013567ffffffffffffffff8111156132fb576132fa61440f565b5b613307868287016130c0565b9150509250925092565b60006020828403121561332757613326614414565b5b600082013567ffffffffffffffff8111156133455761334461440f565b5b613351848285016130c0565b91505092915050565b60008060006060848603121561337357613372614414565b5b600084013567ffffffffffffffff8111156133915761339061440f565b5b61339d868287016130c0565b93505060206133ae868287016130ab565b925050604084013567ffffffffffffffff8111156133cf576133ce61440f565b5b6133db868287016130c0565b9150509250925092565b600080600080608085870312156133ff576133fe614414565b5b600085013567ffffffffffffffff81111561341d5761341c61440f565b5b613429878288016130c0565b945050602085013567ffffffffffffffff81111561344a5761344961440f565b5b613456878288016130c0565b935050604085013567ffffffffffffffff8111156134775761347661440f565b5b613483878288016130c0565b925050606085013567ffffffffffffffff8111156134a4576134a361440f565b5b6134b0878288016130c0565b91505092959194509250565b6000602082840312156134d2576134d1614414565b5b60006134e0848285016130ee565b91505092915050565b60006134f583836139dd565b905092915050565b60006135098383613a47565b905092915050565b600061351d8383613abf565b905092915050565b60006135318383613b22565b905092915050565b61354281614206565b82525050565b61355181614206565b82525050565b6000613562826140a0565b61356c818561410b565b93508360208202850161357e8561404b565b8060005b858110156135ba578484038952815161359b85826134e9565b94506135a6836140d7565b925060208a01995050600181019050613582565b50829750879550505050505092915050565b60006135d7826140ab565b6135e1818561411c565b9350836020820285016135f38561405b565b8060005b8581101561362f578484038952815161361085826134fd565b945061361b836140e4565b925060208a019950506001810190506135f7565b50829750879550505050505092915050565b600061364c826140b6565b613656818561412d565b9350836020820285016136688561406b565b8060005b858110156136a457848403895281516136858582613511565b9450613690836140f1565b925060208a0199505060018101905061366c565b50829750879550505050505092915050565b60006136c1826140c1565b6136cb818561413e565b9350836020820285016136dd8561407b565b8060005b8581101561371957848403895281516136fa8582613525565b9450613705836140fe565b925060208a019950506001810190506136e1565b50829750879550505050505092915050565b61373481614218565b82525050565b6000613745826140cc565b61374f818561414f565b935061375f81856020860161426a565b61376881614419565b840191505092915050565b600061377e826140cc565b6137888185614160565b935061379881856020860161426a565b6137a181614419565b840191505092915050565b60006137b7826140cc565b6137c18185614171565b93506137d181856020860161426a565b80840191505092915050565b600081546137ea8161429d565b6137f48186614171565b9450600182166000811461380f576001811461382057613853565b60ff19831686528186019350613853565b6138298561408b565b60005b8381101561384b5781548189015260018201915060208101905061382c565b838801955050505b50505092915050565b6000613869602383614160565b91506138748261442a565b604082019050919050565b600061388c602283614160565b915061389782614479565b604082019050919050565b60006138af602283614160565b91506138ba826144c8565b604082019050919050565b60006138d2602683614160565b91506138dd82614517565b604082019050919050565b60006138f5600a83614160565b915061390082614566565b602082019050919050565b6000613918602883614160565b91506139238261458f565b604082019050919050565b600061393b602183614160565b9150613946826145de565b604082019050919050565b600061395e602583614160565b91506139698261462d565b604082019050919050565b6000613981602483614160565b915061398c8261467c565b604082019050919050565b60006139a4602583614160565b91506139af826146cb565b604082019050919050565b60006139c7601f83614160565b91506139d28261471a565b602082019050919050565b60006080830160008301516139f56000860182613539565b506020830151613a086020860182613539565b5060408301518482036040860152613a20828261373a565b91505060608301518482036060860152613a3a828261373a565b9150508091505092915050565b60006080830160008301518482036000860152613a64828261373a565b91505060208301518482036020860152613a7e828261373a565b91505060408301518482036040860152613a98828261373a565b91505060608301518482036060860152613ab2828261373a565b9150508091505092915050565b6000608083016000830151613ad76000860182613539565b506020830151613aea6020860182613539565b506040830151613afd6040860182613b8c565b5060608301518482036060860152613b15828261373a565b9150508091505092915050565b60006080830160008301518482036000860152613b3f828261373a565b9150506020830151613b546020860182613539565b5060408301518482036040860152613b6c828261373a565b9150506060830151613b816060860182613b8c565b508091505092915050565b613b9581614244565b82525050565b613ba481614244565b82525050565b613bb38161424e565b82525050565b6000613bc582846137ac565b915081905092915050565b6000613bdc82846137dd565b915081905092915050565b6000602082019050613bfc6000830184613548565b92915050565b6000608082019050613c176000830187613548565b613c246020830186613548565b8181036040830152613c368185613773565b90508181036060830152613c4a8184613773565b905095945050505050565b6000608082019050613c6a6000830187613548565b613c776020830186613548565b613c846040830185613b9b565b8181036060830152613c968184613773565b905095945050505050565b60006020820190508181036000830152613cbb8184613557565b905092915050565b60006020820190508181036000830152613cdd81846135cc565b905092915050565b60006020820190508181036000830152613cff8184613641565b905092915050565b60006020820190508181036000830152613d2181846136b6565b905092915050565b6000602082019050613d3e600083018461372b565b92915050565b60006020820190508181036000830152613d5e8184613773565b905092915050565b60006060820190508181036000830152613d808186613773565b9050613d8f6020830185613548565b8181036040830152613da18184613773565b9050949350505050565b60006080820190508181036000830152613dc58187613773565b9050613dd46020830186613548565b8181036040830152613de68185613773565b9050613df56060830184613b9b565b95945050505050565b60006080820190508181036000830152613e188187613773565b90508181036020830152613e2c8186613773565b90508181036040830152613e408185613773565b90508181036060830152613e548184613773565b905095945050505050565b60006020820190508181036000830152613e788161385c565b9050919050565b60006020820190508181036000830152613e988161387f565b9050919050565b60006020820190508181036000830152613eb8816138a2565b9050919050565b60006020820190508181036000830152613ed8816138c5565b9050919050565b60006020820190508181036000830152613ef8816138e8565b9050919050565b60006020820190508181036000830152613f188161390b565b9050919050565b60006020820190508181036000830152613f388161392e565b9050919050565b60006020820190508181036000830152613f5881613951565b9050919050565b60006020820190508181036000830152613f7881613974565b9050919050565b60006020820190508181036000830152613f9881613997565b9050919050565b60006020820190508181036000830152613fb8816139ba565b9050919050565b6000602082019050613fd46000830184613b9b565b92915050565b6000602082019050613fef6000830184613baa565b92915050565b6000613fff614010565b905061400b82826142cf565b919050565b6000604051905090565b600067ffffffffffffffff821115614035576140346143d6565b5b61403e82614419565b9050602081019050919050565b6000819050602082019050919050565b6000819050602082019050919050565b6000819050602082019050919050565b6000819050602082019050919050565b60008190508160005260206000209050919050565b600081519050919050565b600081519050919050565b600081519050919050565b600081519050919050565b600081519050919050565b6000602082019050919050565b6000602082019050919050565b6000602082019050919050565b6000602082019050919050565b600082825260208201905092915050565b600082825260208201905092915050565b600082825260208201905092915050565b600082825260208201905092915050565b600082825260208201905092915050565b600082825260208201905092915050565b600081905092915050565b600061418782614244565b915061419283614244565b9250827fffffffffffffffffffffffffffffffffffffffffffffffffffffffffffffffff038211156141c7576141c6614349565b5b828201905092915050565b60006141dd82614244565b91506141e883614244565b9250828210156141fb576141fa614349565b5b828203905092915050565b600061421182614224565b9050919050565b60008115159050919050565b600073ffffffffffffffffffffffffffffffffffffffff82169050919050565b6000819050919050565b600060ff82169050919050565b82818337600083830152505050565b60005b8381101561428857808201518184015260208101905061426d565b83811115614297576000848401525b50505050565b600060028204905060018216806142b557607f821691505b602082108114156142c9576142c8614378565b5b50919050565b6142d882614419565b810181811067ffffffffffffffff821117156142f7576142f66143d6565b5b80604052505050565b600061430b82614244565b91507fffffffffffffffffffffffffffffffffffffffffffffffffffffffffffffffff82141561433e5761433d614349565b5b600182019050919050565b7f4e487b7100000000000000000000000000000000000000000000000000000000600052601160045260246000fd5b7f4e487b7100000000000000000000000000000000000000000000000000000000600052602260045260246000fd5b7f4e487b7100000000000000000000000000000000000000000000000000000000600052603260045260246000fd5b7f4e487b7100000000000000000000000000000000000000000000000000000000600052604160045260246000fd5b600080fd5b600080fd5b600080fd5b600080fd5b6000601f19601f8301169050919050565b7f45524332303a207472616e7366657220746f20746865207a65726f206164647260008201527f6573730000000000000000000000000000000000000000000000000000000000602082015250565b7f45524332303a206275726e20616d6f756e7420657863656564732062616c616e60008201527f6365000000000000000000000000000000000000000000000000000000000000602082015250565b7f45524332303a20617070726f766520746f20746865207a65726f20616464726560008201527f7373000000000000000000000000000000000000000000000000000000000000602082015250565b7f45524332303a207472616e7366657220616d6f756e742065786365656473206260008201527f616c616e63650000000000000000000000000000000000000000000000000000602082015250565b7f6f6e6c792061646d696e00000000000000000000000000000000000000000000600082015250565b7f45524332303a207472616e7366657220616d6f756e742065786365656473206160008201527f6c6c6f77616e6365000000000000000000000000000000000000000000000000602082015250565b7f45524332303a206275726e2066726f6d20746865207a65726f2061646472657360008201527f7300000000000000000000000000000000000000000000000000000000000000602082015250565b7f45524332303a207472616e736665722066726f6d20746865207a65726f20616460008201527f6472657373000000000000000000000000000000000000000000000000000000602082015250565b7f45524332303a20617070726f76652066726f6d20746865207a65726f2061646460008201527f7265737300000000000000000000000000000000000000000000000000000000602082015250565b7f45524332303a2064656372656173656420616c6c6f77616e63652062656c6f7760008201527f207a65726f000000000000000000000000000000000000000000000000000000602082015250565b7f45524332303a206d696e7420746f20746865207a65726f206164647265737300600082015250565b61474c81614206565b811461475757600080fd5b50565b61476381614244565b811461476e57600080fd5b5056fea264697066735822122078211bbcbc9e4bfd0c7247f06e4cec43c7fbe96e6dd71e6fd3e989ffee4a589764736f6c63430008050033",
  "immutableReferences": {},
  "source": "// SPDX-License-Identifier: MIT\r\n\r\npragma solidity ^0.8.5;\r\n\r\n\r\nimport \"@openzeppelin/contracts/token/ERC20/ERC20.sol\";\r\n\r\n\r\ncontract HAT_TOKEN is ERC20 {\r\n    \r\n    \r\n    struct Employee{\r\n        string name;\r\n        string employeeid;\r\n        string employeerank;\r\n        string employeegroup;\r\n    }\r\n    \r\n    \r\n    struct User{\r\n        string name;\r\n        address user_crypto_id;\r\n        string password;\r\n        uint256 balance;\r\n    }\r\n    \r\n    \r\n    struct Transaction{\r\n        address sender;\r\n        address reciver;\r\n        uint256 amount;\r\n        string transaction_type;\r\n    }\r\n    \r\n    \r\n    struct Contact{\r\n        address owner;\r\n        address contact_name;\r\n        string name;\r\n        string contact_type;\r\n    }\r\n\r\n    //event NewUser( string name, address user_crypto_id, string password);\r\n    \r\n    User[] public Users;\r\n    Contact[] public Contacts;\r\n    Transaction[] public Transactions;\r\n    Employee[] public Employees;\r\n    \r\n\r\n\r\n    \r\n    address public admin;\r\n    address public employeeadmin;\r\n    uint256 total_hat_burnt;\r\n    \r\n    constructor() ERC20('Hitaya Token', 'HAT'){\r\n        _mint(msg.sender, 1000000000 * 10 ** 18);\r\n    }\r\n    \r\n    \r\n    function mint(address to, uint amount) external {\r\n        require(msg.sender==admin, 'only admin');\r\n        _mint(to, amount);\r\n    }\r\n    \r\n    \r\n    function burn(uint amount) external {\r\n        total_hat_burnt+=amount;\r\n        _burn(msg.sender, amount);\r\n    }\r\n    \r\n    \r\n    function change_admin(address _address) public{\r\n        admin=_address;\r\n    }\r\n    \r\n    \r\n    function change_employeeadmin(address _address) public{\r\n        employeeadmin=_address;\r\n    }\r\n    \r\n    \r\n    function login(string memory _password) public view returns (bool){\r\n        for (uint i=0;i<Users.length;i++){\r\n            if (Users[i].user_crypto_id==msg.sender && keccak256(abi.encodePacked(Users[i].password))==keccak256(abi.encodePacked(_password))){\r\n                return true;\r\n            }\r\n        }\r\n        return false;\r\n    }\r\n    \r\n    \r\n    function hat_burnt() public view returns(uint256){\r\n        return (total_hat_burnt);\r\n    }\r\n    \r\n\r\n    function _create_New_User(string memory _name, address _user_crypto_id, string memory _password) public {\r\n        Users.push(User( _name, _user_crypto_id, _password,0));\r\n\t//emit NewUser(_name, _user_crypto_id, _password);\r\n       \r\n    }\r\n    \r\n    \r\n    function _create_New_Employee(string memory _name, string memory _employeeid, string memory _employeerank, string memory _emplyeegroup) public returns(bool){\r\n        require(employeeadmin==msg.sender);\r\n        Employees.push(Employee( _name, _employeeid, _employeerank, _emplyeegroup));\r\n        return true;\r\n    }\r\n    \r\n    \r\n    function _create_New_Contact(address _owner, address _contact_name, string memory _name, string memory _contact_type) public {\r\n        Contacts.push(Contact( _owner, _contact_name, _name,_contact_type));\r\n    }\r\n    \r\n    \r\n\r\n    function transfer(address recipient, uint256 amount, string memory _trans_type) public virtual returns (bool) {\r\n        _transfer(msg.sender, recipient, amount);\r\n        //transferFrom(msg.sender, recipient, amount);\r\n        for (uint i=0;i<Users.length;i++){\r\n            if (Users[i].user_crypto_id==msg.sender){\r\n                Users[i].balance=Users[i].balance-amount;\r\n            }\r\n            if (Users[i].user_crypto_id==recipient){\r\n                Users[i].balance=Users[i].balance+amount;\r\n            }\r\n        }\r\n        Transactions.push(Transaction( msg.sender, recipient, amount, _trans_type));\r\n        return true;\r\n    }\r\n    \r\n    \r\n    function airdrop(address recipient, uint256 amount) public virtual returns (bool) {\r\n        _transfer(msg.sender, recipient, amount);\r\n        for (uint i=0;i<Users.length;i++){\r\n            if (Users[i].user_crypto_id==recipient){\r\n                Users[i].balance=Users[i].balance+amount;\r\n            }\r\n        }\r\n        Transactions.push(Transaction( msg.sender, recipient, amount, \"AIR DROP\"));\r\n        return true;\r\n    }\r\n    \r\n    \r\n    function user_view(uint id) public view returns (string memory ,address , string memory)\r\n    {\r\n        User memory p = Users[id];\r\n        return (p.name,p.user_crypto_id,p.password); // return multiple values like this\r\n    }\r\n    \r\n    \r\n    function employees_view() public view returns (Employee[] memory)\r\n    {\r\n\r\n        return (Employees); // return multiple values like this\r\n    }\r\n    \r\n    \r\n    function user_view() public view returns (User[] memory)\r\n    {\r\n\r\n        return (Users); // return multiple values like this\r\n    }\r\n    \r\n    \r\n    function transaction_view() public view returns (Transaction[] memory)\r\n    {\r\n\r\n        return (Transactions); // return multiple values like this\r\n    }\r\n    \r\n    \r\n    function contacts_view() public view returns (Contact[] memory)\r\n    {\r\n\r\n        return (Contacts); // return multiple values like this\r\n    }\r\n    \r\n    \r\n}\r\n",
  "sourcePath": "C:\\Users\\ZEUS\\Desktop\\Hitaya\\truffle\\contracts\\HAT_TOKEN.sol",
  "compiler": {
    "name": "solc",
    "version": "0.8.5+commit.a4f2e591.Emscripten.clang"
  },
  "schemaVersion": "3.4.3",
  "updatedAt": "2021-09-25T22:24:12.880Z",
  "networkType": "ethereum",
  "devdoc": {
    "kind": "dev",
    "methods": {
      "allowance(address,address)": {
        "details": "See {IERC20-allowance}."
      },
      "approve(address,uint256)": {
        "details": "See {IERC20-approve}. Requirements: - `spender` cannot be the zero address."
      },
      "balanceOf(address)": {
        "details": "See {IERC20-balanceOf}."
      },
      "decimals()": {
        "details": "Returns the number of decimals used to get its user representation. For example, if `decimals` equals `2`, a balance of `505` tokens should be displayed to a user as `5.05` (`505 / 10 ** 2`). Tokens usually opt for a value of 18, imitating the relationship between Ether and Wei. This is the value {ERC20} uses, unless this function is overridden; NOTE: This information is only used for _display_ purposes: it in no way affects any of the arithmetic of the contract, including {IERC20-balanceOf} and {IERC20-transfer}."
      },
      "decreaseAllowance(address,uint256)": {
        "details": "Atomically decreases the allowance granted to `spender` by the caller. This is an alternative to {approve} that can be used as a mitigation for problems described in {IERC20-approve}. Emits an {Approval} event indicating the updated allowance. Requirements: - `spender` cannot be the zero address. - `spender` must have allowance for the caller of at least `subtractedValue`."
      },
      "increaseAllowance(address,uint256)": {
        "details": "Atomically increases the allowance granted to `spender` by the caller. This is an alternative to {approve} that can be used as a mitigation for problems described in {IERC20-approve}. Emits an {Approval} event indicating the updated allowance. Requirements: - `spender` cannot be the zero address."
      },
      "name()": {
        "details": "Returns the name of the token."
      },
      "symbol()": {
        "details": "Returns the symbol of the token, usually a shorter version of the name."
      },
      "totalSupply()": {
        "details": "See {IERC20-totalSupply}."
      },
      "transfer(address,uint256)": {
        "details": "See {IERC20-transfer}. Requirements: - `recipient` cannot be the zero address. - the caller must have a balance of at least `amount`."
      },
      "transferFrom(address,address,uint256)": {
        "details": "See {IERC20-transferFrom}. Emits an {Approval} event indicating the updated allowance. This is not required by the EIP. See the note at the beginning of {ERC20}. Requirements: - `sender` and `recipient` cannot be the zero address. - `sender` must have a balance of at least `amount`. - the caller must have allowance for ``sender``'s tokens of at least `amount`."
      }
    },
    "version": 1
  },
  "userdoc": {
    "kind": "user",
    "methods": {},
    "version": 1
  }
}